:020000040800F2
:1000000000280020A11C0008751A00087B1A0008AF
:10001000811A0008871A00088D1A000800000000E5
:10002000000000000000000000000000931A00081B
:100030009F1A000800000000AB1A0008B71A000859
:10004000E91C0008E91C0008E91C0008E91C00087C
:10005000E91C0008E91C0008E91C0008E91C00086C
:10006000E91C0008E91C0008E91C0008E91C00085C
:10007000E91C0008E91C0008E91C0008E91C00084C
:10008000E91C0008E91C0008E91C0008E91C00083C
:10009000E91C0008E91C0008E91C0008E91C00082C
:1000A000E91C0008E91C0008E91C0008E91C00081C
:1000B000C51A0008E91C000800000000E91C00083F
:1000C000E91C00080000000000000000E91C000816
:1000D00000000000E91C0008E91C00080000000006
:1000E000E91C0008E91C0008E91C000800000000E9
:1000F0000000000000000000000000000000000000
:0C01000000000000000000005FF808F1A3
:10010C0010B5054C237833B9044B13B10448AFF345
:10011C0000800123237010BD74000020000000003B
:10012C001833000808B5034B1BB103490348AFF360
:10013C00008008BD00000000780000201833000883
:10014C0080B483B000AF7860094A7B6852F82330E2
:10015C00012B06D1064A7B68002142F823100123AB
:10016C0000E0002318460C37BD4680BC704700BF2A
:10017C009000002080B483B000AF7860044A7B68A4
:10018C00012142F8231000BF0C37BD4680BC7047DC
:10019C009000002080B582B000AF00237B606DE042
:1001AC003A4A7B6852F8232039497B6841F823206E
:1001BC00384A7B6852F8232034497B6841F8232065
:1001CC00354A7B6852F8232034497B6831F8133068
:1001DC001946104602F06EF8034619462D4A7B6804
:1001EC0042F823102A4A7B6852F8232027497B685F
:1001FC0051F823309A423ED1244A7B6852F823208E
:10020C0024497B6851F823309A4234D1244A7B68C4
:10021C0052F823201F497B6851F823309A4216D09C
:10022C001C4A7B6852F823201D497B6841F8232027
:10023C00184A7B6852F82330002B1CD17868FFF7E2
:10024C0099FF184A7B68C82142F8231013E0154A1D
:10025C007B6852F823305A1E12497B6841F82320E0
:10026C00104A7B6852F82330002B04D10C4A7B686F
:10027C00012142F823107B6801337B607B68022BE1
:10028C008EDD00BF00BF0837BD4680BD0C000020CE
:10029C0000000020180000203C0000204800002036
:1002AC00240000203000002080B500AFC34B1B6839
:1002BC00013B042B00F2F78101A252F823F000BF9E
:1002CC00E1020008A3030008530400080F0500080E
:1002DC00F905000801F000FC00F018FEB84B1A6894
:1002EC00B84B1B681A44B84B1B689A4229D1B64BC1
:1002FC001B68B64A1360B24B1B68B54A1360B14B0E
:10030C001B68B44A1360B44B00221A60AB4B022238
:10031C001A60B24B00221A60AD4B1B684FF47A7214
:10032C0002FB03F31946002001F0DEFA40F2E7115C
:10033C00012001F0D9FA4FF47A71022001F0D4FABD
:10034C00BAE1A24B1B68A04A1360A14B1B689C4AE4
:10035C001360A04B1B689B4A13609F4B00221A60D2
:10036C00964B02221A609D4B00221A60984B1B6818
:10037C004FF47A7202FB03F31946002001F0B4FA31
:10038C0040F2E711012001F0AFFA4FF47A7102202C
:10039C0001F0AAFA90E101F0EDFB904B1B68002BE9
:1003AC0004D100F001FF8D4B01221A60012001F0F5
:1003BC00BBFA0346012B06D100F0D2FE40F2E71146
:1003CC00012001F091FA022001F0AEFA0346012B54
:1003DC0006D100F0E9FE4FF47A71022001F084FAA4
:1003EC00002001F0A1FA0346012B0CD1734B032220
:1003FC001A60784B1B684FF47A7202FB03F31946B0
:10040C00002001F071FA0020FFF79AFE0346012B41
:10041C0040F04B81694B0C221A6040F2E71101202D
:10042C0001F062FA4FF47A71022001F05DFA4FF498
:10043C00FA71032001F058FA694B00221A60694BDB
:10044C0000221A6031E101F0B9FB644B1B68002BF0
:10045C0004D100F0A9FE614B01221A60012001F0C9
:10046C0063FA0346012B06D100F07AFE40F2E71145
:10047C00012001F039FA022001F056FA0346012B53
:10048C0006D100F091FE4FF47A71022001F02CFAA3
:10049C00002001F049FA0346012B0DD1474B0422F1
:1004AC001A604B4B1B6801334FF47A7202FB03F357
:1004BC001946002001F018FA0020FFF741FE034610
:1004CC00012B40F0F4803D4B0C221A6040F2E711F6
:1004DC00012001F009FA4FF47A71022001F004FABC
:1004EC004FF4FA71032001F0FFF942F2107105206C
:1004FC0001F0FAF93C4B05221A60394B00221A60C4
:10050C00D5E001F07FFB354B1B68002B04D100F0CC
:10051C004BFE324B01221A60012001F005FA034612
:10052C00012B06D100F01CFE40F2E711012001F076
:10053C00DBF9022001F0F8F90346012B06D100F09B
:10054C0033FE4FF47A71022001F0CEF9002001F055
:10055C00EBF90346012B0CD1184B05221A601D4BED
:10056C001B684FF47A7202FB03F31946002001F06A
:10057C00BBF90020FFF7E4FD0346012B40F0998006
:10058C000E4B0C221A6040F2E711012001F0ACF97D
:10059C004FF47A71022001F0A7F94FF4FA7103209D
:1005AC0001F0A2F942F21071062001F09DF90E4BF8
:1005BC0006221A600A4B00221A607AE0B40000206E
:1005CC005800002054000020500000205C00002047
:1005DC006000002064000020B80000209C00002077
:1005EC00A4000020A8000020A000002001F02EFB99
:1005FC00324B1B68002B04D100F0D6FD2F4B01228F
:10060C001A60012001F090F90346012B06D100F08D
:10061C00A7FD40F2E711012001F066F9022001F07C
:10062C0083F90346012B06D100F0BEFD4FF47A711D
:10063C00022001F059F9002001F076F90346012B54
:10064C000DD11F4B02221A601E4B1B6801334FF455
:10065C007A7202FB03F31946002001F045F90020E1
:10066C00FFF76EFD0346012B25D1154B0C221A60AA
:10067C0040F2E711012001F037F94FF47A710220B2
:10068C0001F032F94FF4FA71032001F02DF942F226
:10069C001071072001F028F90B4B07221A600B4B45
:1006AC0000221A6007E000BF06E000BF04E000BFB4
:1006BC0002E000BF00E000BF00BF80BD9C00002036
:1006CC00B400002060000020A0000020A400002046
:1006DC0080B500AFAA4B1B680E2B00F0EC800E2BE4
:1006EC0000F347810C2B02D00D2B71D041E1A54BAF
:1006FC001B68002B06D101F0FBF900F08BFEA14B1F
:10070C0001221A60012001F00FF90346012B06D1DA
:10071C0000F026FD40F2E711012001F0E5F802207F
:10072C0001F002F90346012B06D100F073FE4FF4E1
:10073C007A71022001F0D8F8032001F0F5F8034695
:10074C00012B08D11221904801F0E3FD4FF4FA710E
:10075C00032001F0C9F80020FFF7F2FC0346012B3F
:10076C0017D1874B0D221A60864B00221A6040F27B
:10077C00E711012001F0B8F84FF47A71022001F072
:10078C00B3F84FF4FA71032001F0AEF87F4B00225E
:10079C001A600120FFF7D4FC0346012B14D1784BCF
:1007AC000F221A6040F2E711012001F09DF84FF47E
:1007BC007A71022001F098F84FF4FA71032001F0DD
:1007CC0093F8734B00221A600220FFF7B9FCD5E0B6
:1007DC006C4B1B68002B0BD1012212216A4801F0D3
:1007EC0080FD01F09BF900F085FE664B01221A603A
:1007FC00012001F099F80346012B06D100F0B0FC62
:10080C0040F2E711012001F06FF8022001F08CF8A2
:10081C000346012B06D100F06DFE4FF47A710220D5
:10082C0001F062F8032001F07FF80346012B08D198
:10083C004421554801F06DFD4FF4FA71032001F08D
:10084C0053F80020FFF77CFC0346012B17D14C4BCF
:10085C000E221A604B4B00221A6040F2E711012065
:10086C0001F042F84FF47A71022001F03DF84FF498
:10087C00FA71032001F038F8464B00221A6001206F
:10088C00FFF75EFC0346012B75D13D4B12221A601B
:10089C0040F2E711012001F027F84FF47A710220A1
:1008AC0001F022F84FF4FA71032001F01DF8374BD8
:1008BC0000221A605FE0334B1B68002B0BD1012226
:1008CC004421314801F00DFD01F03EF900F082FEAB
:1008DC002C4B01221A60012001F026F80346012B53
:1008EC0006D100F03DFC40F2E711012000F0FCFFC6
:1008FC00022001F019F80346012B06D100F06AFE24
:10090C004FF47A71022000F0EFFF032001F00CF895
:10091C000346012B08D188211B4801F0FAFC4FF447
:10092C00FA71032000F0E0FF0020FFF709FC0346FA
:10093C00012B02D1124B01221A600120FFF700FC9F
:10094C000346012B19D10E4B14221A6040F2E71109
:10095C00012000F0C9FF4FF47A71022000F0C4FFAF
:10096C004FF4FA71032000F0BFFF0A4B00221A600B
:10097C0003E000BF02E000BF00E000BF00BF80BD8D
:10098C00B4000020A400002000080140AC000020AE
:10099C00A8000020B000002080B500AFBB4B1B6846
:1009AC000F3B062B00F2918201A252F823F000BFFC
:1009BC00D9090008B70A0008790B0008B50B000824
:1009CC00C50C00088D0D00083B0E0008B04B1B68D1
:1009DC00002B06D100F062FDAD4B1B680133AC4A15
:1009EC001360012000F0A0FF0346012B06D100F09C
:1009FC00B7FB40F2E711012000F076FF022000F077
:100A0C0093FF0346012B06D100F004FD4FF47A71DD
:100A1C00022000F069FF032000F086FF0346012B43
:100A2C0008D112219B4801F074FC4FF4FA71032099
:100A3C0000F05AFF0020FFF783FB0346012B19D16E
:100A4C00924B0D221A60944B00221A6040F2E7116F
:100A5C00012000F049FF4FF47A71022000F044FFAE
:100A6C004FF4FA71032000F03FFF42F210710420A2
:100A7C0000F03AFF0120FFF763FB0346012B06D180
:100A8C00834B1B680133824A136000F007FD022080
:100A9C00FFF756FB0346012B40F019827B4B1022CB
:100AAC001A607B4B00221A6011E201F021F87B4B9B
:100ABC001B687B4A1360764B1B68002B04D100F03B
:100ACC00A9FC734B01221A60012000F02DFF034694
:100ADC00012B06D100F044FB40F2E711012000F09D
:100AEC0003FF022000F020FF0346012B06D100F08B
:100AFC0091FC4FF47A71022000F0F6FE0020FFF713
:100B0C001FFB0346012B14D1604B0D221A60624B64
:100B1C0000221A6040F2E711012000F0E5FE4FF4CC
:100B2C007A71022000F0E0FE4FF4FA71032000F01D
:100B3C00DBFE0120FFF704FB0346012B40F0C981CB
:100B4C00524B0F221A60524B00221A6040F2E711EE
:100B5C00012000F0C9FE4FF47A71022000F0C4FEAF
:100B6C004FF4FA71032000F0BFFEB2E1474B0222B2
:100B7C001A604C4B00221A604B4B00221A604B4BF4
:100B8C001B684FF47A7202FB03F31946002000F045
:100B9C00ABFE40F2BB11012000F0A6FE4FF47A71BF
:100BAC00022000F0A1FE9DE1414B1B68002B06D1F9
:100BBC0000F0E4FC3E4B1B6801333D4A13600120FE
:100BCC0000F0B2FE0346012B06D100F0C9FA40F248
:100BDC00E711012000F088FE022000F0A5FE03467C
:100BEC00012B06D100F086FC4FF47A71022000F044
:100BFC007BFE032000F098FE0346012B08D1442114
:100C0C00244801F086FB4FF4FA71032000F06CFECF
:100C1C000020FFF795FA0346012B1CD11B4B0E222B
:100C2C001A601D4B00221A60224B00221A6040F2FF
:100C3C00E711012000F058FE4FF47A71022000F009
:100C4C0053FE4FF4FA71032000F04EFE42F2107185
:100C5C00042000F049FE0120FFF772FA0346012B35
:100C6C0006D1134B1B680133114A136000F086FC4C
:100C7C000220FFF765FA0346012B40F02C81034B51
:100C8C0013221A600A4B00221A6024E1B4000020DF
:100C9C00A800002000080140A4000020D000002083
:100CAC00500000209C000020B800002060000020B4
:100CBC00AC000020B000002000F030FF8A4B1B6815
:100CCC008A4A13608A4B1B68002B04D100F012FC7B
:100CDC00874B01221A60012000F026FE0346012BEF
:100CEC0006D100F03DFA40F2E711012000F0FCFDC6
:100CFC00022000F019FE0346012B06D100F0FAFB8E
:100D0C004FF47A71022000F0EFFD0020FFF718FA83
:100D1C000346012B17D1774B0E221A60764B00221B
:100D2C001A60764B00221A6040F2E711012000F0A5
:100D3C00DBFD4FF47A71022000F0D6FD4FF4FA710E
:100D4C00032000F0D1FD0120FFF7FAF90346012B37
:100D5C0040F0C380674B12221A60654B00221A6068
:100D6C0040F2E711012000F0BFFD4FF47A71022030
:100D7C0000F0BAFD4FF4FA71032000F0B5FDACE0C1
:100D8C005E4B1B68002B06D100F05AFC5B4B1B68BA
:100D9C0001335A4A1360012000F0C6FD0346012BB3
:100DAC0006D100F0DDF940F2E711012000F09CFDC6
:100DBC00022000F0B9FD0346012B06D100F00AFC1D
:100DCC004FF47A71022000F08FFD032000F0ACFD8F
:100DDC000346012B08D18821494801F09AFA4FF4B7
:100DEC00FA71032000F080FD0020FFF7A9F90346FB
:100DFC00012B02D13F4B01221A600120FFF7A0F911
:100E0C000346012B06D13D4B1B6801333B4A136053
:100E1C0000F016FC0220FFF793F90346012B5ED17C
:100E2C00344B15221A60354B00221A6057E000F043
:100E3C008BFE344B1B68344A1360304B1B68002B01
:100E4C0004D100F0C7FB2D4B01221A60012000F0E9
:100E5C006BFD0346012B06D100F082F940F2E7113D
:100E6C00012000F041FD022000F05EFD0346012B45
:100E7C0006D100F0AFFB4FF47A71022000F034FD84
:100E8C000020FFF75DF90346012B02D1194B01221B
:100E9C001A600120FFF754F90346012B21D1154BA1
:100EAC0014221A60154B00221A6040F2E71101203F
:100EBC0000F01AFD4FF47A71022000F015FD4FF48A
:100ECC00FA71032000F010FD0BE000BF0AE000BF38
:100EDC0008E000BF06E000BF04E000BF02E000BF76
:100EEC0000E000BF00BF80BDC400002058000020FF
:100EFC00AC000020B4000020A4000020B0000020B2
:100F0C0000080140BC0000205400002080B500AF58
:100F1C00012240F2FF71054801F0E3F901224FF480
:100F2C00FE41034801F0DDF900BF80BD000C01401B
:100F3C000008014080B586B000AF78603F4A07F1E9
:100F4C000C0307CA03C31A8007F10C027B68134415
:100F5C001B785BB2DB43DBB2DB09DBB21A46012147
:100F6C00374801F0BEF907F10C027B6813441B787B
:100F7C0003F04003002B0CBF01230023DBB21A4605
:100F8C0002212F4801F0ADF907F10C027B681344E4
:100F9C001B7803F02003002B0CBF01230023DBB2D2
:100FAC001A460421264801F09CF907F10C027B68D3
:100FBC0013441B7803F01003002B0CBF01230023F8
:100FCC00DBB21A4608211E4801F08BF907F10C021E
:100FDC007B6813441B7803F00803002B0CBF012320
:100FEC000023DBB21A461021154801F07AF907F1FB
:100FFC000C027B6813441B7803F00403002B0CBF1A
:10100C0001230023DBB21A4620210D4801F069F9B7
:10101C0007F10C027B6813441B7803F00203002BCE
:10102C000CBF01230023DBB21A464021044801F017
:10103C0058F900BF1837BD4680BD00BF30330008DB
:10104C00000C014080B586B000AF7860424A07F1D1
:10105C000C0307CA03C31A8007F10C027B68134404
:10106C001B785BB2DB43DBB2DB09DBB21A464FF415
:10107C0080713A4801F035F907F10C027B68134492
:10108C001B7803F04003002B0CBF01230023DBB2C1
:10109C001A464FF40071314801F023F907F10C02A4
:1010AC007B6813441B7803F02003002B0CBF012337
:1010BC000023DBB21A464FF48061284801F011F985
:1010CC0007F10C027B6813441B7803F01003002B10
:1010DC000CBF01230023DBB21A464FF400611F48FA
:1010EC0001F0FFF807F10C027B6813441B7803F046
:1010FC000803002B0CBF01230023DBB21A464FF46C
:10110C008051164801F0EDF807F10C027B6813448E
:10111C001B7803F00403002B0CBF01230023DBB26C
:10112C001A464FF400510D4801F0DBF807F10C02A0
:10113C007B6813441B7803F00203002B0CBF0123C4
:10114C000023DBB21A464FF48041044801F0C9F881
:10115C0000BF1837BD4680BD303300080008014081
:10116C0080B500AF01224FF480710E4801F0B9F840
:10117C0001224FF480610B4801F0B3F8002280216A
:10118C00084801F0AEF800224FF40071054801F058
:10119C00A8F80020FFF7CEFE0020FFF753FF00BF9A
:1011AC0080BD00BF000C014080B500AF914B1A68A8
:1011BC00914B1B68134401335A00904B1B689A42A5
:1011CC0002DC8E4B00221A608C4B1B6801338B4A5D
:1011DC001360884B1B685A1C884B1B689A4226DB91
:1011EC0000224FF48071864801F07BF800224FF406
:1011FC008061834801F075F801228021804801F05C
:10120C0070F801224FF400717D4801F06AF87D4BB3
:10121C001B685A1E7B490A601846FFF78BFE7A4BF7
:10122C001B685A1E78490A601846FFF70BFF714B72
:10123C001B685A1C714B1B689A4247DA6D4B1A6833
:10124C006D4B1B6813445A1C6C4B1B689A423DDB5C
:10125C0000224FF480716A4801F043F800224FF4E9
:10126C008061674801F03DF801228021644801F05B
:10127C0038F801224FF40071614801F032F8614BEB
:10128C001B685A1E5F490A601846FFF753FE5F4BF6
:10129C001B68013B5D4A13605C4B1B681846FFF7EB
:1012AC00D1FE544B1A68544B1B681A44534B1B68A1
:1012BC009A420BDA564B1B68524A13604E4B1B6812
:1012CC00524A13604B4B1B684F4A1360494B1A68C8
:1012DC00494B1B6813445A1C484B1B689A4231DA21
:1012EC00444B1B685A00444B1B6813449A1C434BD9
:1012FC001B689A4226DB00224FF48071404800F0B4
:10130C00F0FF00224FF480613D4800F0EAFF01221B
:10131C0080213B4800F0E5FF01224FF40071384872
:10132C0000F0DFFF374B1B685A1E36490A6018461F
:10133C00FFF788FE344B1B685A1E33490A60184667
:10134C00FFF7F8FD2B4B1B685A002B4B1B68134403
:10135C009A1C2A4B1B689A424ADA264B1A68264B6F
:10136C001B68134401335A00244B1B689A423FDB21
:10137C0000224FF48071224800F0B3FF00224FF49A
:10138C0080611F4800F0ADFF012280211C4800F055
:10139C00A8FF01224FF40071194800F0A2FF194B6D
:1013AC001B685A1E17490A601846FFF74BFE174B6D
:1013BC001B68013B154A1360144B1B681846FFF75A
:1013CC00B9FD0C4B1A680C4B1B68134401335A00C3
:1013DC000A4B1B689A420BDC0D4B1B68094A1360C5
:1013EC00054B1B68094A1360024B1B68064A1360C5
:1013FC0000BF80BD6000002064000020B800002009
:10140C00000C014050000020580000205400002027
:10141C005C00002080B500AF00224FF480711B48A7
:10142C0000F05FFF00224FF48061184800F059FF74
:10143C0001228021154800F054FF01224FF4007165
:10144C00124800F04EFF124B1B68002B0BD1114BB6
:10145C001B6801330F4A13600E4B1B680E4A136056
:10146C000B4B01221A600C4B1B685A1C0A490A6070
:10147C001846FFF75FFD0220FFF7E4FD064B1B68E3
:10148C00013B054A136000BF80BD00BF000C01404A
:10149C00CC00002050000020D000002080B500AF10
:1014AC0000224FF48071114800F01BFF00224FF412
:1014BC0080610E4800F015FF012280210B4800F0DE
:1014CC0010FF01224FF40071084800F00AFF084B8E
:1014DC001B680133064A1360054B1B681846FFF75F
:1014EC0029FD0220FFF7AEFD00BF80BD000C0140BE
:1014FC00D000002080B500AF00224FF480711B4853
:10150C0000F0EFFE00224FF48061184800F0E9FE75
:10151C0001228021154800F0E4FE01224FF40071F5
:10152C00124800F0DEFE124B1B68002B0BD1114B46
:10153C001B6801330F4A13600E4B1B680E4A136075
:10154C000B4B01221A600C4B1B685A1C0A490A608F
:10155C001846FFF7EFFC0320FFF774FD064B1B68E2
:10156C00013B054A136000BF80BD00BF000C014069
:10157C00C800002058000020C400002080B500AF37
:10158C0000224FF48071114800F0ABFE00224FF4A2
:10159C0080610E4800F0A5FE012280210B4800F06E
:1015AC00A0FE01224FF40071084800F09AFE084B8F
:1015BC001B680133064A1360054B1B681846FFF77E
:1015CC00B9FC0320FFF73EFD00BF80BD000C0140BD
:1015DC00C400002080B500AF00224FF48071144885
:1015EC0000F07FFE00224FF48061114800F079FE7C
:1015FC00012280210E4800F074FE01224FF400718C
:10160C000B4800F06EFE0B4B1B68002B06D10A4BEF
:10161C001B680A4A1360074B01221A60074B1B68B0
:10162C001846FFF787FC0420FFF70CFD00BF80BDB8
:10163C00000C0140C000002054000020BC00002021
:10164C0080B500AF00224FF48071114800F049FEC4
:10165C0000224FF480610E4800F043FE01228021ED
:10166C000B4800F03EFE01224FF40071084800F0D8
:10167C0038FE084B1B680133064A1360054B1B6888
:10168C001846FFF757FC0420FFF7DCFC00BF80BDB9
:10169C00000C0140BC00002080B500AF00F020FB26
:1016AC0000F016F800F09CF800F04EF8064801F037
:1016BC0075FA064B01221A60FEF7F6FDFFF708F8E3
:1016CC00FFF76AF9F8E700BFD4000020B40000204F
:1016DC0080B590B000AF07F11803282200211846FE
:1016EC0001F00CFE3B1D00221A605A609A60DA6011
:1016FC001A610223BB610123BB621023FB6200232E
:10170C007B6307F11803184600F01CFE0346002B00
:10171C0001D000F0E3F80F237B600023BB600023B3
:10172C00FB6000233B6100237B613B1D00211846BD
:10173C0001F088F80346002B01D000F0CFF800BF71
:10174C004037BD4680BD000080B586B000AF07F1C4
:10175C00080300221A605A609A60DA603B46002245
:10176C001A605A601D4B4FF080421A601B4B41F6B9
:10177C003F725A60194B00229A60184B0922DA60AA
:10178C00164B00221A61154B00229A61134801F086
:10179C00B5F90346002B01D000F0A0F84FF48053AC
:1017AC00BB6007F1080319460C4801F033FB0346F4
:1017BC00002B01D000F092F800233B6000237B60EB
:1017CC003B461946054801F00BFD0346002B01D0A2
:1017DC0000F084F800BF1837BD4680BDD40000204F
:1017EC0080B588B000AF07F1100300221A605A6070
:1017FC009A60DA602F4B9B692E4A43F01003936179
:10180C002C4B9B6903F01003FB60FB68294B9B6915
:10181C00284A43F004039361264B9B6903F00403AD
:10182C00BB60BB68234B9B69224A43F0080393615E
:10183C00204B9B6903F008037B607B68002247F612
:10184C00FE711D4800F04DFD002240F2FF711B4857
:10185C0000F047FD4FF460433B6100237B610123A3
:10186C00BB6107F110031946154800F0A9FB47F6B8
:10187C00FE733B6101237B610023BB610223FB618F
:10188C0007F1100319460C4800F09AFB40F2FF7365
:10189C003B6101237B610023BB610223FB6107F1E8
:1018AC0010031946054800F08BFB00BF2037BD46DE
:1018BC0080BD00BF0010024000080140000C014038
:1018CC000010014080B582B000AF786000F046F89F
:1018DC00FEF760FC00BF0837BD4680BD80B400AF8A
:1018EC0072B600BFFEE7000080B483B000AF786032
:1018FC0039603B68094A82FB03129210DB17D21A3B
:10190C0007497B6841F82320064A7B68002142F88E
:10191C00231000BF0C37BD4680BC704767666666F7
:10192C001C0100204401002080B483B000AF78601B
:10193C00094A7B6852F82330012B06D1064A7B6892
:10194C00002142F82310012300E0002318460C3735
:10195C00BD4680BC704700BF4401002080B483B0FA
:10196C0000AF00237B601CE0124A7B6852F82330E6
:10197C00002B13DD0F4A7B6852F823305A1E0D4999
:10198C007B6841F823200B4A7B6852F82330002BEC
:10199C0004DC094A7B68012142F823107B6801337F
:1019AC007B607B68092BDFDD00BF00BF0C37BD46B9
:1019BC0080BC70471C0100204401002080B485B01D
:1019CC0000AF154B9B69144A43F001039361124B12
:1019DC009B6903F00103BB60BB680F4BDB690E4ACC
:1019EC0043F08053D3610C4BDB6903F080537B6075
:1019FC007B680A4B5B68FB60FB6823F0E063FB6071
:101A0C00FB6843F08063FB60044AFB68536000BFD3
:101A1C001437BD4680BC70470010024000000140E6
:101A2C0080B584B000AF78607B681B68B3F1804FE1
:101A3C0013D10C4BDB690B4A43F00103D361094B07
:101A4C00DB6903F00103FB60FB68002200211C2012
:101A5C0000F07FFA1C2000F098FA00BF1037BD464A
:101A6C0080BD00BF0010024080B400AFFEE780B420
:101A7C0000AFFEE780B400AFFEE780B400AFFEE736
:101A8C0080B400AFFEE780B400AF00BFBD4680BCA1
:101A9C00704780B400AF00BFBD4680BC704780B4B7
:101AAC0000AF00BFBD4680BC704780B500AF00F0F2
:101ABC005DF900BF80BD000080B500AF024801F0A9
:101ACC00B9F800BF80BD00BFD400002080B400AFC7
:101ADC0000BFBD4680BC704780B500AF0122FE211F
:101AEC00024800F0FEFB00BF80BD00BF00080140B3
:101AFC0080B500AF00221221074800F0F2FB012252
:101B0C004421054800F0EDFB01228821024800F039
:101B1C00E8FB00BF80BD00BF0008014080B500AFEE
:101B2C0000224421074800F0DCFB01221221054869
:101B3C0000F0D7FB01228821024800F0D2FB00BF45
:101B4C0080BD00BF0008014080B500AF0022882195
:101B5C00074800F0C6FB01224421054800F0C1FBF8
:101B6C0001221221024800F0BCFB00BF80BD00BF67
:101B7C000008014080B500AF012210210E4800F092
:101B8C00B0FB012204210C4800F0ABFB0122082120
:101B9C00094800F0A6FB01228021074800F0A1FBB8
:101BAC0000220221044800F09CFB00224021024844
:101BBC0000F097FB00BF80BD0008014080B500AF6E
:101BCC00012210210E4800F08CFB012204210C484C
:101BDC0000F087FB01220821094800F082FB01225A
:101BEC004021074800F07DFB00220221044800F050
:101BFC0078FB00228021024800F073FB00BF80BDFF
:101C0C000008014080B500AF012202210E4800F00F
:101C1C0068FB012280210C4800F063FB01220821A3
:101C2C00094800F05EFB01224021074800F059FBF7
:101C3C0000220421044800F054FB00221021024829
:101C4C0000F04FFB00BF80BD0008014080B500AF25
:101C5C00012202210E4800F044FB012280210C4895
:101C6C0000F03FFB01220421094800F03AFB01225D
:101C7C004021074800F035FB00220821044800F001
:101C8C0030FB00221021024800F02BFB00BF80BD6E
:101C9C0000080140FFF71AFF0B480C490C4A0023BF
:101CAC0002E0D458C4500433C4188C42F9D3094A06
:101CBC00094C002301E013600432A242FBD301F073
:101CCC00F9FAFFF7E9FC70470000002074000020CF
:101CDC00683300087400002070010020FEE700004B
:101CEC0080B500AF084B1B68074A43F01003136024
:101CFC00032000F023F90F2000F008F8FFF75EFE38
:101D0C000023184680BD00BF0020024080B582B081
:101D1C0000AF7860124B1A68124B1B7819464FF4BF
:101D2C007A73B3FBF1F3B2FBF3F3184600F03BF913
:101D3C000346002B01D001230EE07B680F2B0AD841
:101D4C00002279684FF0FF3000F003F9064A7B68F7
:101D5C001360002300E0012318460837BD4680BD00
:101D6C0068000020700000206C00002080B400AFE0
:101D7C00054B1B781A46054B1B681344034A13602A
:101D8C0000BFBD4680BC7047700000206C01002075
:101D9C0080B400AF024B1B681846BD4680BC704730
:101DAC006C01002080B485B000AF78607B6803F0D4
:101DBC000703FB600C4BDB68BB60BA684FF6FF0394
:101DCC001340BB60FB681A02BB68134343F0BF634C
:101DDC0043F40033BB60044ABB68D36000BF1437C4
:101DEC00BD4680BC704700BF00ED00E080B400AF82
:101DFC00044BDB681B0A03F007031846BD4680BC86
:101E0C00704700BF00ED00E080B483B000AF034624
:101E1C00FB7197F90730002B0BDBFB7903F01F02EA
:101E2C00064997F907305B09012000FA02F241F8E4
:101E3C00232000BF0C37BD4680BC704700E100E09A
:101E4C0080B483B000AF03463960FB7197F907305B
:101E5C00002B0ADB3B68DAB20C4997F90730120108
:101E6C00D2B20B4483F800230AE03B68DAB208498B
:101E7C00FB7903F00F03043B1201D2B20B441A7628
:101E8C0000BF0C37BD4680BC704700BF00E100E0CE
:101E9C0000ED00E080B489B000AFF860B9607A6002
:101EAC00FB6803F00703FB61FB69C3F10703042B19
:101EBC0028BF0423BB61FB690433062B02D9FB69E1
:101ECC00033B00E000237B614FF0FF32BB6902FA59
:101EDC0003F3DA43BB681A407B699A404FF0FF3139
:101EEC007B6901FA03F3D9437B680B401343184613
:101EFC002437BD4680BC704780B582B000AF786097
:101F0C007B68013BB3F1807F01D301230FE00A4AC8
:101F1C007B68013B53600F214FF0FF30FFF790FFC0
:101F2C00054B00229A60044B07221A6000231846C6
:101F3C000837BD4680BD00BF10E000E080B582B020
:101F4C0000AF78607868FFF72DFF00BF0837BD46FB
:101F5C0080BD80B586B000AF0346B9607A60FB7374
:101F6C0000237B61FFF742FF78617A68B968786972
:101F7C00FFF790FF024697F90F3011461846FFF70E
:101F8C005FFF00BF1837BD4680BD80B582B000AF83
:101F9C000346FB7197F907301846FFF735FF00BF72
:101FAC000837BD4680BD80B582B000AF78607868D8
:101FBC00FFF7A2FF034618460837BD4680BD000058
:101FCC0080B48BB000AF7860396000237B62002353
:101FDC003B6248E101227B6A02FA03F3FB613B6836
:101FEC001B68FA691340BB61BA69FB699A4240F0FD
:101FFC0037813B685B68A34A93425ED0A14A934207
:10200C0075D8A14A934258D09F4A93426FD89F4AA1
:10201C00934252D09D4A934269D89D4A93424CD0E8
:10202C009B4A934263D89B4A934246D0994A934227
:10203C005DD8122B2AD8122B59D801A252F823F0B2
:10204C00C7200008A1200008B3200008F5200008D4
:10205C00FB200008FB200008FB200008FB200008E8
:10206C00FB200008FB200008FB200008FB200008D8
:10207C00FB200008FB200008FB200008FB200008C8
:10208C00FB200008A9200008BD200008824A9342CA
:10209C0013D02CE03B68DB683B6229E03B68DB68D3
:1020AC0004333B6224E03B68DB6808333B621FE08F
:1020BC003B68DB680C333B621AE03B689B68002B87
:1020CC0002D104233B6213E03B689B68012B05D1D2
:1020DC0008233B627B68FA691A6109E008233B62BA
:1020EC007B68FA695A6103E000233B6200E000BFA1
:1020FC00BB69FF2B01D87B6801E07B6804337B61F3
:10210C00BB69FF2B02D87B6A9B0002E07B6A083B11
:10211C009B003B617B691A680F213B6901FA03F351
:10212C00DB431A40396A3B6901FA03F31A437B69B2
:10213C001A603B685B6803F08053002B00F09080C2
:10214C00564B9B69554A43F001039361534B9B6972
:10215C0003F00103BB60BB68514A7B6A9B080233E6
:10216C0052F82330FB607B6A03F003039B000F22C1
:10217C0002FA03F3DB43FA681340FB607B68494ABD
:10218C0093420DD07B68484A934207D07B68474AFC
:10219C00934201D1022304E0032302E0012300E077
:1021AC0000237A6A02F0030292009340FA68134308
:1021BC00FB603B497B6A9B080233FA6841F8232099
:1021CC003B685B6803F48013002B06D0384B9A688D
:1021DC003749BB6913438B6006E0354B9A68BB6982
:1021EC00DB43334913408B603B685B6803F400139B
:1021FC00002B06D02E4BDA682D49BB691343CB60FC
:10220C0006E02B4BDA68BB69DB4329491340CB60F2
:10221C003B685B6803F40033002B06D0244B5A68F0
:10222C002349BB6913434B6006E0214B5A68BB69D9
:10223C00DB431F4913404B603B685B6803F48033FE
:10224C00002B06D01A4B1A681949BB6913430B6053
:10225C0006E0174B1A68BB69DB43154913400B604A
:10226C007B6A01337B623B681A687B6A22FA03F350
:10227C00002B7FF4AFAE00BF00BF2C37BD4680BC37
:10228C00704700BF00003210000031100000221017
:10229C00000021100000121000001110001002406C
:1022AC000000014000080140000C014000100140FA
:1022BC000004014080B485B000AF78600B467B8091
:1022CC007B689A687B881340002B02D00123FB7338
:1022DC0001E00023FB73FB7B18461437BD4680BC22
:1022EC00704780B483B000AF78600B467B80134698
:1022FC007B707B78002B03D07A887B681A6103E0B3
:10230C007B881A047B681A6100BF0C37BD4680BC01
:10231C00704780B485B000AF78600B467B807B68DB
:10232C00DB68FB607A88FB6813401A04FB68D943AE
:10233C007B880B401A437B681A6100BF1437BD467B
:10234C0080BC704780B586B000AF78607B68002B8E
:10235C0001D101236CE27B681B6803F00103002BA5
:10236C0000F08780924B5B6803F00C03042B0CD0BD
:10237C008F4B5B6803F00C03082B12D18C4B5B6802
:10238C0003F48033B3F5803F0BD1894B1B6803F406
:10239C000033002B6CD07B685B68002B68D1012369
:1023AC0046E27B685B68B3F5803F06D1804B1B68C7
:1023BC007F4A43F4803313602EE07B685B68002B0C
:1023CC000CD17B4B1B687A4A23F480331360784B17
:1023DC001B68774A23F4802313601DE07B685B68DD
:1023EC00B3F5A02F0CD1724B1B68714A43F48023B8
:1023FC0013606F4B1B686E4A43F4803313600BE021
:10240C006B4B1B686A4A23F480331360684B1B6860
:10241C00674A23F4802313607B685B68002B13D01E
:10242C00FFF7B6FC386108E0FFF7B2FC02463B69E7
:10243C00D31A642B01D90323FAE15D4B1B6803F417
:10244C000033002BF0D014E0FFF7A2FC386108E059
:10245C00FFF79EFC02463B69D31A642B01D9032378
:10246C00E6E1534B1B6803F40033002BF0D100E082
:10247C0000BF7B681B6803F00203002B63D04C4B3E
:10248C005B6803F00C03002B0BD0494B5B6803F02B
:10249C000C03082B1CD1464B5B6803F48033002BD8
:1024AC0016D1434B1B6803F00203002B05D07B684D
:1024BC001B69012B01D00123BAE13D4B1B6823F0B2
:1024CC00F8027B685B69DB00394913430B603AE027
:1024DC007B681B69002B20D0364B01221A60FFF75A
:1024EC0057FC386108E0FFF753FC02463B69D31AEE
:1024FC00022B01D903239BE12D4B1B6803F0020334
:10250C00002BF0D02A4B1B6823F0F8027B685B6928
:10251C00DB00274913430B6015E0264B00221A60A1
:10252C00FFF736FC386108E0FFF732FC02463B69E6
:10253C00D31A022B01D903237AE11D4B1B6803F03C
:10254C000203002BF0D17B681B6803F00803002BFF
:10255C003AD07B689B69002B19D0174B01221A606B
:10256C00FFF716FC386108E0FFF712FC02463B69E6
:10257C00D31A022B01D903235AE10D4B5B6A03F0EA
:10258C000203002BF0D0012000F09AFA1CE00A4B59
:10259C0000221A60FFF7FCFB38610FE0FFF7F8FB35
:1025AC0002463B69D31A022B08D9032340E100BF32
:1025BC000010024000004242800442429E4B5B6A83
:1025CC0003F00203002BE9D17B681B6803F00403C2
:1025DC00002B00F0A6800023FB75974BDB6903F002
:1025EC008053002B0DD1944BDB69934A43F08053FD
:1025FC00D361914BDB6903F08053BB60BB68012353
:10260C00FB758E4B1B6803F48073002B18D18B4B1E
:10261C001B688A4A43F480731360FFF7B9FB386177
:10262C0008E0FFF7B5FB02463B69D31A642B01D9CE
:10263C000323FDE0814B1B6803F48073002BF0D067
:10264C007B68DB68012B06D17B4B1B6A7A4A43F013
:10265C00010313622DE07B68DB68002B0CD1764BF9
:10266C001B6A754A23F001031362734B1B6A724A8F
:10267C0023F0040313621CE07B68DB68052B0CD190
:10268C006D4B1B6A6C4A43F0040313626A4B1B6A62
:10269C00694A43F0010313620BE0674B1B6A664AFD
:1026AC0023F001031362644B1B6A634A23F0040397
:1026BC0013627B68DB68002B15D0FFF769FB386170
:1026CC000AE0FFF765FB02463B69D31A41F28832F8
:1026DC00934201D90323ABE0574B1B6A03F002036F
:1026EC00002BEED014E0FFF753FB38610AE0FFF744
:1026FC004FFB02463B69D31A41F28832934201D90F
:10270C00032395E04C4B1B6A03F00203002BEED124
:10271C00FB7D012B05D1484BDB69474A23F08053E5
:10272C00D3617B68DB69002B00F08180424B5B68D6
:10273C0003F00C03082B61D07B68DB69022B46D1BC
:10274C003F4B00221A60FFF723FB386108E0FFF7CC
:10275C001FFB02463B69D31A022B01D9032367E006
:10276C00354B1B6803F00073002BF0D17B681B6AA0
:10277C00B3F5803F08D1304B5B6823F400327B68A3
:10278C009B682D4913434B602B4B5B6823F47412ED
:10279C007B68196A7B685B6A0B43274913434B6060
:1027AC00274B01221A60FFF7F3FA386108E0FFF7B4
:1027BC00EFFA02463B69D31A022B01D9032337E007
:1027CC001D4B1B6803F00073002BF0D02FE01C4B4B
:1027DC0000221A60FFF7DCFA386108E0FFF7D8FA3C
:1027EC0002463B69D31A022B01D9032320E0124B7A
:1027FC001B6803F00073002BF0D118E07B68DB69D9
:10280C00012B01D1012313E00B4B5B68FB60FB68D0
:10281C0003F480327B681B6A9A4206D1FB6803F48E
:10282C0070127B685B6A9A4201D0012300E000239E
:10283C0018461837BD4680BD00100240007000409D
:10284C006000424280B584B000AF786039607B682C
:10285C00002B01D10123D0E06A4B1B6803F0070366
:10286C003A689A4210D9674B1B6823F007026549F6
:10287C003B6813430B60634B1B6803F007033A6818
:10288C009A4201D00123B8E07B681B6803F0020375
:10289C00002B20D07B681B6803F00403002B05D0B1
:1028AC00594B5B68584A43F4E06353607B681B6880
:1028BC0003F00803002B05D0534B5B68524A43F4DA
:1028CC0060535360504B5B6823F0F0027B689B684D
:1028DC004D4913434B607B681B6803F00103002BCD
:1028EC0040D07B685B68012B07D1474B1B6803F416
:1028FC000033002B15D101237FE07B685B68022B32
:10290C0007D1414B1B6803F00073002B09D1012345
:10291C0073E03D4B1B6803F00203002B01D1012334
:10292C006BE0394B5B6823F003027B685B683649CC
:10293C0013434B60FFF72CFAF8600AE0FFF728FA14
:10294C000246FB68D31A41F28832934201D9032321
:10295C0053E02D4B5B6803F00C027B685B689B00BB
:10296C009A42EBD1274B1B6803F007033A689A4253
:10297C0010D2244B1B6823F0070222493B681343F7
:10298C000B60204B1B6803F007033A689A4201D096
:10299C00012332E07B681B6803F00403002B08D092
:1029AC00194B5B6823F4E0627B68DB6816491343C0
:1029BC004B607B681B6803F00803002B09D0124B9B
:1029CC005B6823F460527B681B69DB000E49134380
:1029DC004B6000F021F802460B4B5B681B0903F0BF
:1029EC000F030A49CB5C22FA03F3094A1360094B23
:1029FC001B681846FFF78AF9002318461037BD46A6
:102A0C0080BD00BF00200240001002403C33000893
:102A1C00680000206C00002080B487B000AF002359
:102A2C00FB600023BB6000237B6100237B600023E1
:102A3C003B611E4B5B68FB60FB6803F00C03042BD3
:102A4C0002D0082B03D027E0194B3B6127E0FB6831
:102A5C009B0C03F00F03174AD35C7B60FB6803F4F9
:102A6C008033002B10D0114B5B685B0C03F001031F
:102A7C00114AD35CBB607B680D4A02FB03F2BB6856
:102A8C00B2FBF3F37B6104E07B680C4A02FB03F3BB
:102A9C007B617B693B6102E0054B3B6100BF3B699D
:102AAC0018461C37BD4680BC704700BF0010024062
:102ABC0000127A004C3300085C33000800093D001A
:102ACC0080B485B000AF78600A4B1B680A4AA2FB41
:102ADC0003235B0A7A6802FB03F3FB6000BFFB680D
:102AEC005A1EFA60002BF9D100BF00BF1437BD4647
:102AFC0080BC704768000020D34D621080B582B056
:102B0C0000AF78607B68002B01D1012341E07B682A
:102B1C0093F83D30DBB2002B06D17B68002283F8A2
:102B2C003C207868FEF77CFF7B68022283F83D200E
:102B3C007B681A687B6804331946104600F056FA15
:102B4C007B68012283F846207B68012283F83E20B3
:102B5C007B68012283F83F207B68012283F84020A8
:102B6C007B68012283F841207B68012283F8422094
:102B7C007B68012283F843207B68012283F8442080
:102B8C007B68012283F845207B68012283F83D2075
:102B9C00002318460837BD4680BD000080B485B0C0
:102BAC0000AF78607B6893F83D30DBB2012B01D02D
:102BBC00012335E07B68022283F83D207B681B688B
:102BCC00DA687B681B6842F00102DA607B681B687C
:102BDC00164A934209D07B681B68B3F1804F04D02E
:102BEC007B681B68124A934211D17B681B689B68F7
:102BFC0003F00703FB60FB68062B10D07B681B6897
:102C0C001A687B681B6842F001021A6007E07B6857
:102C1C001B681A687B681B6842F001021A6000236B
:102C2C0018461437BD4680BC704700BF002C0140CD
:102C3C000004004080B584B000AF78607B681B68EE
:102C4C00DB68FB607B681B681B69BB60BB6803F0BF
:102C5C000203002B20D0FB6803F00203002B1BD0D7
:102C6C007B681B686FF002021A617B6801221A777D
:102C7C007B681B689B6903F00303002B03D0786807
:102C8C0000F098F905E0786800F08BF9786800F0AE
:102C9C009AF97B6800221A77BB6803F00403002BB7
:102CAC0020D0FB6803F00403002B1BD07B681B684F
:102CBC006FF004021A617B6802221A777B681B682A
:102CCC009B6903F44073002B03D0786800F072F911
:102CDC0005E0786800F065F9786800F074F97B68B5
:102CEC0000221A77BB6803F00803002B20D0FB6886
:102CFC0003F00803002B1BD07B681B686FF00802E5
:102D0C001A617B6804221A777B681B68DB6903F005
:102D1C000303002B03D0786800F04CF905E07868C9
:102D2C0000F03FF9786800F04EF97B6800221A77C2
:102D3C00BB6803F01003002B20D0FB6803F01003DA
:102D4C00002B1BD07B681B686FF010021A617B682C
:102D5C0008221A777B681B68DB6903F44073002B2D
:102D6C0003D0786800F026F905E0786800F019F9CE
:102D7C00786800F028F97B6800221A77BB6803F0AA
:102D8C000103002B0CD0FB6803F00103002B07D0D0
:102D9C007B681B686FF001021A617868FEF792FD80
:102DAC00BB6803F08003002B0CD0FB6803F080039E
:102DBC00002B07D07B681B686FF080021A61786863
:102DCC0000F06FFABB6803F04003002B0CD0FB68DB
:102DDC0003F04003002B07D07B681B686FF04002A8
:102DEC001A61786800F0F8F8BB6803F02003002B38
:102DFC000CD0FB6803F02003002B07D07B681B680A
:102E0C006FF020021A61786800F042FA00BF1037A8
:102E1C00BD4680BD80B584B000AF786039600023BA
:102E2C00FB737B6893F83C30012B01D10223B4E097
:102E3C007B68012283F83C207B68022283F83D20CA
:102E4C007B681B689B68BB60BB6823F07703BB6027
:102E5C00BB6823F47F43BB607B681B68BA689A60CD
:102E6C003B681B68B3F5005F3ED0B3F5005F00F222
:102E7C008780B3F5805F00F08680B3F5805F7FD8E4
:102E8C00702B1AD0702B7BD8602B50D0602B77D83E
:102E9C00502B3CD0502B73D8402B58D0402B6FD894
:102EAC00302B64D0302B6BD8202B60D0202B67D8E4
:102EBC00002B5CD0102B5AD062E07B6818683B6802
:102ECC0099683B685A683B68DB6800F06AF97B6874
:102EDC001B689B68BB60BB6843F07703BB607B6877
:102EEC001B68BA689A604FE07B6818683B68996801
:102EFC003B685A683B68DB6800F053F97B681B68D9
:102F0C009A687B681B6842F480429A603CE07B685C
:102F1C0018683B6859683B68DB681A4600F0CAF8C9
:102F2C007B681B685021184600F021F92CE07B6867
:102F3C0018683B6859683B68DB681A4600F0E8F88B
:102F4C007B681B686021184600F011F91CE07B6857
:102F5C0018683B6859683B68DB681A4600F0AAF8A9
:102F6C007B681B684021184600F001F90CE07B6877
:102F7C001A683B681B681946104600F0F8F803E025
:102F8C000123FB7300E000BF7B68012283F83D2026
:102F9C007B68002283F83C20FB7B18461037BD462B
:102FAC0080BD80B483B000AF786000BF0C37BD46E5
:102FBC0080BC704780B483B000AF786000BF0C3722
:102FCC00BD4680BC704780B483B000AF786000BF52
:102FDC000C37BD4680BC704780B483B000AF7860BE
:102FEC0000BF0C37BD4680BC7047000080B485B074
:102FFC0000AF786039607B681B68FB607B682B4A8C
:10300C00934207D07B68B3F1804F03D07B68284A8A
:10301C00934208D1FB6823F07003FB603B685B684C
:10302C00FA681343FB607B68204A934207D07B68A5
:10303C00B3F1804F03D07B681D4A934208D1FB68E3
:10304C0023F44073FB603B68DB68FA681343FB6056
:10305C00FB6823F080023B685B691343FB607B6871
:10306C00FA681A603B689A687B68DA623B681A688F
:10307C007B689A627B680D4A934203D13B681A695C
:10308C007B681A637B6801225A617B681B6903F0B9
:10309C000103002B05D07B681B6923F001027B68C0
:1030AC001A6100BF1437BD4680BC7047002C01402C
:1030BC000004004080B487B000AFF860B9607A605B
:1030CC00FB681B6A7B61FB681B6A23F00102FB68CF
:1030DC001A62FB689B693B613B6923F0F0033B611F
:1030EC007B681B013A6913433B617B6923F00A033C
:1030FC007B617A69BB6813437B61FB683A699A61AF
:10310C00FB687A691A6200BF1C37BD4680BC7047E9
:10311C0080B487B000AFF860B9607A60FB681B6A56
:10312C007B61FB681B6A23F01002FB681A62FB6868
:10313C009B693B613B6923F470433B617B681B03D8
:10314C003A6913433B617B6923F0A0037B61BB6845
:10315C001B017A6913437B61FB683A699A61FB68CE
:10316C007A691A6200BF1C37BD4680BC704780B4B8
:10317C0085B000AF786039607B689B68FB60FB684A
:10318C0023F07003FB603A68FB68134343F00703BA
:10319C00FB607B68FA689A6000BF1437BD4680BC40
:1031AC00704780B487B000AFF860B9607A603B605C
:1031BC00FB689B687B617B6923F47F437B613B6885
:1031CC001A027B681A43BB6813437A6913437B6109
:1031DC00FB687A699A6000BF1C37BD4680BC70479B
:1031EC0080B485B000AF786039607B6893F83C3070
:1031FC00012B01D1022341E07B68012283F83C20A2
:10320C007B68022283F83D207B681B685B68FB604F
:10321C007B681B689B68BB60FB6823F07003FB60DA
:10322C003B681B68FA681343FB607B681B68FA6891
:10323C005A607B681B68144A934209D07B681B68F0
:10324C00B3F1804F04D07B681B68104A93420CD1B9
:10325C00BB6823F08003BB603B685B68BA681343B0
:10326C00BB607B681B68BA689A607B68012283F834
:10327C003D207B68002283F83C200023184614373D
:10328C00BD4680BC704700BF002C014000040040CC
:10329C0080B483B000AF786000BF0C37BD4680BCF3
:1032AC00704780B483B000AF786000BF0C37BD4668
:1032BC0080BC704770B500260C4D0D4C641BA410DF
:1032CC00A64209D100F022F800260A4D0A4C641BD4
:1032DC00A410A64205D170BD55F8043B98470136A1
:1032EC00EEE755F8043B98470136F2E760330008E7
:1032FC00603300086033000864330008034602445E
:10330C00934200D1704703F8011BF9E7F8B500BFF1
:10331C00F8BC08BC9E467047F8B500BFF8BC08BCAA
:04332C009E46704702
:10333000FC60DAF266B6BEE0FEF6000000000000B7
:103340000000000001020304060708090203040547
:10335000060708090A0B0C0D0E0F101001020000E1
:04336000310100082F
:043364000D0100084F
:103368000100000001000000010000000100000051
:103378000100000001000000010000000100000041
:103388000100000001000000010000000100000031
:10339800C8000000C8000000C8000000001001407C
:1033A8000010014000100140002000400080000093
:1033B80005000000020000000300000005000000F6
:1033C800030000000200000000127A001000000054
:0433D80001000000F0
:0400000508001CA132
:00000001FF
