:020000040800F2
:10000000002800201D250008F1220008F722000822
:10001000FD22000803230008092300080000000057
:100020000000000000000000000000000F23000896
:100030001B230008000000002723000833230008CA
:100040006525000865250008652500086525000868
:100050006525000865250008652500086525000858
:100060006525000865250008652500086525000848
:100070006525000865250008652500086525000838
:100080006525000865250008652500086525000828
:100090006525000865250008652500086525000818
:1000A0006525000865250008652500086525000808
:1000B00041230008652500080000000065250008B0
:1000C000652500080000000000000000652500080C
:1000D00000000000652500086525000800000000FC
:1000E000652500086525000865250008000000005A
:1000F0000000000000000000000000000000000000
:0C01000000000000000000005FF808F1A3
:10010C0010B5054C237833B9044B13B10448AFF345
:10011C0000800123237010BD74000020000000003B
:10012C00943B000808B5034B1BB103490348AFF3DC
:10013C00008008BD0000000078000020943B0008FF
:10014C0080B483B000AF7860094A7B6852F82330E2
:10015C00012B06D1064A7B68002142F823100123AB
:10016C0000E0002318460C37BD4680BC704700BF2A
:10017C009000002080B483B000AF7860044A7B68A4
:10018C00012142F8231000BF0C37BD4680BC7047DC
:10019C009000002080B582B000AF00237B606DE042
:1001AC003A4A7B6852F8232039497B6841F823206E
:1001BC00384A7B6852F8232034497B6841F8232065
:1001CC00354A7B6852F8232034497B6831F8133068
:1001DC001946104602F0ACFC034619462D4A7B68C2
:1001EC0042F823102A4A7B6852F8232027497B685F
:1001FC0051F823309A423ED1244A7B6852F823208E
:10020C0024497B6851F823309A4234D1244A7B68C4
:10021C0052F823201F497B6851F823309A4216D09C
:10022C001C4A7B6852F823201D497B6841F8232027
:10023C00184A7B6852F82330002B1CD17868FFF7E2
:10024C0099FF184A7B68C82142F8231013E0154A1D
:10025C007B6852F823305A1E12497B6841F82320E0
:10026C00104A7B6852F82330002B04D10C4A7B686F
:10027C00012142F823107B6801337B607B68022BE1
:10028C008EDD00BF00BF0837BD4680BD0C000020CE
:10029C0000000020180000203C0000204800002036
:1002AC00240000203000002080B500AFAC4B1B6850
:1002BC00013B042B00F2538201A252F823F000BF41
:1002CC00E1020008B1030008830400089D05000842
:1002DC008506000802F03EF800F088FFA14B1A6872
:1002EC00A14B1B6813445A1CA04B1B689A422CD17F
:1002FC009E4B1B689E4A13609A4B1B689D4A136069
:10030C00994B1B689C4A13609C4B00221A609C4BB7
:10031C0000221A60924B02221A609A4B00221A6039
:10032C00944B1B684FF47A7202FB03F319460020BE
:10033C0001F008FF4FF4FA71012001F003FF4FF4B4
:10034C007A71022001F0FEFE12E2894B1B68874A8B
:10035C001360884B1B68834A1360874B1B68824A67
:10036C001360864B00221A60854B00221A607C4B6E
:10037C0002221A60834B00221A607E4B1B684FF4DA
:10038C007A7202FB03F31946002001F0DBFE4FF4F6
:10039C00FA71012001F0D6FE4FF47A71022001F0BF
:1003AC00D1FEE5E102F024F8764B1B68002B04D15A
:1003BC0001F0ACF9734B01221A60012001F0E2FE4E
:1003CC000346012B06D101F03BF84FF47A71012062
:1003DC0001F0B8FE022001F0D5FE0346012B06D138
:1003EC0001F094F94FF47A71022001F0ABFE002079
:1003FC0001F0C8FE0346012B17D1594B03221A609A
:10040C004FF4FA71012001F09DFE4FF47A71022035
:10041C0001F098FE584B1B6801334FF47A7202FBC3
:10042C0003F31946002001F08DFE0020FFF788FE33
:10043C000346012B40F09581494B0C221A60012098
:10044C0001F0BAFE022001F0B7FE4FF4FA71012060
:10045C0001F078FE4FF47A71022001F073FE4FF434
:10046C00FA71032001F06EFE474B00221A60474BD5
:10047C0000221A6075E101F0DFFF424B1B68002B74
:10048C0004D101F043F93F4B01221A60012001F025
:10049C0079FE0346012B06D100F0D2FF4FF47A719E
:1004AC00012001F04FFE022001F06CFE0346012BEF
:1004BC0006D101F02BF94FF47A71022001F042FEC3
:1004CC00002001F05FFE0346012B1DD1244B0422BA
:1004DC001A60012001F070FE022001F06DFE4FF455
:1004EC00FA71012001F02EFE4FF47A71022001F016
:1004FC0029FE204B1B6801334FF47A7202FB03F385
:10050C001946002001F01EFE0020FFF719FE0346DD
:10051C00012B40F02881124B0C221A60012001F0B3
:10052C004BFE022001F048FE4FF4FA71012001F05D
:10053C0009FE4FF47A71022001F004FE4FF4FA71B7
:10054C00032001F0FFFD42F21071052001F0FAFDCD
:10055C000D4B00221A600D4B00221A6003E100BF04
:10056C00B000002060000020640000205C0000202F
:10057C00500000205400002058000020B80000203B
:10058C00B40000209C000020A0000020D40000201B
:10059C0001F076FF774B1B68002B04D101F0B6F805
:1005AC00744B01221A60012001F0ECFD0346012B73
:1005BC0006D100F045FF4FF47A71012001F0C2FD25
:1005CC00022001F0DFFD0346012B06D101F09EF85D
:1005DC004FF47A71022001F0B5FD002001F0D2FD3C
:1005EC000346012B1DD1644B05221A60012001F03A
:1005FC00E3FD022001F0E0FD4FF4FA71012001F05F
:10060C00A1FD4FF47A71022001F09CFD5B4B1B683D
:10061C0001334FF47A7202FB03F31946002001F008
:10062C0091FD0020FFF78CFD0346012B40F09D80CF
:10063C00514B0C221A60012001F0BEFD022001F08A
:10064C00BBFD4FF4FA71012001F07CFD4FF47A717F
:10065C00022001F077FD4FF4FA71032001F072FDD6
:10066C0042F21071062001F06DFD454B00221A601C
:10067C00444B00221A6078E001F026FF3D4B1B68CA
:10068C00002B04D101F042F83A4B01221A600120F0
:10069C0001F078FD0346012B06D100F0D1FE4FF49A
:1006AC007A71012001F04EFD022001F06BFD034632
:1006BC00012B06D101F02AF84FF47A71022001F0D7
:1006CC0041FD002001F05EFD0346012B1DD12A4B9C
:1006DC0002221A60012001F06FFD022001F06CFD76
:1006EC004FF4FA71012001F02DFD4FF47A710220C4
:1006FC0001F028FD244B1B6801334FF47A7202FB86
:10070C0003F31946002001F01DFD0020FFF718FD32
:10071C000346012B2BD1184B0C221A60012001F03F
:10072C004BFD022001F048FD4FF4FA71012001F05D
:10073C0009FD4FF47A71022001F004FD4FF4FA71B7
:10074C00032001F0FFFC42F21071072001F0FAFCCB
:10075C000B4B00221A600B4B00221A6007E000BF03
:10076C0006E000BF04E000BF02E000BF00E000BFF5
:10077C0000BF80BD9C000020B0000020580000206D
:10078C00A0000020D40000205400002080B500AF51
:10079C00CB4B1B680E2B00F01A810E2B00F38881BB
:1007AC000C2B03D00D2B00F0888081E1C54B1B680E
:1007BC00002B06D101F0DAFD01F00AFAC14B01223F
:1007CC001A60012001F0DEFC0346012B06D101F07A
:1007DC006FF94FF47A71012001F0B4FC022001F0A2
:1007EC00D1FC0346012B06D101F0F2F94FF47A71DA
:1007FC00022001F0A7FC032001F0C4FC0346012BEE
:10080C0008D11221B04802F0C2F94FF4FA7103205A
:10081C0001F098FC0020FFF793FC0346012B24D138
:10082C00A74B0D221A60A74B00221A60A74B1B681E
:10083C00A74A1360012001F0BFFC022001F0BCFCB0
:10084C00032001F0B9FC4FF4FA71012001F07AFC9D
:10085C004FF47A71022001F075FC4FF4FA71032009
:10086C0001F070FC9B4B00221A600120FFF768FC22
:10087C000346012B1DD1924B0F221A60012001F06F
:10088C009BFC022001F098FC032001F095FC4FF436
:10089C00FA71012001F056FC4FF47A71022001F03C
:1008AC0051FC4FF4FA71032001F04CFC8A4B0022EE
:1008BC001A600220FFF744FCFFE0824B1B68002B00
:1008CC000BD101221221804802F049F901F064FD9C
:1008DC0001F004FA7B4B01221A60012001F052FC5A
:1008EC000346012B06D101F013F94FF47A71012064
:1008FC0001F028FC022001F045FC0346012B06D137
:10090C0001F0ECF94FF47A71022001F01BFC03208A
:10091C0001F038FC0346012B08D144216A4802F04F
:10092C0036F94FF4FA71032001F00CFC0020FFF7AC
:10093C0007FC0346012B24D1614B0E221A60614B3C
:10094C0000221A60654B00221A60654B1B68654AD1
:10095C001360012001F030FC022001F02DFC03207B
:10096C0001F02AFC4FF4FA71012001F0EBFB4FF47B
:10097C007A71022001F0E6FB4FF4FA71032001F0CA
:10098C00E1FB0120FFF7DCFB0346012B40F09280DA
:10099C004B4B12221A60012001F00EFC022001F0D8
:1009AC000BFC032001F008FC4FF4FA71012001F05C
:1009BC00C9FB4FF47A71022001F0C4FB4FF4FA71B9
:1009CC00032001F0BFFB484B00221A6072E03D4B44
:1009DC001B68002B0BD1012244213B4802F0BFF8CD
:1009EC0001F0F0FC01F000FA364B01221A600120F4
:1009FC0001F0C8FB0346012B06D101F0B9F84FF406
:100A0C007A71012001F09EFB022001F0BBFB034632
:100A1C00012B06D101F0E8F94FF47A71022001F0B4
:100A2C0091FB032001F0AEFB0346012B08D188217A
:100A3C00254802F0ACF84FF4FA71032001F082FB68
:100A4C000020FFF77DFB0346012B0CD1274B1B68C5
:100A5C00274A13601A4B01221A60012001F0ACFBEB
:100A6C00022001F0A9FB0120FFF76AFB0346012BD2
:100A7C0022D1134B14221A60012001F09DFB02209D
:100A8C0001F09AFB032001F097FB4FF4FA7101205F
:100A9C0001F058FB4FF47A71022001F053FB4FF434
:100AAC00FA71032001F04EFB124B00221A6003E096
:100ABC0000BF02E000BF00E000BF00BF80BD00BF70
:100ACC00B0000020A00000200008014050000020D1
:100ADC005C000020CC000020A4000020C0000020FE
:100AEC005400002060000020A800002058000020C6
:100AFC0064000020AC00002080B500AF9A4B1B684E
:100B0C000F3B062B00F25B8301A252F823F000BFCF
:100B1C00390B0008870C0008CB110008950D000854
:100B2C00E30E0008CF0F0008111100088F4B1B6853
:100B3C00002B06D101F090F88C4B1B6801338B4ACB
:100B4C001360012001F01EFB0346012B06D100F0BF
:100B5C00AFFF4FF47A71012001F0F4FA022001F09A
:100B6C0011FB0346012B06D101F032F84FF47A71D8
:100B7C00022001F0E7FA032001F004FB0346012BED
:100B8C0008D112217A4802F002F84FF4FA710320CE
:100B9C0001F0D8FA0020FFF7D3FA0346012B29D134
:100BAC00714B0D221A60734B00221A60724B00229B
:100BBC001A60724B1B68724A1360012001F0FCFA38
:100BCC00022001F0F9FA032001F0F6FA4FF4FA7161
:100BDC00012001F0B7FA4FF47A71022001F0B2FA59
:100BEC004FF4FA71032001F0ADFA42F210710420B7
:100BFC0001F0A8FA0120FFF7A3FA0346012B1ED13E
:100C0C005A4B1B680133594A136001F025F8012037
:100C1C0001F0D2FA022001F0CFFA032001F0CCFA55
:100C2C004FF4FA71012001F08DFA4FF47A71022021
:100C3C0001F088FA4FF4FA71032001F083FA0220D4
:100C4C00FFF77EFA0346012B40F0BB82464B102285
:100C5C001A60464B00221A60012001F0ADFA022006
:100C6C0001F0AAFA4FF4FA71012001F06BFA4FF47B
:100C7C007A71022001F066FAA3E201F077FB414B96
:100C8C001B683F4A1360394B1B68002B04D100F0E2
:100C9C009FFF364B01221A60012001F073FA0346C4
:100CAC00012B06D100F004FF4FF47A71012001F002
:100CBC0049FA022001F066FA0346012B06D100F036
:100CCC0087FF4FF47A71022001F03CFA0020FFF705
:100CDC0037FA0346012B20D1234B0D221A60254BEA
:100CEC0000221A60244B00221A60012001F064FAE1
:100CFC00022001F061FA032001F05EFA4FF4FA7160
:100D0C00012001F01FFA4FF47A71022001F01AFA57
:100D1C004FF4FA71032001F015FA0120FFF710FAD5
:100D2C000346012B40F04F820F4B0F221A600F4BE2
:100D3C0000221A60012001F03FFA022001F03CFA77
:100D4C00032001F039FA4FF4FA71012001F0FAF99D
:100D5C004FF47A71022001F0F5F94FF4FA71032087
:100D6C0001F0F0F92FE200BFB0000020A400002039
:100D7C0000080140A0000020CC0000205000002002
:100D8C005C000020D8000020D34B1B68002B06D140
:100D9C0000F0E8FFD04B1B680133CF4A13600120F1
:100DAC0001F0F0F90346012B06D100F0B1FE4FF42F
:100DBC007A71012001F0C6F9022001F0E3F9034633
:100DCC00012B06D100F08AFF4FF47A71022001F05A
:100DDC00B9F9032001F0D6F90346012B08D14421BF
:100DEC00BE4801F0D4FE4FF4FA71032001F0AAF9C9
:100DFC000020FFF7A5F90346012B29D1B84B0E2291
:100E0C001A60B84B00221A60B74B00221A60B74B1D
:100E1C001B68B74A1360012001F0CEF9022001F0E3
:100E2C00CBF9032001F0C8F94FF4FA71012001F05D
:100E3C0089F94FF47A71022001F084F94FF4FA71B8
:100E4C00032001F07FF942F21071042001F07AF9CD
:100E5C000120FFF775F90346012B1ED19E4B1B6831
:100E6C0001339D4A136000F07DFF012001F0A4F9CD
:100E7C00022001F0A1F9032001F09EF94FF4FA7160
:100E8C00012001F05FF94FF47A71022001F05AF958
:100E9C004FF4FA71032001F055F90220FFF750F9D5
:100EAC000346012B40F091818D4B13221A608A4B23
:100EBC0000221A60012001F07FF9022001F07CF978
:100ECC004FF4FA71012001F03DF94FF47A710220D0
:100EDC0001F038F979E101F05FFA864B1B68844A1E
:100EEC0013607D4B1B68002B04D100F0F7FE7A4B8E
:100EFC0001221A60012001F045F90346012B06D1AD
:100F0C0000F006FE4FF47A71012001F01BF902206B
:100F1C0001F038F90346012B06D100F0DFFE4FF447
:100F2C007A71022001F00EF90020FFF709F903464F
:100F3C00012B20D16A4B0E221A606A4B00221A60D8
:100F4C00694B00221A60012001F036F9022001F0F1
:100F5C0033F9032001F030F94FF4FA71012001F05C
:100F6C00F1F84FF47A71022001F0ECF84FF4FA71B9
:100F7C00032001F0E7F80120FFF7E2F80346012B0C
:100F8C0040F02581564B12221A60534B00221A60F6
:100F9C00012001F011F9022001F00EF9032001F0FB
:100FAC000BF94FF4FA71012001F0CCF84FF47A717F
:100FBC00022001F0C7F84FF4FA71032001F0C2F8D7
:100FCC0005E14D4B1B68002B06D100F051FF4A4B3D
:100FDC001B680133484A1360012001F0D3F8034623
:100FEC00012B06D100F0C4FD4FF47A71012001F001
:100FFC00A9F8022001F0C6F80346012B06D100F037
:10100C00F3FE4FF47A71022001F09CF8032001F0FA
:10101C00B9F80346012B08D18821304801F0B7FDFF
:10102C004FF4FA71032001F08DF80020FFF788F8D7
:10103C000346012B0CD12A4B01221A602F4B1B6843
:10104C002F4A1360012001F0B7F8022001F0B4F828
:10105C000120FFF775F80346012B1ED1264B1B68A8
:10106C000133254A136000F003FF012001F0A4F8BE
:10107C00022001F0A1F8032001F09EF84FF4FA7160
:10108C00012001F05FF84FF47A71022001F05AF858
:10109C004FF4FA71032001F055F80220FFF750F8D5
:1010AC000346012B40F095800D4B15221A60124B14
:1010BC0000221A60012001F07FF8022001F07CF878
:1010CC004FF4FA71012001F03DF84FF47A710220CF
:1010DC0001F038F87DE000BFA800002000080140B6
:1010EC00B0000020A0000020C00000205400002010
:1010FC0060000020C8000020AC0000205800002038
:10110C006400002001F05EF9344B1B68344A136014
:10111C00344B1B68002B04D100F066FE314B0122CE
:10112C001A60012001F02EF80346012B06D100F0C5
:10113C001FFD4FF47A71012001F004F8022001F038
:10114C0021F80346012B06D100F04EFE4FF47A71C4
:10115C00022000F0F7FF0020FEF7F2FF0346012B00
:10116C0008D1214B01221A60012001F025F8022040
:10117C0001F022F80120FEF7E3FF0346012B2AD1F0
:10118C00194B14221A60174B00221A60012001F02F
:10119C0013F8022001F010F8032001F00DF84FF4C1
:1011AC00FA71012000F0CEFF4FF47A71022000F0AA
:1011BC00C9FF4FF4FA71032000F0C4FF0BE000BF2D
:1011CC000AE000BF08E000BF06E000BF04E000BF7B
:1011DC0002E000BF00E000BF00BF80BDBC000020EB
:1011EC0064000020AC000020B000002080B500AFEF
:1011FC00012240F2FF71054801F0B1FC01224FF4CD
:10120C00FE41034801F0ABFC00BF80BD000C014067
:10121C000008014080B586B000AF78603F4A07F106
:10122C000C0307CA03C31A8007F10C027B68134432
:10123C001B785BB2DB43DBB2DB09DBB21A46012164
:10124C00374801F08CFC07F10C027B6813441B78C7
:10125C0003F04003002B0CBF01230023DBB21A4622
:10126C0002212F4801F07BFC07F10C027B68134430
:10127C001B7803F02003002B0CBF01230023DBB2EF
:10128C001A460421264801F06AFC07F10C027B681F
:10129C0013441B7803F01003002B0CBF0123002315
:1012AC00DBB21A4608211E4801F059FC07F10C026A
:1012BC007B6813441B7803F00803002B0CBF01233D
:1012CC000023DBB21A461021154801F048FC07F147
:1012DC000C027B6813441B7803F00403002B0CBF37
:1012EC0001230023DBB21A4620210D4801F037FC04
:1012FC0007F10C027B6813441B7803F00203002BEC
:10130C000CBF01230023DBB21A464021044801F034
:10131C0026FC00BF1837BD4680BD00BFAC3B0008A3
:10132C00000C014080B586B000AF7860424A07F1EE
:10133C000C0307CA03C31A8007F10C027B68134421
:10134C001B785BB2DB43DBB2DB09DBB21A464FF432
:10135C0080713A4801F003FC07F10C027B681344DE
:10136C001B7803F04003002B0CBF01230023DBB2DE
:10137C001A464FF40071314801F0F1FB07F10C02F1
:10138C007B6813441B7803F02003002B0CBF012354
:10139C000023DBB21A464FF48061284801F0DFFBD2
:1013AC0007F10C027B6813441B7803F01003002B2D
:1013BC000CBF01230023DBB21A464FF400611F4817
:1013CC0001F0CDFB07F10C027B6813441B7803F092
:1013DC000803002B0CBF01230023DBB21A464FF489
:1013EC008051164801F0BBFB07F10C027B681344DB
:1013FC001B7803F00403002B0CBF01230023DBB28A
:10140C001A464FF400510D4801F0A9FB07F10C02EC
:10141C007B6813441B7803F00203002B0CBF0123E1
:10142C000023DBB21A464FF48041044801F097FBCD
:10143C0000BF1837BD4680BDAC3B0008000801401A
:10144C0080B500AFA94B1B685A1CA94B1B681344F1
:10145C0001335A00A74B1B689A4202DCA54B0022B1
:10146C001A60A44B1B680133A24A1360A04B1B6883
:10147C005A1CA04B1B689A4238DB01224FF4807136
:10148C009D4801F06CFB01224FF480619A4801F0F9
:10149C0066FB00228021984801F061FB00224FF48A
:1014AC000071954801F05BFB944B1B680133944A27
:1014BC0082FB03129210DB17D31A1846FFF7AAFE11
:1014CC008B4B1A688B4B1B689A4203DA0020FFF790
:1014DC0029FF0BE08B4B1B680133894A82FB0312FB
:1014EC009210DB17D31A1846FFF71CFF804B1B68B2
:1014FC005A1C804B1B689A4249DA7D4B1A687B4B0D
:10150C001B6813449A1C7B4B1B689A423FDB0122DD
:10151C004FF48071784801F022FB01224FF4806176
:10152C00754801F01CFB00228021734801F017FB69
:10153C0000224FF40071704801F011FB6C4B1A68DB
:10154C006A4B1B6813445A1C6A4B1B689A4206DA96
:10155C000020FFF75FFE0020FFF7E4FE17E0674B6B
:10156C001B680133664A82FB03129210DB17D31AF5
:10157C001846FFF74FFE644B1B680133604A82FB31
:10158C0003129210DB17D31A1846FFF7CBFE584BF9
:10159C001A68564B1B6813449A1C564B1B689A428C
:1015AC0048DA534B1B685A00504B1B681344DA1C27
:1015BC00504B1B689A423DDB01224FF480714E4820
:1015CC0001F0CDFA01224FF480614B4801F0C7FACB
:1015DC0000228021484801F0C2FA00224FF4007129
:1015EC00454801F0BCFA454B1B680133444A82FB69
:1015FC0003129210DB17D31A1846FFF793FE3C4BDD
:10160C001B685A00394B1B6813449A1C394B1B68D6
:10161C009A4203DA0020FFF7FDFD0BE0394B1B6803
:10162C000133374A82FB03129210DB17D31A184688
:10163C00FFF7F0FD2E4B1B685A002C4B1B68134414
:10164C00DA1C2C4B1B689A424DDA284B1B685A1C2F
:10165C00274B1B68134401335A00264B1B689A42D4
:10166C0041DB01224FF48071234801F078FA01220A
:10167C004FF48061204801F072FA002280211E484C
:10168C0001F06DFA00224FF400711B4801F067FA6B
:10169C00164B1B685A1C164B1B68134401335A001B
:1016AC00144B1B689A4206DC0020FFF73BFE00201F
:1016BC00FFF7B0FD17E0114B1B680133104A82FB9A
:1016CC0003129210DB17D31A1846FFF72BFE0E4BA2
:1016DC001B6801330A4A82FB03129210DB17D31AE0
:1016EC001846FFF797FD00BF80BD00BF58000020D3
:1016FC0054000020B4000020000C01405C000020CD
:10170C0067666666600000206400002080B500AF4C
:10171C00984B1B685A1C984B1B68134401335A0096
:10172C00964B1B689A4202DC944B00221A60934B36
:10173C001B680133914A13608F4B1B685A1C8F4BEB
:10174C001B689A4250DB00224FF480718C4801F0E8
:10175C0006FA00224FF48061894801F000FA012258
:10176C008021874801F0FBF901224FF40071844875
:10177C0001F0F5F9834B1A68834B83FB0213991024
:10178C00D317C91A0B469B000B445B00D11A0846B1
:10179C00FFF740FD7D4B1A687B4B83FB02139910BE
:1017AC00D317C91A0B469B000B445B00D11A084691
:1017BC00FFF7B8FD704B1A68704B1B689A4209DA38
:1017CC006D4B1B68714A13606E4B1B68013B6D4A75
:1017DC00136009E06D4B1B68013B6C4A1360694B4D
:1017EC001B68013B674A1360634B1B685A1C634BB5
:1017FC001B689A425DDA604B1A685E4B1B68134497
:10180C009A1C5E4B1B689A4253DB00224FF480718A
:10181C005B4801F0A4F900224FF48061584801F0B4
:10182C009EF901228021564801F099F901224FF4CA
:10183C000071534801F093F9524B1A68524B83FBD9
:10184C0002139910D317C91A0B469B000B445B006B
:10185C00D11A0846FFF7DEFC4D4B1A684A4B83FB46
:10186C0002139910D317C91A0B469B000B445B004B
:10187C00D11A0846FFF756FD3F4B1A683D4B1B68C3
:10188C0013445A1C3D4B1B689A4208DA414B1B68A7
:10189C003C4A1360374B1B683D4A136009E0394BD7
:1018AC001B68013B374A1360394B1B68013B384AB4
:1018BC001360314B1A682F4B1B6813449A1C2F4B27
:1018CC001B689A4272DA2C4B1B685A00294B1B6816
:1018DC001344DA1C294B1B689A4267DB00224FF435
:1018EC008071274801F03BF900224FF480612448B5
:1018FC0001F035F901228021214801F030F9012253
:10190C004FF400711E4801F02AF91E4B1A681E4B49
:10191C0083FB02139910D317C91A0B469B000B4477
:10192C005B00D11A0846FFF7FDFC184B1A68164BE2
:10193C0083FB02139910D317C91A0B469B000B4457
:10194C005B00D11A0846FFF765FC0B4B1B685A006D
:10195C00084B1B6813449A1C084B1B689A421BDAF1
:10196C00054B1B68094A1360064B1B68013B054A73
:10197C0013601BE05800002054000020B800002029
:10198C00000C01405C000020676666666000002069
:10199C0064000020500000203C4B1B68013B3B4A7C
:1019AC0013603B4B1B68013B394A1360394B1B6876
:1019BC005A00394B1B681344DA1C384B1B689A428B
:1019CC0061DA354B1B685A1C324B1B6813440133CC
:1019DC005A00324B1B689A4255DB00224FF480713F
:1019EC002F4801F0BCF800224FF480612C4801F024
:1019FC00B6F8012280212A4801F0B1F801224FF4F7
:101A0C000071274801F0ABF8214B1A68254B83FB7A
:101A1C0002139910D317C91A0B469B000B445B0099
:101A2C00D11A0846FFF77EFC1F4B1A681D4B83FB2F
:101A3C0002139910D317C91A0B469B000B445B0079
:101A4C00D11A0846FFF7E6FB134B1B685A1C114BC7
:101A5C001B68134401335A00104B1B689A4208DC74
:101A6C00124B1B680A4A13600B4B1B680E4A13601F
:101A7C0009E0074B1B68013B054A13600A4B1B68C6
:101A8C00013B094A136000BF80BD00BF600000200D
:101A9C005C0000205400002058000020B8000020FA
:101AAC00000C014067666666640000205000002050
:101ABC0080B500AF01224FF48071124801F04FF84D
:101ACC0001224FF480610F4801F049F80022802177
:101ADC000C4801F044F800224FF40071094801F061
:101AEC003EF8094B1B68094A82FB03129210DB1764
:101AFC00D31A1846FFF78EFB0020FFF713FC00BF2C
:101B0C0080BD00BF000C0140D800002067666666EF
:101B1C0080B500AF01224FF48071124801F01FF81C
:101B2C0001224FF480610F4801F019F80022802146
:101B3C000C4801F014F800224FF40071094801F030
:101B4C000EF8094B1B68094A82FB03129210DB1733
:101B5C00D31A1846FFF75EFB0020FFF7E3FB00BF2C
:101B6C0080BD00BF000C0140C8000020676666669F
:101B7C0080B500AF01224FF48071124800F0EFFFE6
:101B8C0001224FF480610F4800F0E9FF0022802110
:101B9C000C4800F0E4FF00224FF40071094800F0FB
:101BAC00DEFF094B1B68094A82FB03129210DB17FC
:101BBC00D31A1846FFF72EFB0020FFF7B3FB00BF2C
:101BCC0080BD00BF000C0140BC000020676666664B
:101BDC0080B500AF00224FF480711A4800F0BFFFAF
:101BEC0000224FF48061174800F0B9FF01228021D8
:101BFC00144800F0B4FF01224FF40071114800F0BA
:101C0C00AEFF114B1B68002B06D1104B1B68104A02
:101C1C0013600D4B01221A600D4B1A680D4B83FBA0
:101C2C0002139910D317C91A0B469B000B445B0087
:101C3C00D11A0846FFF7EEFA0220FFF773FB00BF3C
:101C4C0080BD00BF000C0140D400002050000020DB
:101C5C00D80000206766666680B500AF00224FF49E
:101C6C0080711B4800F07BFF00224FF48061184804
:101C7C0000F075FF01228021154800F070FF012251
:101C8C004FF40071124800F06AFF124B1B68002BD6
:101C9C001BDD104B1B68622B17DC0E4B1B680133D2
:101CAC000C4A13600B4B1A680B4B83FB02139910F5
:101CBC00D317C91A0B469B000B445B00D11A08467C
:101CCC00FFF7A8FA0220FFF72DFB00BF80BD00BF75
:101CDC00000C0140D80000206766666680B500AF36
:101CEC0000224FF480711A4800F039FF00224FF4A3
:101CFC008061174800F033FF01228021144800F066
:101D0C002EFF01224FF40071114800F028FF114BF7
:101D1C001B68002B06D1104B1B68104A13600D4B2F
:101D2C0001221A600D4B1A680D4B83FB021399109C
:101D3C00D317C91A0B469B000B445B00D11A0846FB
:101D4C00FFF768FA0320FFF7EDFA00BF80BD00BF74
:101D5C00000C0140CC00002054000020C8000020E2
:101D6C006766666680B500AF00224FF480711B4831
:101D7C0000F0F5FE00224FF48061184800F0EFFEF1
:101D8C0001228021154800F0EAFE01224FF4007177
:101D9C00124800F0E4FE124B1B68002B1BDD104BAD
:101DAC001B68622B17DC0E4B1B6801330C4A13604B
:101DBC000B4B1A680B4B83FB02139910D317C91AE0
:101DCC000B469B000B445B00D11A0846FFF722FA26
:101DDC000320FFF7A7FA00BF80BD00BF000C014035
:101DEC00C80000206766666680B500AF00224FF41D
:101DFC0080711A4800F0B3FE00224FF4806117483E
:101E0C0000F0ADFE01228021144800F0A8FE012252
:101E1C004FF40071114800F0A2FE114B1B68002B0F
:101E2C0006D1104B1B68104A13600D4B01221A602F
:101E3C000D4B1A680D4B83FB02139910D317C91A5B
:101E4C000B469B000B445B00D11A0846FFF7E2F9E6
:101E5C000420FFF767FA00BF80BD00BF000C0140F3
:101E6C00C000002058000020BC0000206766666699
:101E7C0080B500AF00224FF480711B4800F06FFE5C
:101E8C0000224FF48061184800F069FE0122802185
:101E9C00154800F064FE01224FF40071124800F066
:101EAC005EFE124B1B68002B1BDD104B1B68622B5C
:101EBC0017DC0E4B1B6801330C4A13600B4B1A6872
:101ECC000B4B83FB02139910D317C91A0B469B00BB
:101EDC000B445B00D11A0846FFF79CF90420FFF76E
:101EEC0021FA00BF80BD00BF000C0140BC000020E7
:101EFC006766666680B500AF00F030FB00F016F840
:101F0C0000F09CF800F04EF8064801F085FA064BFC
:101F1C0001221A60FEF7C8F9FEF738FCFEF7ECFD5B
:101F2C00F8E700BFE4000020B000002080B590B0BE
:101F3C0000AF07F1180328220021184601F01CFEFF
:101F4C003B1D00221A605A609A60DA601A61022303
:101F5C00BB610123BB621023FB6200237B6307F18F
:101F6C001803184600F02CFE0346002B01D000F09D
:101F7C00E3F80F237B600023BB600023FB6000238E
:101F8C003B6100237B613B1D0021184601F098F852
:101F9C000346002B01D000F0CFF800BF4037BD4600
:101FAC0080BD000080B586B000AF07F108030022A9
:101FBC001A605A609A60DA603B4600221A605A60D6
:101FCC001D4B4FF080421A601B4B41F63F725A601A
:101FDC00194B00229A60184B0922DA60164B00222A
:101FEC001A61154B00229A61134801F0C5F903469A
:101FFC00002B01D000F0A0F84FF48053BB6007F128
:10200C00080319460C4801F043FB0346002B01D092
:10201C0000F092F800233B6000237B603B4619469E
:10202C00054801F01BFD0346002B01D000F084F89D
:10203C0000BF1837BD4680BDE400002080B588B0D5
:10204C0000AF07F1100300221A605A609A60DA6040
:10205C002F4B9B692E4A43F0100393612C4B9B69C9
:10206C0003F01003FB60FB68294B9B69284A43F083
:10207C0004039361264B9B6903F00403BB60BB68AC
:10208C00234B9B69224A43F008039361204B9B69C5
:10209C0003F008037B607B68002247F6FE711D4845
:1020AC0000F05DFD002240F2FF711B4800F057FD6F
:1020BC004FF460433B6100237B610123BB6107F15B
:1020CC0010031946154800F0B9FB47F6FE733B6147
:1020DC0001237B610023BB610223FB6107F1100329
:1020EC0019460C4800F0AAFB40F2FF733B61012338
:1020FC007B610023BB610223FB6107F110031946CE
:10210C00054800F09BFB00BF2037BD4680BD00BFDB
:10211C000010024000080140000C0140001001407A
:10212C0080B582B000AF786000F056F8FEF732F858
:10213C0000BF0837BD4680BD80B400AF72B600BF8B
:10214C00FEE7000080B483B000AF786039603B6874
:10215C00094A82FB03129210DB17D21A07497B68DB
:10216C0041F82320064A7B68002142F8231000BF67
:10217C000C37BD4680BC7047676666662C01002034
:10218C005401002080B483B000AF7860094A7B68AA
:10219C0052F82330012B06D1064A7B68002142F805
:1021AC002310012300E0002318460C37BD4680BCE9
:1021BC00704700BF5401002080B483B000AF78603A
:1021CC00044A7B68002142F8231000BF0C37BD463F
:1021DC0080BC70475401002080B483B000AF002352
:1021EC007B601CE0124A7B6852F82330002B13DD15
:1021FC000F4A7B6852F823305A1E0D497B6841F810
:10220C0023200B4A7B6852F82330002B04DC094A4C
:10221C007B68012142F823107B6801337B607B686B
:10222C00092BDFDD00BF00BF0C37BD4680BC7047FB
:10223C002C0100205401002080B485B000AF154B58
:10224C009B69144A43F001039361124B9B6903F0A1
:10225C000103BB60BB680F4BDB690E4A43F0805334
:10226C00D3610C4BDB6903F080537B607B680A4BBA
:10227C005B68FB60FB6823F0E063FB60FB6843F08A
:10228C008063FB60044AFB68536000BF1437BD4693
:10229C0080BC7047001002400000014080B584B043
:1022AC0000AF78607B681B68B3F1804F13D10C4B87
:1022BC00DB690B4A43F00103D361094BDB6903F083
:1022CC000103FB60FB68002200211C2000F07FFA58
:1022DC001C2000F098FA00BF1037BD4680BD00BF2F
:1022EC000010024080B400AFFEE780B400AFFEE700
:1022FC0080B400AFFEE780B400AFFEE780B400AF5F
:10230C00FEE780B400AF00BFBD4680BC704780B410
:10231C0000AF00BFBD4680BC704780B400AF00BFAB
:10232C00BD4680BC704780B500AF00F05DF900BFC2
:10233C0080BD000080B500AF024801F0B9F800BFC5
:10234C0080BD00BFE400002080B400AF00BFBD46DC
:10235C0080BC704780B500AF0122FE21024800F01E
:10236C00FEFB00BF80BD00BF0008014080B500AF80
:10237C0000221221074800F0F2FB012244210548FB
:10238C0000F0EDFB01228821024800F0E8FB00BFC1
:10239C0080BD00BF0008014080B500AF0022442181
:1023AC00074800F0DCFB01221221054800F0D7FBA6
:1023BC0001228821024800F0D2FB00BF80BD00BF83
:1023CC000008014080B500AF00228821074800F0CA
:1023DC00C6FB01224421054800F0C1FB0122122159
:1023EC00024800F0BCFB00BF80BD00BF00080140EC
:1023FC0080B500AF012210210E4800F0B0FB012285
:10240C0004210C4800F0ABFB01220821094800F024
:10241C00A6FB01228021074800F0A1FB002202212B
:10242C00044800F09CFB00224021024800F097FB7E
:10243C0000BF80BD0008014080B500AF0122102113
:10244C000E4800F08CFB012204210C4800F087FBA5
:10245C0001220821094800F082FB01224021074893
:10246C0000F07DFB00220221044800F078FB0022E2
:10247C008021024800F073FB00BF80BD00080140C2
:10248C0080B500AF012202210E4800F068FB01224A
:10249C0080210C4800F063FB01220821094800F060
:1024AC005EFB01224021074800F059FB0022042169
:1024BC00044800F054FB00221021024800F04FFBAE
:1024CC0000BF80BD0008014080B500AF0122022191
:1024DC000E4800F044FB012280210C4800F03FFB29
:1024EC0001220421094800F03AFB0122402107484F
:1024FC0000F035FB00220821044800F030FB0022DC
:10250C001021024800F02BFB00BF80BD00080140E9
:10251C00FFF71AFF0B480C490C4A002302E0D45871
:10252C00C4500433C4188C42F9D3094A094C002313
:10253C0001E013600432A242FBD301F0F9FAFFF779
:10254C00D9FC70470000002074000020E43B000818
:10255C007400002080010020FEE7000080B500AF71
:10256C00084B1B68074A43F010031360032000F06C
:10257C0023F90F2000F008F8FFF75EFE0023184641
:10258C0080BD00BF0020024080B582B000AF7860F3
:10259C00124B1A68124B1B7819464FF47A73B3FB23
:1025AC00F1F3B2FBF3F3184600F03BF90346002BB2
:1025BC0001D001230EE07B680F2B0AD8002279682A
:1025CC004FF0FF3000F003F9064A7B6813600023DC
:1025DC0000E0012318460837BD4680BD6800002086
:1025EC00700000206C00002080B400AF054B1B78FD
:1025FC001A46054B1B681344034A136000BFBD46C3
:10260C0080BC7047700000207C01002080B400AFBB
:10261C00024B1B681846BD4680BC70477C010020ED
:10262C0080B485B000AF78607B6803F00703FB6073
:10263C000C4BDB68BB60BA684FF6FF031340BB6002
:10264C00FB681A02BB68134343F0BF6343F40033C7
:10265C00BB60044ABB68D36000BF1437BD4680BC66
:10266C00704700BF00ED00E080B400AF044BDB68A6
:10267C001B0A03F007031846BD4680BC704700BF19
:10268C0000ED00E080B483B000AF0346FB7197F916
:10269C000730002B0BDBFB7903F01F02064997F97F
:1026AC0007305B09012000FA02F241F8232000BF39
:1026BC000C37BD4680BC704700E100E080B483B0AD
:1026CC0000AF03463960FB7197F90730002B0ADB2A
:1026DC003B68DAB20C4997F907301201D2B20B44BD
:1026EC0083F800230AE03B68DAB20849FB7903F06F
:1026FC000F03043B1201D2B20B441A7600BF0C3705
:10270C00BD4680BC704700BF00E100E000ED00E07A
:10271C0080B489B000AFF860B9607A60FB6803F0F0
:10272C000703FB61FB69C3F10703042B28BF0423D8
:10273C00BB61FB690433062B02D9FB69033B00E048
:10274C0000237B614FF0FF32BB6902FA03F3DA43DB
:10275C00BB681A407B699A404FF0FF317B6901FAE4
:10276C0003F3D9437B680B40134318462437BD460B
:10277C0080BC704780B582B000AF78607B68013B4D
:10278C00B3F1807F01D301230FE00A4A7B68013B40
:10279C0053600F214FF0FF30FFF790FF054B0022E5
:1027AC009A60044B07221A60002318460837BD466E
:1027BC0080BD00BF10E000E080B582B000AF786053
:1027CC007868FFF72DFF00BF0837BD4680BD80B588
:1027DC0086B000AF0346B9607A60FB7300237B615F
:1027EC00FFF742FF78617A68B9687869FFF790FF64
:1027FC00024697F90F3011461846FFF75FFF00BFEE
:10280C001837BD4680BD80B582B000AF0346FB7162
:10281C0097F907301846FFF735FF00BF0837BD465C
:10282C0080BD80B582B000AF78607868FFF7A2FFFA
:10283C00034618460837BD4680BD000080B48BB0F7
:10284C0000AF7860396000237B6200233B6248E173
:10285C0001227B6A02FA03F3FB613B681B68FA698D
:10286C001340BB61BA69FB699A4240F037813B68FF
:10287C005B68A34A93425ED0A14A934275D8A14AA1
:10288C00934258D09F4A93426FD89F4A934252D05A
:10289C009D4A934269D89D4A93424CD09B4A93429D
:1028AC0063D89B4A934246D0994A93425DD8122BE7
:1028BC002AD8122B59D801A252F823F04329000828
:1028CC001D2900082F290008712900087729000804
:1028DC00772900087729000877290008772900084C
:1028EC00772900087729000877290008772900083C
:1028FC00772900087729000877290008772900082C
:10290C002529000839290008824A934213D02CE06B
:10291C003B68DB683B6229E03B68DB6804333B6265
:10292C0024E03B68DB6808333B621FE03B68DB68F4
:10293C000C333B621AE03B689B68002B02D10423EA
:10294C003B6213E03B689B68012B05D108233B627B
:10295C007B68FA691A6109E008233B627B68FA69B3
:10296C005A6103E000233B6200E000BFBB69FF2B10
:10297C0001D87B6801E07B6804337B61BB69FF2B6A
:10298C0002D87B6A9B0002E07B6A083B9B003B61A0
:10299C007B691A680F213B6901FA03F3DB431A4088
:1029AC00396A3B6901FA03F31A437B691A603B6885
:1029BC005B6803F08053002B00F09080564B9B69B2
:1029CC00554A43F001039361534B9B6903F0010398
:1029DC00BB60BB68514A7B6A9B08023352F82330B8
:1029EC00FB607B6A03F003039B000F2202FA03F3E4
:1029FC00DB43FA681340FB607B68494A93420DD075
:102A0C007B68484A934207D07B68474A934201D17E
:102A1C00022304E0032302E0012300E000237A6A8E
:102A2C0002F0030292009340FA681343FB603B49A7
:102A3C007B6A9B080233FA6841F823203B685B6889
:102A4C0003F48013002B06D0384B9A683749BB69C6
:102A5C0013438B6006E0354B9A68BB69DB43334903
:102A6C0013408B603B685B6803F40013002B06D0AB
:102A7C002E4BDA682D49BB691343CB6006E02B4B18
:102A8C00DA68BB69DB4329491340CB603B685B6860
:102A9C0003F40033002B06D0244B5A682349BB693E
:102AAC0013434B6006E0214B5A68BB69DB431F495B
:102ABC0013404B603B685B6803F48033002B06D0FB
:102ACC001A4B1A681949BB6913430B6006E0174B84
:102ADC001A68BB69DB43154913400B607B6A0133F1
:102AEC007B623B681A687B6A22FA03F3002B7FF443
:102AFC00AFAE00BF00BF2C37BD4680BC704700BFD7
:102B0C0000003210000031100000221000002110D3
:102B1C0000001210000011100010024000000140D3
:102B2C0000080140000C014000100140000401406D
:102B3C0080B485B000AF78600B467B807B689A6868
:102B4C007B881340002B02D00123FB7301E0002390
:102B5C00FB73FB7B18461437BD4680BC704780B4B2
:102B6C0083B000AF78600B467B8013467B707B781C
:102B7C00002B03D07A887B681A6103E07B881A04E7
:102B8C007B681A6100BF0C37BD4680BC704780B4AF
:102B9C0085B000AF78600B467B807B68DB68FB60A0
:102BAC007A88FB6813401A04FB68D9437B880B4076
:102BBC001A437B681A6100BF1437BD4680BC70474E
:102BCC0080B586B000AF78607B68002B01D1012303
:102BDC006CE27B681B6803F00103002B00F087801C
:102BEC00924B5B6803F00C03042B0CD08F4B5B688F
:102BFC0003F00C03082B12D18C4B5B6803F480336D
:102C0C00B3F5803F0BD1894B1B6803F40033002BC9
:102C1C006CD07B685B68002B68D1012346E27B6833
:102C2C005B68B3F5803F06D1804B1B687F4A43F449
:102C3C00803313602EE07B685B68002B0CD17B4BE0
:102C4C001B687A4A23F480331360784B1B68774AED
:102C5C0023F4802313601DE07B685B68B3F5A02F21
:102C6C000CD1724B1B68714A43F4802313606F4B79
:102C7C001B686E4A43F4803313600BE06B4B1B688C
:102C8C006A4A23F480331360684B1B68674A23F449
:102C9C00802313607B685B68002B13D0FFF7B6FCB6
:102CAC00386108E0FFF7B2FC02463B69D31A642B8B
:102CBC0001D90323FAE15D4B1B6803F40033002BAD
:102CCC00F0D014E0FFF7A2FC386108E0FFF79EFC9F
:102CDC0002463B69D31A642B01D90323E6E1534B1B
:102CEC001B6803F40033002BF0D100E000BF7B68BD
:102CFC001B6803F00203002B63D04C4B5B6803F0A2
:102D0C000C03002B0BD0494B5B6803F00C03082B16
:102D1C001CD1464B5B6803F48033002B16D1434B1C
:102D2C001B6803F00203002B05D07B681B69012B89
:102D3C0001D00123BAE13D4B1B6823F0F8027B68FC
:102D4C005B69DB00394913430B603AE07B681B6914
:102D5C00002B20D0364B01221A60FFF757FC38614C
:102D6C0008E0FFF753FC02463B69D31A022B01D94A
:102D7C0003239BE12D4B1B6803F00203002BF0D0C7
:102D8C002A4B1B6823F0F8027B685B69DB00274940
:102D9C0013430B6015E0264B00221A60FFF736FC3C
:102DAC00386108E0FFF732FC02463B69D31A022B6C
:102DBC0001D903237AE11D4B1B6803F00203002B9E
:102DCC00F0D17B681B6803F00803002B3AD07B68BA
:102DDC009B69002B19D0174B01221A60FFF716FCC8
:102DEC00386108E0FFF712FC02463B69D31A022B4C
:102DFC0001D903235AE10D4B5B6A03F00203002B4C
:102E0C00F0D0012000F09AFA1CE00A4B00221A6064
:102E1C00FFF7FCFB38610FE0FFF7F8FB02463B695C
:102E2C00D31A022B08D9032340E100BF0010024043
:102E3C0000004242800442429E4B5B6A03F0020354
:102E4C00002BE9D17B681B6803F00403002B00F016
:102E5C00A6800023FB75974BDB6903F08053002B96
:102E6C000DD1944BDB69934A43F08053D361914B62
:102E7C00DB6903F08053BB60BB680123FB758E4B91
:102E8C001B6803F48073002B18D18B4B1B688A4A88
:102E9C0043F480731360FFF7B9FB386108E0FFF768
:102EAC00B5FB02463B69D31A642B01D90323FDE021
:102EBC00814B1B6803F48073002BF0D07B68DB68BC
:102ECC00012B06D17B4B1B6A7A4A43F00103136238
:102EDC002DE07B68DB68002B0CD1764B1B6A754AA6
:102EEC0023F001031362734B1B6A724A23F0040331
:102EFC0013621CE07B68DB68052B0CD16D4B1B6AE5
:102F0C006C4A43F0040313626A4B1B6A694A43F030
:102F1C00010313620BE0674B1B6A664A23F0010343
:102F2C001362644B1B6A634A23F0040313627B68CD
:102F3C00DB68002B15D0FFF769FB38610AE0FFF75F
:102F4C0065FB02463B69D31A41F28832934201D9A0
:102F5C000323ABE0574B1B6A03F00203002BEED0AC
:102F6C0014E0FFF753FB38610AE0FFF74FFB024612
:102F7C003B69D31A41F28832934201D9032395E07D
:102F8C004C4B1B6A03F00203002BEED1FB7D012B93
:102F9C0005D1484BDB69474A23F08053D3617B68EA
:102FAC00DB69002B00F08180424B5B6803F00C0363
:102FBC00082B61D07B68DB69022B46D13F4B00228A
:102FCC001A60FFF723FB386108E0FFF71FFB02468E
:102FDC003B69D31A022B01D9032367E0354B1B68DD
:102FEC0003F00073002BF0D17B681B6AB3F5803FB4
:102FFC0008D1304B5B6823F400327B689B682D4909
:10300C0013434B602B4B5B6823F474127B68196A77
:10301C007B685B6A0B43274913434B60274B0122A8
:10302C001A60FFF7F3FA386108E0FFF7EFFA02468F
:10303C003B69D31A022B01D9032337E01D4B1B68C4
:10304C0003F00073002BF0D02FE01C4B00221A6011
:10305C00FFF7DCFA386108E0FFF7D8FA02463B6963
:10306C00D31A022B01D9032320E0124B1B6803F067
:10307C000073002BF0D118E07B68DB69012B01D1C8
:10308C00012313E00B4B5B68FB60FB6803F480329D
:10309C007B681B6A9A4206D1FB6803F470127B684A
:1030AC005B6A9A4201D0012300E0002318461837CE
:1030BC00BD4680BD001002400070004060004242DE
:1030CC0080B584B000AF786039607B68002B01D18B
:1030DC000123D0E06A4B1B6803F007033A689A425D
:1030EC0010D9674B1B6823F0070265493B681343F3
:1030FC000B60634B1B6803F007033A689A4201D0DC
:10310C000123B8E07B681B6803F00203002B20D07E
:10311C007B681B6803F00403002B05D0594B5B68DC
:10312C00584A43F4E06353607B681B6803F0080360
:10313C00002B05D0534B5B68524A43F460535360E9
:10314C00504B5B6823F0F0027B689B684D4913433E
:10315C004B607B681B6803F00103002B40D07B683D
:10316C005B68012B07D1474B1B6803F40033002B22
:10317C0015D101237FE07B685B68022B07D1414BA3
:10318C001B6803F00073002B09D1012373E03D4B46
:10319C001B6803F00203002B01D101236BE0394BB8
:1031AC005B6823F003027B685B68364913434B6012
:1031BC00FFF72CFAF8600AE0FFF728FA0246FB68E2
:1031CC00D31A41F28832934201D9032353E02D4B99
:1031DC005B6803F00C027B685B689B009A42EBD146
:1031EC00274B1B6803F007033A689A4210D2244B12
:1031FC001B6823F0070222493B6813430B60204BEA
:10320C001B6803F007033A689A4201D0012332E0AD
:10321C007B681B6803F00403002B08D0194B5B6818
:10322C0023F4E0627B68DB68164913434B607B68D0
:10323C001B6803F00803002B09D0124B5B6823F4C6
:10324C0060527B681B69DB000E4913434B6000F036
:10325C0021F802460B4B5B681B0903F00F030A496C
:10326C00CB5C22FA03F3094A1360094B1B6818461E
:10327C00FFF78AF9002318461037BD4680BD00BF02
:10328C000020024000100240B83B000868000020FB
:10329C006C00002080B487B000AF0023FB600023DB
:1032AC00BB6000237B6100237B6000233B611E4BD2
:1032BC005B68FB60FB6803F00C03042B02D0082B4B
:1032CC0003D027E0194B3B6127E0FB689B0C03F014
:1032DC000F03174AD35C7B60FB6803F48033002B2D
:1032EC0010D0114B5B685B0C03F00103114AD35CEB
:1032FC00BB607B680D4A02FB03F2BB68B2FBF3F3C5
:10330C007B6104E07B680C4A02FB03F37B617B6905
:10331C003B6102E0054B3B6100BF3B6918461C3723
:10332C00BD4680BC704700BF0010024000127A00FE
:10333C00C83B0008D83B000800093D0080B485B0AC
:10334C0000AF78600A4B1B680A4AA2FB03235B0A96
:10335C007A6802FB03F3FB6000BFFB685A1EFA603D
:10336C00002BF9D100BF00BF1437BD4680BC70479D
:10337C0068000020D34D621080B582B000AF786039
:10338C007B68002B01D1012341E07B6893F83D3031
:10339C00DBB2002B06D17B68002283F83C207868D6
:1033AC00FEF77CFF7B68022283F83D207B681A685D
:1033BC007B6804331946104600F056FA7B680122EC
:1033CC0083F846207B68012283F83E207B6801222B
:1033DC0083F83F207B68012283F840207B68012220
:1033EC0083F841207B68012283F842207B6801220C
:1033FC0083F843207B68012283F844207B680122F8
:10340C0083F845207B68012283F83D200023184671
:10341C000837BD4680BD000080B485B000AF786031
:10342C007B6893F83D30DBB2012B01D0012335E0F2
:10343C007B68022283F83D207B681B68DA687B6816
:10344C001B6842F00102DA607B681B68164A9342E3
:10345C0009D07B681B68B3F1804F04D07B681B6874
:10346C00124A934211D17B681B689B6803F00703D7
:10347C00FB60FB68062B10D07B681B681A687B68A6
:10348C001B6842F001021A6007E07B681B681A682F
:10349C007B681B6842F001021A600023184614373F
:1034AC00BD4680BC704700BF002C014000040040AA
:1034BC0080B584B000AF78607B681B68DB68FB600C
:1034CC007B681B681B69BB60BB6803F00203002BA5
:1034DC0020D0FB6803F00203002B1BD07B681B6819
:1034EC006FF002021A617B6801221A777B681B68F5
:1034FC009B6903F00303002B03D0786800F098F964
:10350C0005E0786800F08BF9786800F09AF97B6830
:10351C0000221A77BB6803F00403002B20D0FB6851
:10352C0003F00403002B1BD07B681B686FF00402B4
:10353C001A617B6802221A777B681B689B6903F40B
:10354C004073002B03D0786800F072F905E07868BE
:10355C0000F065F9786800F074F97B6800221A773E
:10356C00BB6803F00803002B20D0FB6803F00803B2
:10357C00002B1BD07B681B686FF008021A617B68FC
:10358C0004221A777B681B68DB6903F00303002BAA
:10359C0003D0786800F04CF905E0786800F03FF94A
:1035AC00786800F04EF97B6800221A77BB6803F04C
:1035BC001003002B20D0FB6803F01003002B1BD052
:1035CC007B681B686FF010021A617B6808221A77FF
:1035DC007B681B68DB6903F44073002B03D07868AD
:1035EC0000F026F905E0786800F019F9786800F029
:1035FC0028F97B6800221A77BB6803F00103002BC3
:10360C000CD0FB6803F00103002B07D07B681B6810
:10361C006FF001021A617868FEF782FDBB6803F057
:10362C008003002B0CD0FB6803F08003002B07D029
:10363C007B681B686FF080021A61786800F06FFA83
:10364C00BB6803F04003002B0CD0FB6803F0400375
:10365C00002B07D07B681B686FF040021A617868FA
:10366C0000F0F8F8BB6803F02003002B0CD0FB68CB
:10367C0003F02003002B07D07B681B686FF020023F
:10368C001A61786800F042FA00BF1037BD4680BD61
:10369C0080B584B000AF786039600023FB737B6821
:1036AC0093F83C30012B01D10223B4E07B6801225A
:1036BC0083F83C207B68022283F83D207B681B68E2
:1036CC009B68BB60BB6823F07703BB60BB6823F4CB
:1036DC007F43BB607B681B68BA689A603B681B6859
:1036EC00B3F5005F3ED0B3F5005F00F28780B3F511
:1036FC00805F00F08680B3F5805F7FD8702B1AD086
:10370C00702B7BD8602B50D0602B77D8502B3CD0B3
:10371C00502B73D8402B58D0402B6FD8302B64D003
:10372C00302B6BD8202B60D0202B67D8002B5CD093
:10373C00102B5AD062E07B6818683B6899683B682C
:10374C005A683B68DB6800F06AF97B681B689B6809
:10375C00BB60BB6843F07703BB607B681B68BA68CF
:10376C009A604FE07B6818683B6899683B685A68B8
:10377C003B68DB6800F053F97B681B689A687B68D0
:10378C001B6842F480429A603CE07B6818683B6896
:10379C0059683B68DB681A4600F0CAF87B681B68FE
:1037AC005021184600F021F92CE07B6818683B6822
:1037BC0059683B68DB681A4600F0E8F87B681B68C0
:1037CC006021184600F011F91CE07B6818683B6812
:1037DC0059683B68DB681A4600F0AAF87B681B68DE
:1037EC004021184600F001F90CE07B681A683B6830
:1037FC001B681946104600F0F8F803E00123FB7330
:10380C0000E000BF7B68012283F83D207B6800222A
:10381C0083F83C20FB7B18461037BD4680BD80B436
:10382C0083B000AF786000BF0C37BD4680BC7047DA
:10383C0080B483B000AF786000BF0C37BD4680BC4D
:10384C00704780B483B000AF786000BF0C37BD46C2
:10385C0080BC704780B483B000AF786000BF0C3779
:10386C00BD4680BC7047000080B485B000AF786066
:10387C0039607B681B68FB607B682B4A934207D0DE
:10388C007B68B3F1804F03D07B68284A934208D100
:10389C00FB6823F07003FB603B685B68FA681343BA
:1038AC00FB607B68204A934207D07B68B3F1804F62
:1038BC0003D07B681D4A934208D1FB6823F4407304
:1038CC00FB603B68DB68FA681343FB60FB6823F022
:1038DC0080023B685B691343FB607B68FA681A6083
:1038EC003B689A687B68DA623B681A687B689A6204
:1038FC007B680D4A934203D13B681A697B681A6353
:10390C007B6801225A617B681B6903F00103002B61
:10391C0005D07B681B6923F001027B681A6100BF2C
:10392C001437BD4680BC7047002C01400004004099
:10393C0080B487B000AFF860B9607A60FB681B6A2E
:10394C007B61FB681B6A23F00102FB681A62FB684F
:10395C009B693B613B6923F0F0033B617B681B0176
:10396C003A6913433B617B6923F00A037B617A69F3
:10397C00BB6813437B61FB683A699A61FB687A699F
:10398C001A6200BF1C37BD4680BC704780B487B03C
:10399C0000AFF860B9607A60FB681B6A7B61FB68FA
:1039AC001B6A23F01002FB681A62FB689B693B617F
:1039BC003B6923F470433B617B681B033A691343F7
:1039CC003B617B6923F0A0037B61BB681B017A69B7
:1039DC0013437B61FB683A699A61FB687A691A62E6
:1039EC0000BF1C37BD4680BC704780B485B000AFAB
:1039FC00786039607B689B68FB60FB6823F0700320
:103A0C00FB603A68FB68134343F00703FB607B6879
:103A1C00FA689A6000BF1437BD4680BC704780B40A
:103A2C0087B000AFF860B9607A603B60FB689B6858
:103A3C007B617B6923F47F437B613B681A027B6863
:103A4C001A43BB6813437A6913437B61FB687A6939
:103A5C009A6000BF1C37BD4680BC704780B485B0EF
:103A6C0000AF786039607B6893F83C30012B01D152
:103A7C00022341E07B68012283F83C207B68022210
:103A8C0083F83D207B681B685B68FB607B681B6868
:103A9C009B68BB60FB6823F07003FB603B681B6892
:103AAC00FA681343FB607B681B68FA685A607B6892
:103ABC001B68144A934209D07B681B68B3F1804F92
:103ACC0004D07B681B68104A93420CD1BB6823F06E
:103ADC008003BB603B685B68BA681343BB607B6860
:103AEC001B68BA689A607B68012283F83D207B686A
:103AFC00002283F83C20002318461437BD4680BCB6
:103B0C00704700BF002C01400004004080B483B01B
:103B1C0000AF786000BF0C37BD4680BC704780B4E6
:103B2C0083B000AF786000BF0C37BD4680BC7047D7
:103B3C0070B500260C4D0D4C641BA410A64209D187
:103B4C0000F022F800260A4D0A4C641BA410A64271
:103B5C0005D170BD55F8043B98470136EEE755F892
:103B6C00043B98470136F2E7DC3B0008DC3B0008DD
:103B7C00DC3B0008E03B000803460244934200D1C2
:103B8C00704703F8011BF9E7F8B500BFF8BC08BC97
:103B9C009E467047F8B500BFF8BC08BC9E467047FF
:103BAC00FC60DAF266B6BEE0FEF600000000000033
:103BBC0000000000010203040607080902030405C3
:103BCC00060708090A0B0C0D0E0F1010010200005D
:043BDC0031010008AB
:043BE0000D010008CB
:103BE40001000000010000000100000001000000CD
:103BF40001000000010000000100000001000000BD
:103C040001000000010000000100000001000000AC
:103C1400C8000000C8000000C800000000100140F7
:103C2400001001400010014000200040008000000E
:103C34000500000003000000010000000500000072
:103C4400030000000100000000127A0010000000D0
:043C5400010000006B
:040000050800251DAD
:00000001FF
