:020000040800F2
:10000000002800200D150008091300080F13000830
:10001000151300081B13000821130008000000003E
:10002000000000000000000000000000271300088E
:1000300033130008000000003F1300084B130008B2
:1000400055150008551500085515000855150008E8
:1000500055150008551500085515000855150008D8
:1000600055150008551500085515000855150008C8
:1000700055150008551500085515000855150008B8
:1000800055150008551500085515000855150008A8
:100090005515000855150008551500085515000898
:1000A0005515000855150008551500085515000888
:1000B00059130008551500080000000055150008E8
:1000C000551500080000000000000000551500084C
:1000D000000000005515000855150008000000003C
:1000E00055150008551500085515000800000000BA
:1000F0000000000000000000000000000000000000
:0C01000000000000000000005FF808F1A3
:10010C0010B5054C237833B9044B13B10448AFF345
:10011C0000800123237010BD74000020000000003B
:10012C00842B000808B5034B1BB103490348AFF3FC
:10013C00008008BD0000000078000020842B00081F
:10014C0080B483B000AF7860094A7B6852F82330E2
:10015C00012B06D1064A7B68002142F823100123AB
:10016C0000E0002318460C37BD4680BC704700BF2A
:10017C009000002080B483B000AF7860044A7B68A4
:10018C00012142F8231000BF0C37BD4680BC7047DC
:10019C009000002080B582B000AF00237B606DE042
:1001AC003A4A7B6852F8232039497B6841F823206E
:1001BC00384A7B6852F8232034497B6841F8232065
:1001CC00354A7B6852F8232034497B6831F8133068
:1001DC001946104601F0A4FC034619462D4A7B68CB
:1001EC0042F823102A4A7B6852F8232027497B685F
:1001FC0051F823309A423ED1244A7B6852F823208E
:10020C0024497B6851F823309A4234D1244A7B68C4
:10021C0052F823201F497B6851F823309A4216D09C
:10022C001C4A7B6852F823201D497B6841F8232027
:10023C00184A7B6852F82330002B1CD17868FFF7E2
:10024C0099FF184A7B68C82142F8231013E0154A1D
:10025C007B6852F823305A1E12497B6841F82320E0
:10026C00104A7B6852F82330002B04D10C4A7B686F
:10027C00012142F823107B6801337B607B68022BE1
:10028C008EDD00BF00BF0837BD4680BD0C000020CE
:10029C0000000020180000203C0000204800002036
:1002AC00240000203000002080B500AFB04B1B684C
:1002BC00013B042B00F2508101A252F823F000BF45
:1002CC00E10200080F030008B3030008450400080E
:1002DC00D504000801F04AF800F072FBA44B02228E
:1002EC001A6040F6B831002000F048FF4FF4C87196
:1002FC00012000F043FF4FF47A71022000F03EFF22
:10030C0033E101F06DF89B4B1B68002B04D100F01E
:10031C00A5FC984B01221A60012000F04FFF034608
:10032C00012B06D100F076FC4FF4C871012000F0CF
:10033C0025FF022000F042FF0346012B06D100F0FE
:10034C008DFC4FF47A71022000F018FF002000F0B1
:10035C0035FF0346012B07D1854B03221A604FF45E
:10036C00FA61002000F00AFF0020FFF7E9FE0346C7
:10037C00012B40F0F3807E4B0C221A604FF4C871B5
:10038C00012000F0FBFE4FF47A71022000F0F6FE23
:10039C004FF4FA71032000F0F1FE42F210710420C8
:1003AC0000F0ECFEDAE001F03FF8012000F006FF6F
:1003BC000346012B06D100F02DFC4FF4C87101202F
:1003CC0000F0DCFE022000F0F9FE0346012B06D102
:1003DC0000F044FC4FF47A71022000F0CFFE0020B4
:1003EC0000F0ECFE0346012B07D1614B04221A608E
:1003FC0040F6B831002000F0C1FE0020FFF7A0FE4F
:10040C000346012B40F0AC80594B0C221A604FF480
:10041C00C871012000F0B2FE4FF47A71022000F096
:10042C00ADFE4FF4FA71032000F0A8FE42F21071F9
:10043C00052000F0A3FE93E001F01AF8012000F073
:10044C00BDFE0346012B06D100F0E4FB4FF4C8714E
:10045C00012000F093FE022000F0B0FE0346012BB9
:10046C0006D100F0FBFB4FF47A71022000F086FEFF
:10047C00002000F0A3FE0346012B07D13C4B0522C4
:10048C001A604FF4FA61002000F078FE0020FFF7AC
:10049C0057FE0346012B65D1354B0C221A604FF4E5
:1004AC00C871012000F06AFE4FF47A71022000F04E
:1004BC0065FE4FF4FA71032000F060FE42F21071F9
:1004CC00062000F05BFE4DE000F0F6FF012000F08E
:1004DC0075FE0346012B06D100F09CFB4FF4C8714E
:1004EC00012000F04BFE022000F068FE0346012BB9
:1004FC0006D100F0B3FB4FF47A71022000F03EFEFF
:10050C00002000F05BFE0346012B07D1184B0222A2
:10051C001A6040F6B831002000F030FE0020FFF7E2
:10052C000FFE0346012B1FD1114B0C221A604FF406
:10053C00C871012000F022FE4FF47A71022000F005
:10054C001DFE4FF4FA71032000F018FE42F21071F8
:10055C00072000F013FE07E000BF06E000BF04E038
:10056C0000BF02E000BF00E000BF00BF80BD00BFC5
:10057C00A80000209C00002080B500AFAE4B1B688B
:10058C000C3B042B00F2518101A252F823F000BF66
:10059C00B10500089F070008F3070008370800089A
:1005AC0037080008A54B1B68002B06D100F0EAFEAB
:1005BC0000F04CFCA14B01221A60012000F0FEFD62
:1005CC000346012B06D100F025FB4FF4C871012026
:1005DC0000F0D4FD022000F0F1FD0346012B06D102
:1005EC0000F034FC4FF47A71022000F0C7FD0320B8
:1005FC0000F0E4FD0346012B08D11221904801F0D4
:10060C00BEFA4FF4FA71032000F0B8FD042000F09C
:10061C00D5FD0346012B0CD1874B02221A60894B66
:10062C001B684FF47A7202FB03F31946002000F0AA
:10063C00A5FD052000F0C2FD0346012B22D17E4B07
:10064C0003221A60804B1A68804B1B689A4205D1B2
:10065C007D4B00221A607E4B00221A607C4B1B687B
:10066C0001337B4A1360784B1B680133764A136065
:10067C00774B1B684FF47A7202FB03F31946002088
:10068C0000F07CFD062000F099FD0346012B16D1ED
:10069C00694B04221A606B4B1B680133694A136067
:1006AC00694B1B680133684A1360664B1B684FF437
:1006BC007A7202FB03F31946002000F05FFD07205D
:1006CC0000F07CFD0346012B22D15B4B05221A6006
:1006DC005D4B1A685D4B1B689A4205D15A4B002240
:1006EC001A605B4B00221A60594B1B680133584A45
:1006FC001360554B1B680133534A1360544B1B68F2
:10070C004FF47A7202FB03F31946002000F036FD19
:10071C000020FFF715FD0346012B19D1464B0D2286
:10072C001A60464B00221A604FF4C871012000F089
:10073C0025FD4FF47A71022000F020FD4FF4FA7180
:10074C00032000F01BFD42F21071042000F016FD96
:10075C000120FFF7F5FC0346012B16D1364B0F2277
:10076C001A604FF4C871012000F008FD4FF47A7143
:10077C00022000F003FD4FF4FA71032000F0FEFCA0
:10078C0042F21071042000F0F9FC0220FFF7D8FCB3
:10079C0050E02A4B1B68002B04D100F009FE274BBC
:1007AC0001221A60032000F009FD0346012B08D139
:1007BC004421234801F0E3F94FF4FA71032000F0CF
:1007CC00DDFC0020FFF7BCFC0346012B2FD11A4B9C
:1007DC000E221A60194B00221A604FF4FA71032092
:1007EC0000F0CCFC23E0154B1B68002B04D100F06F
:1007FC00EBFD124B01221A60032000F0DFFC0346D4
:10080C00012B08D188210E4801F0B9F94FF4FA7187
:10081C00032000F0B3FC0020FFF792FC0346012BF1
:10082C0007D1054B01221A6003E000BF02E000BFB4
:10083C0000E000BF00BF80BDA8000020A000002089
:10084C000008014058000020500000205C000020EF
:10085C005400002080B500AF4E4B1B680F2B02D00C
:10086C00102B6AD094E0022000F0A8FC0346012B68
:10087C000FD1494B1B68002B04D100F02BFB464BCE
:10088C0001221A6000F0E2FA4FF47A71022000F0B3
:10089C0075FC032000F092FC0346012B08D11221B9
:1008AC003E4801F06CF94FF4FA71032000F066FC3D
:1008BC00042000F083FC0346012B02D1354B0122AE
:1008CC001A600020FFF73CFC0346012B19D1314B79
:1008DC000D221A60324B00221A604FF4C8710120AD
:1008EC0000F04CFC4FF47A71022000F047FC4FF4FE
:1008FC00FA71032000F042FC42F21071042000F067
:10090C003DFC0120FFF71CFC0346012B06D100F037
:10091C00E1FA42F21071042000F030FC0220FFF7E3
:10092C000FFC0346012B30D11A4B10221A604FF4E6
:10093C007A71022000F022FC27E01A4B1B681A4A3D
:10094C001360194B1A68194B1B68D31A184A136099
:10095C00154B1A68164B1B68D31A144A1360124BAA
:10096C001B68144A1360124B1B68134A13600F4B1D
:10097C001B68124A1360022000F020FC0346012B76
:10098C0005D1044B01221A6001E000BF00E000BF5A
:10099C0000BF80BDA8000020A4000020000801407A
:1009AC00A0000020B00000205000002054000020C7
:1009BC00580000205C000020600000206400002033
:1009CC0080B500AF012240F2FF71054801F0BFF87D
:1009DC0001224FF4FE41034801F0B9F800BF80BD7D
:1009EC00000C01400008014080B586B000AF786073
:1009FC003F4A07F10C0307CA03C31A8007F10C0224
:100A0C007B6813441B785BB2DB43DBB2DB09DBB2E4
:100A1C001A460121374801F09AF807F10C027B685D
:100A2C0013441B7803F04003002B0CBF012300235D
:100A3C00DBB21A4602212F4801F089F807F10C02AB
:100A4C007B6813441B7803F02003002B0CBF01239D
:100A5C000023DBB21A460421264801F078F807F18E
:100A6C000C027B6813441B7803F01003002B0CBFA3
:100A7C0001230023DBB21A4608211E4801F067F857
:100A8C0007F10C027B6813441B7803F00803002B5E
:100A9C000CBF01230023DBB21A461021154801F0CC
:100AAC0056F807F10C027B6813441B7803F004031F
:100ABC00002B0CBF01230023DBB21A4620210D486A
:100ACC0001F045F807F10C027B6813441B7803F026
:100ADC000203002B0CBF01230023DBB21A4640217A
:100AEC00044801F034F800BF1837BD4680BD00BF84
:100AFC009C2B0008000C014080B586B000AF7860DC
:100B0C00424A07F10C0307CA03C31A8007F10C020F
:100B1C007B6813441B785BB2DB43DBB2DB09DBB2D3
:100B2C001A464FF480713A4801F011F807F10C02A3
:100B3C007B6813441B7803F04003002B0CBF01238C
:100B4C000023DBB21A464FF40071314800F0FFFF6E
:100B5C0007F10C027B6813441B7803F02003002B75
:100B6C000CBF01230023DBB21A464FF480612848E6
:100B7C0000F0EDFF07F10C027B6813441B7803F0C7
:100B8C001003002B0CBF01230023DBB21A464FF4D9
:100B9C0000611F4800F0DBFF07F10C027B68134477
:100BAC001B7803F00803002B0CBF01230023DBB2DE
:100BBC001A464FF48051164800F0C9FF07F10C0299
:100BCC007B6813441B7803F00403002B0CBF012338
:100BDC000023DBB21A464FF400510D4800F0B7FF6A
:100BEC0007F10C027B6813441B7803F00203002B03
:100BFC000CBF01230023DBB21A464FF4804104489A
:100C0C0000F0A5FF00BF1837BD4680BD9C2B000827
:100C1C000008014080B500AF01224FF480710E48EE
:100C2C0000F095FF01224FF480610B4800F08FFF1C
:100C3C0000228021084800F08AFF00224FF4007146
:100C4C00054800F084FF0020FFF7CEFE0020FFF7E0
:100C5C0053FF00BF80BD00BF000C014080B500AF4A
:100C6C00724B1B68092B02DD704B00221A606F4B14
:100C7C001B6801336D4A13606C4B1B68032B26DC1D
:100C8C0000224FF480716A4800F061FF00224FF49B
:100C9C008061674800F05BFF01228021644800F00E
:100CAC0056FF01224FF40071614800F050FF614B78
:100CBC001B685A1E5F490A601846FFF795FE5E4B8B
:100CCC001B685A1E5C490A601846FFF715FF574B04
:100CDC001B68032B3ADD554B1B68052B36DC0022B9
:100CEC004FF48071524800F032FF00224FF48061C3
:100CFC004F4800F02CFF012280214D4800F027FFC7
:100D0C0001224FF400714A4800F021FF494B1B6847
:100D1C005A1E48490A601846FFF766FE474B1B6887
:100D2C005A1E46490A601846FFF7E6FE3F4B1B6801
:100D3C00042B0BDD424B1B683E4A1360414B1B6876
:100D4C003E4A1360404B1B683B4A1360374B1B6891
:100D5C00052B2ADD354B1B68082B26DC00224FF4B3
:100D6C008071334800F0F3FE00224FF4806130486C
:100D7C0000F0EDFE012280212D4800F0E8FE01225A
:100D8C004FF400712A4800F0E2FE2A4B1B685A1EF1
:100D9C0028490A601846FFF7AFFE274B1B685A1EFE
:100DAC0025490A601846FFF71FFE204B1B68082BCD
:100DBC003ADD1E4B1B680A2B36DC00224FF4807187
:100DCC001B4800F0C4FE00224FF48061184800F06C
:100DDC00BEFE01228021164800F0B9FE01224FF41C
:100DEC000071134800F0B3FE124B1B685A1E1149D8
:100DFC000A601846FFF780FE104B1B685A1E0F49FD
:100E0C000A601846FFF7F0FD084B1B68092B0BDD39
:100E1C000B4B1B68074A13600A4B1B68074A13608D
:100E2C00094B1B68044A136000BF80BDAC00002056
:100E3C00000C0140500000205800002054000020FD
:100E4C005C000020640000206000002080B500AF32
:100E5C0000224FF480711B4800F079FE00224FF401
:100E6C008061184800F073FE01228021154800F0C3
:100E7C006EFE01224FF40071124800F068FE124B16
:100E8C001B68002B0BD1114B1B6801330F4A1360ED
:100E9C000E4B1B680E4A13600B4B01221A600C4B55
:100EAC001B685A1C0A490A601846FFF79DFD012071
:100EBC00FFF722FE064B1B68013B054A136000BF7F
:100ECC0080BD00BF000C0140B40000205000002089
:100EDC00B000002080B500AF00224FF480711148A3
:100EEC0000F035FE00224FF480610E4800F02FFE1A
:100EFC00012280210B4800F02AFE01224FF40071E0
:100F0C00084800F024FE084B1B680133064A1360A6
:100F1C00054B1B681846FFF767FD0120FFF7ECFD3A
:100F2C0000BF80BD000C0140B000002080B500AFB8
:100F3C0000F00CFB00F016F800F09CF800F04EF8F6
:100F4C00064801F061FA064B01221A60FFF7ACF972
:100F5C00FFF712FBFFF77EFCF8E700BFB80000209C
:100F6C00A800002080B590B000AF07F1180328222C
:100F7C000021184601F0F8FD3B1D00221A605A6052
:100F8C009A60DA601A610223BB610123BB621023F1
:100F9C00FB6200237B6307F11803184600F008FE80
:100FAC000346002B01D000F0E3F80F237B600023F5
:100FBC00BB600023FB6000233B6100237B613B1D76
:100FCC000021184601F074F80346002B01D000F004
:100FDC00CFF800BF4037BD4680BD000080B586B05D
:100FEC0000AF07F1080300221A605A609A60DA60B9
:100FFC003B4600221A605A601D4B4FF080421A602B
:10100C001B4B41F63F725A60194B00229A60184BE9
:10101C000922DA60164B00221A61154B00229A61E4
:10102C00134801F0A1F90346002B01D000F0A0F801
:10103C004FF48053BB6007F1080319460C4801F0CC
:10104C001FFB0346002B01D000F092F800233B60FD
:10105C0000237B603B461946054801F0F7FC03462C
:10106C00002B01D000F084F800BF1837BD4680BDBE
:10107C00B800002080B588B000AF07F11003002243
:10108C001A605A609A60DA602F4B9B692E4A43F0C3
:10109C00100393612C4B9B6903F01003FB60FB68FE
:1010AC00294B9B69284A43F004039361264B9B69A7
:1010BC0003F00403BB60BB68234B9B69224A43F0DB
:1010CC0008039361204B9B6903F008037B607B68EA
:1010DC00002247F6FE711D4800F039FD002240F257
:1010EC00FF711B4800F033FD4FF460433B6100235C
:1010FC007B610123BB6107F110031946154800F011
:10110C0095FB47F6FE733B6101237B610023BB61BA
:10111C000223FB6107F1100319460C4800F086FB13
:10112C0040F2FF733B6101237B610023BB6102230F
:10113C00FB6107F110031946054800F077FB00BF6F
:10114C002037BD4680BD00BF0010024000080140A2
:10115C00000C01400010014080B582B000AF7860F7
:10116C0000F046F8FFF716F800BF0837BD4680BD03
:10117C0080B400AF72B600BFFEE7000080B483B04D
:10118C0000AF786039603B68094A82FB0312921009
:10119C00DB17D21A07497B6841F82320064A7B6883
:1011AC00002142F8231000BF0C37BD4680BC7047AD
:1011BC0067666666000100202801002080B483B0B9
:1011CC0000AF7860094A7B6852F82330012B06D1B6
:1011DC00064A7B68002142F82310012300E000231B
:1011EC0018460C37BD4680BC704700BF2801002054
:1011FC0080B483B000AF00237B601CE0124A7B6894
:10120C0052F82330002B13DD0F4A7B6852F8233041
:10121C005A1E0D497B6841F823200B4A7B6852F813
:10122C002330002B04DC094A7B68012142F823108F
:10123C007B6801337B607B68092BDFDD00BF00BF5F
:10124C000C37BD4680BC70470001002028010020EF
:10125C0080B485B000AF154B9B69144A43F0010371
:10126C009361124B9B6903F00103BB60BB680F4B8E
:10127C00DB690E4A43F08053D3610C4BDB6903F0FE
:10128C0080537B607B680A4B5B68FB60FB6823F0D8
:10129C00E063FB60FB6843F08063FB60044AFB681F
:1012AC00536000BF1437BD4680BC7047001002402D
:1012BC000000014080B584B000AF78607B681B688B
:1012CC00B3F1804F13D10C4BDB690B4A43F0010394
:1012DC00D361094BDB6903F00103FB60FB6800225F
:1012EC0000211C2000F06BFA1C2000F084FA00BFD7
:1012FC001037BD4680BD00BF0010024080B400AF67
:10130C00FEE780B400AFFEE780B400AFFEE780B428
:10131C0000AFFEE780B400AFFEE780B400AF00BFC3
:10132C00BD4680BC704780B400AF00BFBD4680BCDA
:10133C00704780B400AF00BFBD4680BC704780B51D
:10134C0000AF00F049F900BF80BD000080B500AFD0
:10135C00024801F0A5F800BF80BD00BFB800002016
:10136C0080B400AF00BFBD4680BC704780B500AFF5
:10137C000122FE21024800F0EAFB00BF80BD00BF45
:10138C000008014080B500AF00221221074800F090
:10139C00DEFB01224421054800F0D9FB0122882103
:1013AC00024800F0D4FB00BF80BD00BF0008014024
:1013BC0080B500AF00224421024800F0C8FB00BFFA
:1013CC0080BD00BF0008014080B500AF002288211D
:1013DC00024800F0BCFB00BF80BD00BF000801400C
:1013EC0080B500AF012210210E4800F0B0FB0122A5
:1013FC0004210C4800F0ABFB01220821094800F045
:10140C00A6FB01228021074800F0A1FB002202214B
:10141C00044800F09CFB00224021024800F097FB9E
:10142C0000BF80BD0008014080B500AF0122102133
:10143C000E4800F08CFB012204210C4800F087FBC5
:10144C0001220821094800F082FB012240210748B3
:10145C0000F07DFB00220221044800F078FB002202
:10146C008021024800F073FB00BF80BD00080140E2
:10147C0080B500AF012202210E4800F068FB01226A
:10148C0080210C4800F063FB01220821094800F080
:10149C005EFB01224021074800F059FB0022042189
:1014AC00044800F054FB00221021024800F04FFBCE
:1014BC0000BF80BD0008014080B500AF01220221B1
:1014CC000E4800F044FB012280210C4800F03FFB49
:1014DC0001220421094800F03AFB0122402107486F
:1014EC0000F035FB00220821044800F030FB0022FC
:1014FC001021024800F02BFB00BF80BD000801400A
:10150C00FFF72EFF0B480C490C4A002302E0D4587D
:10151C00C4500433C4188C42F9D3094A094C002333
:10152C0001E013600432A242FBD301F0F9FAFFF799
:10153C00FDFC70470000002074000020D42B000834
:10154C007400002054010020FEE7000080B500AFBD
:10155C00084B1B68074A43F010031360032000F08C
:10156C0023F90F2000F008F8FFF772FE002318464D
:10157C0080BD00BF0020024080B582B000AF786013
:10158C00124B1A68124B1B7819464FF47A73B3FB43
:10159C00F1F3B2FBF3F3184600F03BF90346002BD2
:1015AC0001D001230EE07B680F2B0AD8002279684A
:1015BC004FF0FF3000F003F9064A7B6813600023FC
:1015CC0000E0012318460837BD4680BD68000020A6
:1015DC00700000206C00002080B400AF054B1B781D
:1015EC001A46054B1B681344034A136000BFBD46E3
:1015FC0080BC7047700000205001002080B400AF08
:10160C00024B1B681846BD4680BC70475001002039
:10161C0080B485B000AF78607B6803F00703FB6093
:10162C000C4BDB68BB60BA684FF6FF031340BB6022
:10163C00FB681A02BB68134343F0BF6343F40033E7
:10164C00BB60044ABB68D36000BF1437BD4680BC86
:10165C00704700BF00ED00E080B400AF044BDB68C6
:10166C001B0A03F007031846BD4680BC704700BF39
:10167C0000ED00E080B483B000AF0346FB7197F936
:10168C000730002B0BDBFB7903F01F02064997F99F
:10169C0007305B09012000FA02F241F8232000BF59
:1016AC000C37BD4680BC704700E100E080B483B0CD
:1016BC0000AF03463960FB7197F90730002B0ADB4A
:1016CC003B68DAB20C4997F907301201D2B20B44DD
:1016DC0083F800230AE03B68DAB20849FB7903F08F
:1016EC000F03043B1201D2B20B441A7600BF0C3725
:1016FC00BD4680BC704700BF00E100E000ED00E09B
:10170C0080B489B000AFF860B9607A60FB6803F010
:10171C000703FB61FB69C3F10703042B28BF0423F8
:10172C00BB61FB690433062B02D9FB69033B00E068
:10173C0000237B614FF0FF32BB6902FA03F3DA43FB
:10174C00BB681A407B699A404FF0FF317B6901FA04
:10175C0003F3D9437B680B40134318462437BD462B
:10176C0080BC704780B582B000AF78607B68013B6D
:10177C00B3F1807F01D301230FE00A4A7B68013B60
:10178C0053600F214FF0FF30FFF790FF054B002205
:10179C009A60044B07221A60002318460837BD468E
:1017AC0080BD00BF10E000E080B582B000AF786073
:1017BC007868FFF72DFF00BF0837BD4680BD80B5A8
:1017CC0086B000AF0346B9607A60FB7300237B617F
:1017DC00FFF742FF78617A68B9687869FFF790FF84
:1017EC00024697F90F3011461846FFF75FFF00BF0E
:1017FC001837BD4680BD80B582B000AF0346FB7183
:10180C0097F907301846FFF735FF00BF0837BD467C
:10181C0080BD80B582B000AF78607868FFF7A2FF1A
:10182C00034618460837BD4680BD000080B48BB017
:10183C0000AF7860396000237B6200233B6248E193
:10184C0001227B6A02FA03F3FB613B681B68FA69AD
:10185C001340BB61BA69FB699A4240F037813B681F
:10186C005B68A34A93425ED0A14A934275D8A14AC1
:10187C00934258D09F4A93426FD89F4A934252D07A
:10188C009D4A934269D89D4A93424CD09B4A9342BD
:10189C0063D89B4A934246D0994A93425DD8122B07
:1018AC002AD8122B59D801A252F823F03319000868
:1018BC000D1900081F1900086119000867190008A4
:1018CC0067190008671900086719000867190008EC
:1018DC0067190008671900086719000867190008DC
:1018EC0067190008671900086719000867190008CC
:1018FC001519000829190008824A934213D02CE0CC
:10190C003B68DB683B6229E03B68DB6804333B6285
:10191C0024E03B68DB6808333B621FE03B68DB6814
:10192C000C333B621AE03B689B68002B02D104230A
:10193C003B6213E03B689B68012B05D108233B629B
:10194C007B68FA691A6109E008233B627B68FA69D3
:10195C005A6103E000233B6200E000BFBB69FF2B30
:10196C0001D87B6801E07B6804337B61BB69FF2B8A
:10197C0002D87B6A9B0002E07B6A083B9B003B61C0
:10198C007B691A680F213B6901FA03F3DB431A40A8
:10199C00396A3B6901FA03F31A437B691A603B68A5
:1019AC005B6803F08053002B00F09080564B9B69D2
:1019BC00554A43F001039361534B9B6903F00103B8
:1019CC00BB60BB68514A7B6A9B08023352F82330D8
:1019DC00FB607B6A03F003039B000F2202FA03F304
:1019EC00DB43FA681340FB607B68494A93420DD095
:1019FC007B68484A934207D07B68474A934201D19F
:101A0C00022304E0032302E0012300E000237A6AAE
:101A1C0002F0030292009340FA681343FB603B49C7
:101A2C007B6A9B080233FA6841F823203B685B68A9
:101A3C0003F48013002B06D0384B9A683749BB69E6
:101A4C0013438B6006E0354B9A68BB69DB43334923
:101A5C0013408B603B685B6803F40013002B06D0CB
:101A6C002E4BDA682D49BB691343CB6006E02B4B38
:101A7C00DA68BB69DB4329491340CB603B685B6880
:101A8C0003F40033002B06D0244B5A682349BB695E
:101A9C0013434B6006E0214B5A68BB69DB431F497B
:101AAC0013404B603B685B6803F48033002B06D01B
:101ABC001A4B1A681949BB6913430B6006E0174BA4
:101ACC001A68BB69DB43154913400B607B6A013311
:101ADC007B623B681A687B6A22FA03F3002B7FF463
:101AEC00AFAE00BF00BF2C37BD4680BC704700BFF7
:101AFC0000003210000031100000221000002110F4
:101B0C0000001210000011100010024000000140F3
:101B1C0000080140000C014000100140000401408D
:101B2C0080B485B000AF78600B467B807B689A6888
:101B3C007B881340002B02D00123FB7301E00023B0
:101B4C00FB73FB7B18461437BD4680BC704780B4D2
:101B5C0083B000AF78600B467B8013467B707B783C
:101B6C00002B03D07A887B681A6103E07B881A0407
:101B7C007B681A6100BF0C37BD4680BC704780B4CF
:101B8C0085B000AF78600B467B807B68DB68FB60C0
:101B9C007A88FB6813401A04FB68D9437B880B4096
:101BAC001A437B681A6100BF1437BD4680BC70476E
:101BBC0080B586B000AF78607B68002B01D1012323
:101BCC006CE27B681B6803F00103002B00F087803C
:101BDC00924B5B6803F00C03042B0CD08F4B5B68AF
:101BEC0003F00C03082B12D18C4B5B6803F480338D
:101BFC00B3F5803F0BD1894B1B6803F40033002BEA
:101C0C006CD07B685B68002B68D1012346E27B6853
:101C1C005B68B3F5803F06D1804B1B687F4A43F469
:101C2C00803313602EE07B685B68002B0CD17B4B00
:101C3C001B687A4A23F480331360784B1B68774A0D
:101C4C0023F4802313601DE07B685B68B3F5A02F41
:101C5C000CD1724B1B68714A43F4802313606F4B99
:101C6C001B686E4A43F4803313600BE06B4B1B68AC
:101C7C006A4A23F480331360684B1B68674A23F469
:101C8C00802313607B685B68002B13D0FFF7B6FCD6
:101C9C00386108E0FFF7B2FC02463B69D31A642BAB
:101CAC0001D90323FAE15D4B1B6803F40033002BCD
:101CBC00F0D014E0FFF7A2FC386108E0FFF79EFCBF
:101CCC0002463B69D31A642B01D90323E6E1534B3B
:101CDC001B6803F40033002BF0D100E000BF7B68DD
:101CEC001B6803F00203002B63D04C4B5B6803F0C2
:101CFC000C03002B0BD0494B5B6803F00C03082B37
:101D0C001CD1464B5B6803F48033002B16D1434B3C
:101D1C001B6803F00203002B05D07B681B69012BA9
:101D2C0001D00123BAE13D4B1B6823F0F8027B681C
:101D3C005B69DB00394913430B603AE07B681B6934
:101D4C00002B20D0364B01221A60FFF757FC38616C
:101D5C0008E0FFF753FC02463B69D31A022B01D96A
:101D6C0003239BE12D4B1B6803F00203002BF0D0E7
:101D7C002A4B1B6823F0F8027B685B69DB00274960
:101D8C0013430B6015E0264B00221A60FFF736FC5C
:101D9C00386108E0FFF732FC02463B69D31A022B8C
:101DAC0001D903237AE11D4B1B6803F00203002BBE
:101DBC00F0D17B681B6803F00803002B3AD07B68DA
:101DCC009B69002B19D0174B01221A60FFF716FCE8
:101DDC00386108E0FFF712FC02463B69D31A022B6C
:101DEC0001D903235AE10D4B5B6A03F00203002B6C
:101DFC00F0D0012000F09AFA1CE00A4B00221A6085
:101E0C00FFF7FCFB38610FE0FFF7F8FB02463B697C
:101E1C00D31A022B08D9032340E100BF0010024063
:101E2C0000004242800442429E4B5B6A03F0020374
:101E3C00002BE9D17B681B6803F00403002B00F036
:101E4C00A6800023FB75974BDB6903F08053002BB6
:101E5C000DD1944BDB69934A43F08053D361914B82
:101E6C00DB6903F08053BB60BB680123FB758E4BB1
:101E7C001B6803F48073002B18D18B4B1B688A4AA8
:101E8C0043F480731360FFF7B9FB386108E0FFF788
:101E9C00B5FB02463B69D31A642B01D90323FDE041
:101EAC00814B1B6803F48073002BF0D07B68DB68DC
:101EBC00012B06D17B4B1B6A7A4A43F00103136258
:101ECC002DE07B68DB68002B0CD1764B1B6A754AC6
:101EDC0023F001031362734B1B6A724A23F0040351
:101EEC0013621CE07B68DB68052B0CD16D4B1B6A05
:101EFC006C4A43F0040313626A4B1B6A694A43F051
:101F0C00010313620BE0674B1B6A664A23F0010363
:101F1C001362644B1B6A634A23F0040313627B68ED
:101F2C00DB68002B15D0FFF769FB38610AE0FFF77F
:101F3C0065FB02463B69D31A41F28832934201D9C0
:101F4C000323ABE0574B1B6A03F00203002BEED0CC
:101F5C0014E0FFF753FB38610AE0FFF74FFB024632
:101F6C003B69D31A41F28832934201D9032395E09D
:101F7C004C4B1B6A03F00203002BEED1FB7D012BB3
:101F8C0005D1484BDB69474A23F08053D3617B680A
:101F9C00DB69002B00F08180424B5B6803F00C0383
:101FAC00082B61D07B68DB69022B46D13F4B0022AA
:101FBC001A60FFF723FB386108E0FFF71FFB0246AE
:101FCC003B69D31A022B01D9032367E0354B1B68FD
:101FDC0003F00073002BF0D17B681B6AB3F5803FD4
:101FEC0008D1304B5B6823F400327B689B682D4929
:101FFC0013434B602B4B5B6823F474127B68196A98
:10200C007B685B6A0B43274913434B60274B0122C8
:10201C001A60FFF7F3FA386108E0FFF7EFFA0246AF
:10202C003B69D31A022B01D9032337E01D4B1B68E4
:10203C0003F00073002BF0D02FE01C4B00221A6031
:10204C00FFF7DCFA386108E0FFF7D8FA02463B6983
:10205C00D31A022B01D9032320E0124B1B6803F087
:10206C000073002BF0D118E07B68DB69012B01D1E8
:10207C00012313E00B4B5B68FB60FB6803F48032BD
:10208C007B681B6A9A4206D1FB6803F470127B686A
:10209C005B6A9A4201D0012300E0002318461837EE
:1020AC00BD4680BD001002400070004060004242FE
:1020BC0080B584B000AF786039607B68002B01D1AB
:1020CC000123D0E06A4B1B6803F007033A689A427D
:1020DC0010D9674B1B6823F0070265493B68134313
:1020EC000B60634B1B6803F007033A689A4201D0FC
:1020FC000123B8E07B681B6803F00203002B20D09F
:10210C007B681B6803F00403002B05D0594B5B68FC
:10211C00584A43F4E06353607B681B6803F0080380
:10212C00002B05D0534B5B68524A43F46053536009
:10213C00504B5B6823F0F0027B689B684D4913435E
:10214C004B607B681B6803F00103002B40D07B685D
:10215C005B68012B07D1474B1B6803F40033002B42
:10216C0015D101237FE07B685B68022B07D1414BC3
:10217C001B6803F00073002B09D1012373E03D4B66
:10218C001B6803F00203002B01D101236BE0394BD8
:10219C005B6823F003027B685B68364913434B6032
:1021AC00FFF72CFAF8600AE0FFF728FA0246FB6802
:1021BC00D31A41F28832934201D9032353E02D4BB9
:1021CC005B6803F00C027B685B689B009A42EBD166
:1021DC00274B1B6803F007033A689A4210D2244B32
:1021EC001B6823F0070222493B6813430B60204B0A
:1021FC001B6803F007033A689A4201D0012332E0CE
:10220C007B681B6803F00403002B08D0194B5B6838
:10221C0023F4E0627B68DB68164913434B607B68F0
:10222C001B6803F00803002B09D0124B5B6823F4E6
:10223C0060527B681B69DB000E4913434B6000F056
:10224C0021F802460B4B5B681B0903F00F030A498C
:10225C00CB5C22FA03F3094A1360094B1B6818463E
:10226C00FFF78AF9002318461037BD4680BD00BF22
:10227C000020024000100240A82B0008680000203B
:10228C006C00002080B487B000AF0023FB600023FB
:10229C00BB6000237B6100237B6000233B611E4BF2
:1022AC005B68FB60FB6803F00C03042B02D0082B6B
:1022BC0003D027E0194B3B6127E0FB689B0C03F034
:1022CC000F03174AD35C7B60FB6803F48033002B4D
:1022DC0010D0114B5B685B0C03F00103114AD35C0B
:1022EC00BB607B680D4A02FB03F2BB68B2FBF3F3E5
:1022FC007B6104E07B680C4A02FB03F37B617B6926
:10230C003B6102E0054B3B6100BF3B6918461C3743
:10231C00BD4680BC704700BF0010024000127A001E
:10232C00B82B0008C82B000800093D0080B485B00C
:10233C0000AF78600A4B1B680A4AA2FB03235B0AB6
:10234C007A6802FB03F3FB6000BFFB685A1EFA605D
:10235C00002BF9D100BF00BF1437BD4680BC7047BD
:10236C0068000020D34D621080B582B000AF786059
:10237C007B68002B01D1012341E07B6893F83D3051
:10238C00DBB2002B06D17B68002283F83C207868F6
:10239C00FEF790FF7B68022283F83D207B681A6869
:1023AC007B6804331946104600F056FA7B6801220C
:1023BC0083F846207B68012283F83E207B6801224B
:1023CC0083F83F207B68012283F840207B68012240
:1023DC0083F841207B68012283F842207B6801222C
:1023EC0083F843207B68012283F844207B68012218
:1023FC0083F845207B68012283F83D200023184692
:10240C000837BD4680BD000080B485B000AF786051
:10241C007B6893F83D30DBB2012B01D0012335E012
:10242C007B68022283F83D207B681B68DA687B6836
:10243C001B6842F00102DA607B681B68164A934203
:10244C0009D07B681B68B3F1804F04D07B681B6894
:10245C00124A934211D17B681B689B6803F00703F7
:10246C00FB60FB68062B10D07B681B681A687B68C6
:10247C001B6842F001021A6007E07B681B681A684F
:10248C007B681B6842F001021A600023184614375F
:10249C00BD4680BC704700BF002C014000040040CA
:1024AC0080B584B000AF78607B681B68DB68FB602C
:1024BC007B681B681B69BB60BB6803F00203002BC5
:1024CC0020D0FB6803F00203002B1BD07B681B6839
:1024DC006FF002021A617B6801221A777B681B6815
:1024EC009B6903F00303002B03D0786800F098F984
:1024FC0005E0786800F08BF9786800F09AF97B6851
:10250C0000221A77BB6803F00403002B20D0FB6871
:10251C0003F00403002B1BD07B681B686FF00402D4
:10252C001A617B6802221A777B681B689B6903F42B
:10253C004073002B03D0786800F072F905E07868DE
:10254C0000F065F9786800F074F97B6800221A775E
:10255C00BB6803F00803002B20D0FB6803F00803D2
:10256C00002B1BD07B681B686FF008021A617B681C
:10257C0004221A777B681B68DB6903F00303002BCA
:10258C0003D0786800F04CF905E0786800F03FF96A
:10259C00786800F04EF97B6800221A77BB6803F06C
:1025AC001003002B20D0FB6803F01003002B1BD072
:1025BC007B681B686FF010021A617B6808221A771F
:1025CC007B681B68DB6903F44073002B03D07868CD
:1025DC0000F026F905E0786800F019F9786800F049
:1025EC0028F97B6800221A77BB6803F00103002BE3
:1025FC000CD0FB6803F00103002B07D07B681B6831
:10260C006FF001021A617868FEF7A6FDBB6803F053
:10261C008003002B0CD0FB6803F08003002B07D049
:10262C007B681B686FF080021A61786800F06FFAA3
:10263C00BB6803F04003002B0CD0FB6803F0400395
:10264C00002B07D07B681B686FF040021A6178681A
:10265C0000F0F8F8BB6803F02003002B0CD0FB68EB
:10266C0003F02003002B07D07B681B686FF020025F
:10267C001A61786800F042FA00BF1037BD4680BD81
:10268C0080B584B000AF786039600023FB737B6841
:10269C0093F83C30012B01D10223B4E07B6801227A
:1026AC0083F83C207B68022283F83D207B681B6802
:1026BC009B68BB60BB6823F07703BB60BB6823F4EB
:1026CC007F43BB607B681B68BA689A603B681B6879
:1026DC00B3F5005F3ED0B3F5005F00F28780B3F531
:1026EC00805F00F08680B3F5805F7FD8702B1AD0A6
:1026FC00702B7BD8602B50D0602B77D8502B3CD0D4
:10270C00502B73D8402B58D0402B6FD8302B64D023
:10271C00302B6BD8202B60D0202B67D8002B5CD0B3
:10272C00102B5AD062E07B6818683B6899683B684C
:10273C005A683B68DB6800F06AF97B681B689B6829
:10274C00BB60BB6843F07703BB607B681B68BA68EF
:10275C009A604FE07B6818683B6899683B685A68D8
:10276C003B68DB6800F053F97B681B689A687B68F0
:10277C001B6842F480429A603CE07B6818683B68B6
:10278C0059683B68DB681A4600F0CAF87B681B681E
:10279C005021184600F021F92CE07B6818683B6842
:1027AC0059683B68DB681A4600F0E8F87B681B68E0
:1027BC006021184600F011F91CE07B6818683B6832
:1027CC0059683B68DB681A4600F0AAF87B681B68FE
:1027DC004021184600F001F90CE07B681A683B6850
:1027EC001B681946104600F0F8F803E00123FB7350
:1027FC0000E000BF7B68012283F83D207B6800224B
:10280C0083F83C20FB7B18461037BD4680BD80B456
:10281C0083B000AF786000BF0C37BD4680BC7047FA
:10282C0080B483B000AF786000BF0C37BD4680BC6D
:10283C00704780B483B000AF786000BF0C37BD46E2
:10284C0080BC704780B483B000AF786000BF0C3799
:10285C00BD4680BC7047000080B485B000AF786086
:10286C0039607B681B68FB607B682B4A934207D0FE
:10287C007B68B3F1804F03D07B68284A934208D120
:10288C00FB6823F07003FB603B685B68FA681343DA
:10289C00FB607B68204A934207D07B68B3F1804F82
:1028AC0003D07B681D4A934208D1FB6823F4407324
:1028BC00FB603B68DB68FA681343FB60FB6823F042
:1028CC0080023B685B691343FB607B68FA681A60A3
:1028DC003B689A687B68DA623B681A687B689A6224
:1028EC007B680D4A934203D13B681A697B681A6373
:1028FC007B6801225A617B681B6903F00103002B82
:10290C0005D07B681B6923F001027B681A6100BF4C
:10291C001437BD4680BC7047002C014000040040B9
:10292C0080B487B000AFF860B9607A60FB681B6A4E
:10293C007B61FB681B6A23F00102FB681A62FB686F
:10294C009B693B613B6923F0F0033B617B681B0196
:10295C003A6913433B617B6923F00A037B617A6913
:10296C00BB6813437B61FB683A699A61FB687A69BF
:10297C001A6200BF1C37BD4680BC704780B487B05C
:10298C0000AFF860B9607A60FB681B6A7B61FB681A
:10299C001B6A23F01002FB681A62FB689B693B619F
:1029AC003B6923F470433B617B681B033A69134317
:1029BC003B617B6923F0A0037B61BB681B017A69D7
:1029CC0013437B61FB683A699A61FB687A691A6206
:1029DC0000BF1C37BD4680BC704780B485B000AFCB
:1029EC00786039607B689B68FB60FB6823F0700340
:1029FC00FB603A68FB68134343F00703FB607B689A
:102A0C00FA689A6000BF1437BD4680BC704780B42A
:102A1C0087B000AFF860B9607A603B60FB689B6878
:102A2C007B617B6923F47F437B613B681A027B6883
:102A3C001A43BB6813437A6913437B61FB687A6959
:102A4C009A6000BF1C37BD4680BC704780B485B00F
:102A5C0000AF786039607B6893F83C30012B01D172
:102A6C00022341E07B68012283F83C207B68022230
:102A7C0083F83D207B681B685B68FB607B681B6888
:102A8C009B68BB60FB6823F07003FB603B681B68B2
:102A9C00FA681343FB607B681B68FA685A607B68B2
:102AAC001B68144A934209D07B681B68B3F1804FB2
:102ABC0004D07B681B68104A93420CD1BB6823F08E
:102ACC008003BB603B685B68BA681343BB607B6880
:102ADC001B68BA689A607B68012283F83D207B688A
:102AEC00002283F83C20002318461437BD4680BCD6
:102AFC00704700BF002C01400004004080B483B03C
:102B0C0000AF786000BF0C37BD4680BC704780B406
:102B1C0083B000AF786000BF0C37BD4680BC7047F7
:102B2C0070B500260C4D0D4C641BA410A64209D1A7
:102B3C0000F022F800260A4D0A4C641BA410A64291
:102B4C0005D170BD55F8043B98470136EEE755F8B2
:102B5C00043B98470136F2E7CC2B0008CC2B00083D
:102B6C00CC2B0008D02B000803460244934200D122
:102B7C00704703F8011BF9E7F8B500BFF8BC08BCB7
:102B8C009E467047F8B500BFF8BC08BC9E4670471F
:102B9C00FC60DAF266B6BEE0FEF600000000000053
:102BAC0000000000010203040607080902030405E3
:102BBC00060708090A0B0C0D0E0F1010010200007D
:042BCC0031010008CB
:042BD0000D010008EB
:102BD40001000000010000000100000001000000ED
:102BE40001000000010000000100000001000000DD
:102BF40001000000010000000100000001000000CD
:102C0400C8000000C8000000C80000000010014017
:102C1400001001400010014000200040008000002E
:102C24000500000002000000030000000500000091
:102C3400030000000200000000127A0010000000EF
:042C4400010000008B
:040000050800150DCD
:00000001FF
