:020000040800F2
:1000000000280020B91A00088D180008931800086D
:10001000991800089F180008A518000800000000A3
:10002000000000000000000000000000AB18000805
:10003000B718000800000000C3180008CF18000817
:10004000011B0008011B0008011B0008011B000820
:10005000011B0008011B0008011B0008011B000810
:10006000011B0008011B0008011B0008011B000800
:10007000011B0008011B0008011B0008011B0008F0
:10008000011B0008011B0008011B0008011B0008E0
:10009000011B0008011B0008011B0008011B0008D0
:1000A000011B0008011B0008011B0008011B0008C0
:1000B000DD180008011B000800000000011B0008FB
:1000C000011B00080000000000000000011B0008E8
:1000D00000000000011B0008011B000800000000D8
:1000E000011B0008011B0008011B000800000000A4
:1000F0000000000000000000000000000000000000
:0C01000000000000000000005FF808F1A3
:10010C0010B5054C237833B9044B13B10448AFF345
:10011C0000800123237010BD74000020000000003B
:10012C003031000808B5034B1BB103490348AFF34A
:10013C00008008BD0000000078000020303100086D
:10014C0080B483B000AF7860094A7B6852F82330E2
:10015C00012B06D1064A7B68002142F823100123AB
:10016C0000E0002318460C37BD4680BC704700BF2A
:10017C009000002080B483B000AF7860044A7B68A4
:10018C00012142F8231000BF0C37BD4680BC7047DC
:10019C009000002080B582B000AF00237B606DE042
:1001AC003A4A7B6852F8232039497B6841F823206E
:1001BC00384A7B6852F8232034497B6841F8232065
:1001CC00354A7B6852F8232034497B6831F8133068
:1001DC001946104601F07AFF034619462D4A7B68F2
:1001EC0042F823102A4A7B6852F8232027497B685F
:1001FC0051F823309A423ED1244A7B6852F823208E
:10020C0024497B6851F823309A4234D1244A7B68C4
:10021C0052F823201F497B6851F823309A4216D09C
:10022C001C4A7B6852F823201D497B6841F8232027
:10023C00184A7B6852F82330002B1CD17868FFF7E2
:10024C0099FF184A7B68C82142F8231013E0154A1D
:10025C007B6852F823305A1E12497B6841F82320E0
:10026C00104A7B6852F82330002B04D10C4A7B686F
:10027C00012142F823107B6801337B607B68022BE1
:10028C008EDD00BF00BF0837BD4680BD0C000020CE
:10029C0000000020180000203C0000204800002036
:1002AC00240000203000002080B500AFD24B1B682A
:1002BC00013B042B00F29D8101A252F823F000BFF8
:1002CC00E102000819030008D30300088D0400089C
:1002DC004705000801F00CFB00F0BEFDC64B0222E6
:1002EC001A60C64B1B684FF47A7202FB03F3194673
:1002FC00002001F005FA40F2BB11012001F000FAD8
:10030C004FF47A71022001F0FBF988E101F03EFB19
:10031C00BB4B1B68002B04D100F0ECFEB84B012248
:10032C001A60012001F00CFA0346012B06D100F0F3
:10033C00BDFE40F2BB11012001F0E2F9022001F0F8
:10034C00FFF90346012B06D100F0D4FE4FF47A716D
:10035C00022001F0D5F9002001F0F2F90346012B3F
:10036C000CD1A54B03221A60A64B1B684FF47A7272
:10037C0002FB03F31946002001F0C2F90020FFF73D
:10038C00DFFE0346012B40F043819B4B0C221A608D
:10039C004FF4FA71012001F0B3F94FF47A71022095
:1003AC0001F0AEF94FF4FA71032001F0A9F942F211
:1003BC001071042001F0A4F9934B04221A60934BA2
:1003CC0000221A6024E101F005FB8D4B1B68002B09
:1003DC0004D100F08FFE8A4B01221A60012001F03B
:1003EC00AFF90346012B06D100F060FE40F2BB11C1
:1003FC00012001F085F9022001F0A2F90346012B3E
:10040C0006D100F077FE4FF47A71022001F078F9F2
:10041C00002001F095F90346012B0CD1764B0422F8
:10042C001A60764B1B684FF47A7202FB03F3194681
:10043C00002001F065F90020FFF782FE0346012B36
:10044C0040F0E8806C4B0C221A604FF4FA710120DA
:10045C0001F056F94FF47A71022001F051F94FF482
:10046C00FA71032001F04CF942F21071052001F0F1
:10047C0047F9654B05221A60644B00221A60C9E0EB
:10048C0001F0CCFA5E4B1B68002B04D100F032FE5D
:10049C005B4B01221A60012001F052F90346012B3B
:1004AC0006D100F003FE40F2BB11012001F028F947
:1004BC00022001F045F90346012B06D100F01AFE8B
:1004CC004FF47A71022001F01BF9002001F038F989
:1004DC000346012B0CD1484B05221A60494B1B6873
:1004EC004FF47A7202FB03F31946002001F008F96D
:1004FC000020FFF725FE0346012B40F08D803E4B7C
:10050C000C221A604FF4FA71012001F0F9F84FF443
:10051C007A71022001F0F4F84FF4FA71032001F023
:10052C00EFF842F21071062001F0EAF8364B062281
:10053C001A60364B00221A606EE001F093FA304BD1
:10054C001B68002B04D100F0D5FD2D4B01221A6045
:10055C00012001F0F5F80346012B06D100F0A6FDB1
:10056C0040F2BB11012001F0CBF8022001F0E8F8B9
:10057C000346012B06D100F0BDFD4FF47A71022029
:10058C0001F0BEF8002001F0DBF80346012B0CD182
:10059C00194B02221A60194B1B684FF47A7202FB3A
:1005AC0003F31946002001F0ABF80020FFF7C8FD5B
:1005BC000346012B32D1104B0C221A6040F2BB11B6
:1005CC00012001F09DF84FF47A71022001F098F8A7
:1005DC004FF4FA71032001F093F842F210710720E6
:1005EC0001F08EF8084B07221A60084B00221A60A3
:1005FC0014E000BF13E000BFAC000020600000203E
:10060C009C00002064000020A0000020A40000201A
:10061C0000BF04E000BF02E000BF00E000BF00BF6D
:10062C0080BD00BF80B500AFA44B1B680E2B00F043
:10063C00A1810E2B00F3C0810C2B03D00D2B00F0ED
:10064C005381B9E19E4B1B68002B06D101F05CF97C
:10065C0000F07AFE9A4B01221A60012001F070F82A
:10066C000346012B06D100F021FD40F2BB11012005
:10067C0001F046F8022001F063F80346012B06D185
:10068C0000F062FE4FF47A71022001F039F8032079
:10069C0001F056F80346012B08D11221894801F0CC
:1006AC0044FD4FF4FA71032001F02AF8042001F004
:1006BC0047F80346012B23D1804B02221A60824B50
:1006CC001B680133804A1360804B00221A6040F291
:1006DC00BB11012001F014F84FF47A71022001F0E3
:1006EC000FF87B4B1B68013B794A1360764B1B68F8
:1006FC004FF47A7202FB03F31946002001F000F864
:10070C00052001F01DF80346012B30D16B4B032261
:10071C001A60704B1A68704B1B689A4205D06F4B6D
:10072C001B6801336D4A136005E06A4B01221A60A5
:10073C006A4B01221A60654B00221A6040F2BB1111
:10074C00012000F0DDFF4FF47A71022000F0D8FF99
:10075C005F4B1B68013B5E4A1360604B1B684FF498
:10076C007A7202FB03F31946002000F0C9FF062041
:10077C0000F0E6FF0346012B23D1504B04221A60F4
:10078C00514B1B680133504A1360514B1B68013BA2
:10079C004F4A13604D4B00221A6040F2BB110120EE
:1007AC0000F0AEFF4FF47A71022000F0A9FF464B27
:1007BC001B684FF47A7202FB03F31946002000F019
:1007CC009FFF072000F0BCFF0346012B30D13B4BB1
:1007DC0005221A603F4B1A683F4B1B689A4205D0A2
:1007EC003E4B1B6801333D4A136005E0394B012237
:1007FC001A603A4B01221A60354B1B68013B344A94
:10080C001360324B00221A6040F2BB11012000F041
:10081C0077FF4FF47A71022000F072FF2F4B1B68A8
:10082C004FF47A7202FB03F31946002000F068FFC4
:10083C000020FFF785FC0346012B19D11F4B0D221D
:10084C001A601F4B00221A6040F2BB11012000F00D
:10085C0057FF4FF47A71022000F052FF4FF4FA71F7
:10086C00032000F04DFF42F21071042000F048FF0D
:10087C000120FFF765FC0346012B1BD10F4B0F2208
:10088C001A6040F2BB11012000F03AFF4FF47A716C
:10089C00022000F035FF4FF4FA71032000F030FF16
:1008AC000F4B1B6842F21071184600F029FF0D4BDC
:1008BC0000221A600220FFF743FC82E0AC0000200B
:1008CC00A400002000080140580000209C000020DB
:1008DC00B0000020500000205C00002054000020DC
:1008EC00A0000020A8000020374B1B68002B06D16D
:1008FC0001F020F800F098FD334B01221A60012022
:10090C0000F01EFF0346012B06D100F0CFFB40F296
:10091C00BB11012000F0F4FE022000F011FF034691
:10092C00012B06D100F080FD4FF47A71022000F00B
:10093C00E7FE032000F004FF0346012B08D14421FD
:10094C00224801F0F2FB4FF4FA71032000F0D8FEBC
:10095C000020FFF7F5FB0346012B2FD11C4B0E2279
:10096C001A60194B00221A604FF4FA71032000F040
:10097C00C7FE23E0144B1B68002B04D100F0F0FFE2
:10098C00114B01221A60032000F0DAFE0346012B02
:10099C0008D188210D4801F0C8FB4FF4FA710320EF
:1009AC0000F0AEFE0020FFF7CBFB0346012B07D176
:1009BC00074B01221A6003E000BF02E000BF00E019
:1009CC0000BF00BF80BD00BFA40000200008014094
:1009DC00AC00002080B500AF844B1B68112B00F0DD
:1009EC00F981112B00F314820F2B03D0102B00F084
:1009FC0075810DE27E4B1B68002B06D100F0E8FCE4
:100A0C007B4B1B6801337A4A1360012000F098FE7F
:100A1C000346012B06D100F049FB4FF4C8710120AD
:100A2C0000F06EFE022000F08BFE0346012B06D177
:100A3C0000F08AFC4FF47A71022000F061FE032072
:100A4C0000F07EFE0346012B08D11221694801F00B
:100A5C006CFB4FF4FA71032000F052FE042000F0FE
:100A6C006FFE0346012B2DD1604B02221A60624BA4
:100A7C0000221A60614B1B680133604A1360604BA3
:100A8C001A685B4B1B68D31A5E4A1360584B0022E2
:100A9C001A605D4B1B68013B5B4A1360574B1B682C
:100AAC004FF47A7202FB03F31946002000F028FE83
:100ABC0040F2BB11012000F023FE4FF47A710220AA
:100ACC0000F01EFE052000F03BFE0346012B3AD140
:100ADC00464B03221A60484B00221A60494B1A6895
:100AEC004A4B1B689A420CD0494B1B680133484A4D
:100AFC001360434B1A683E4B1B68D31A414A136070
:100B0C0005E0404B01221A60414B01221A60384B20
:100B1C0000221A603C4B1B68013B3B4A13603C4B68
:100B2C001B684FF47A7202FB03F31946002000F0A5
:100B3C00E7FD40F2BB11012000F0E2FD4FF47A71A9
:100B4C00022000F0DDFD062000F0FAFD0346012B2B
:100B5C002DD1264B04221A60274B00221A60274BFA
:100B6C001B680133254A1360254B1A68204B1B6800
:100B7C00D31A244A13601E4B00221A60224B1B68A6
:100B8C00013B214A13601D4B1B684FF47A7202FB28
:100B9C0003F31946002000F0B3FD40F2BB11012015
:100BAC0000F0AEFD4FF47A71022000F0A9FD072091
:100BBC0000F0C6FD0346012B4ED10C4B05221A60EA
:100BCC000D4B00221A600F4B1A68104B1B689A428F
:100BDC0020D00F4B1B6801330D4A1360084B1A6869
:100BEC00034B1B68D31A074A136019E0AC000020B2
:100BFC00A8000020000801409C00002058000020A4
:100C0C00C000002050000020B00000205C0000203C
:100C1C0054000020824B01221A60824B01221A6080
:100C2C00814B00221A60814B1B68013B7F4A136089
:100C3C007C4B1B684FF47A7202FB03F319460020BD
:100C4C0000F05EFD40F2BB11012000F059FD4FF4A5
:100C5C007A71022000F054FD0020FFF771FA034670
:100C6C00012B19D1724B0D221A60724B00221A60A3
:100C7C004FF4C871012000F043FD4FF47A7102204B
:100C8C0000F03EFD4FF4FA71032000F039FD42F202
:100C9C001071042000F034FD0120FFF751FA0346D7
:100CAC00012B0DD1604B1B6801335F4A136000F0C0
:100CBC008FFB614B1B6842F21071184600F020FD4F
:100CCC000220FFF73DFA0346012B40F0A380584B5E
:100CDC0010221A60544B00221A609BE0574B1B6881
:100CEC004F4A13604E4B1A684E4B1B68D31A544A2A
:100CFC0013604B4B1A68524B1B68D31A494A13604A
:100D0C00474B1B684F4A13604D4B1B684E4A136090
:100D1C00444B1B684D4A1360434B1B68002B04D19A
:100D2C0000F012FB404B01221A60012000F008FD7C
:100D3C000346012B06D100F0B9F94FF4C87101201C
:100D4C0000F0DEFC022000F0FBFC0346012B06D178
:100D5C0000F0FAFA4FF47A71022000F0D1FC032073
:100D6C0000F0EEFC0346012B08D11221384801F0AB
:100D7C00DCF94FF4FA71032000F0C2FC0120FFF7FC
:100D8C00DFF90346012B1BD1294B0F221A60264B8E
:100D9C0000221A604FF4C871012000F0B1FC4FF42E
:100DAC007A71022000F0ACFC4FF4FA71032000F0D1
:100DBC00A7FC214B1B6842F21071184600F0A0FCF6
:100DCC000220FFF7BDF90346012B25D1184B112248
:100DDC001A6021E0164B02221A601E4B00221A6088
:100DEC00124B00221A60184B1B684FF47A7202FBEC
:100DFC0003F31946002000F083FC40F2BB110120E4
:100E0C0000F07EFC4FF47A71022000F079FC04E0D3
:100E1C0000BF02E000BF00E000BF00BF80BD00BF0C
:100E2C005000002054000020A8000020B00000203A
:100E3C00AC000020A4000020A0000020C000002076
:100E4C00580000205C00002060000020640000209E
:100E5C00000801409C00002080B500AF012240F248
:100E6C00FF71054801F049F901224FF4FE41034896
:100E7C0001F043F900BF80BD000C014000080140A7
:100E8C0080B586B000AF78603F4A07F10C0307CA03
:100E9C0003C31A8007F10C027B6813441B785BB206
:100EAC00DB43DBB2DB09DBB21A460121374801F028
:100EBC0024F907F10C027B6813441B7803F0400300
:100ECC00002B0CBF01230023DBB21A4602212F4852
:100EDC0001F013F907F10C027B6813441B7803F043
:100EEC002003002B0CBF01230023DBB21A46042184
:100EFC00264801F002F907F10C027B6813441B78B9
:100F0C0003F01003002B0CBF01230023DBB21A46A5
:100F1C0008211E4801F0F1F807F10C027B6813441C
:100F2C001B7803F00803002B0CBF01230023DBB25A
:100F3C001A461021154801F0E0F807F10C027B6805
:100F4C0013441B7803F00403002B0CBF0123002374
:100F5C00DBB21A4620210D4801F0CFF807F10C0244
:100F6C007B6813441B7803F00203002B0CBF012396
:100F7C000023DBB21A464021044801F0BEF800BF42
:100F8C001837BD4680BD00BF48310008000C014039
:100F9C0080B586B000AF7860424A07F10C0307CAEF
:100FAC0003C31A8007F10C027B6813441B785BB2F5
:100FBC00DB43DBB2DB09DBB21A464FF480713A48F3
:100FCC0001F09BF807F10C027B6813441B7803F0CB
:100FDC004003002B0CBF01230023DBB21A464FF455
:100FEC000071314801F089F807F10C027B68134459
:100FFC001B7803F02003002B0CBF01230023DBB272
:10100C001A464FF48061284801F077F807F10C027A
:10101C007B6813441B7803F01003002B0CBF0123D7
:10102C000023DBB21A464FF400611F4801F065F84B
:10103C0007F10C027B6813441B7803F00803002BA8
:10104C000CBF01230023DBB21A464FF48051164823
:10105C0001F053F807F10C027B6813441B7803F082
:10106C000403002B0CBF01230023DBB21A464FF400
:10107C0000510D4801F041F807F10C027B68134454
:10108C001B7803F00203002B0CBF01230023DBB2FF
:10109C001A464FF48041044801F02FF800BF18376E
:1010AC00BD4680BD483100080008014080B500AF46
:1010BC0001224FF480710E4801F01FF801224FF409
:1010CC0080610B4801F019F800228021084801F0DA
:1010DC0014F800224FF40071054801F00EF80020BE
:1010EC00FFF7CEFE0020FFF753FF00BF80BD00BF0F
:1010FC00000C014080B500AF8B4B1A688B4B1B6802
:10110C0013445A008A4B1B689A4202DC884B00221B
:10111C001A60874B1B680133854A1360844B1A682D
:10112C00814B1B689A4226DC00224FF48071814867
:10113C0000F0E3FF00224FF480617E4800F0DDFFF9
:10114C00012280217B4800F0D8FF01224FF400716E
:10115C00784800F0D2FF784B1B685A1E76490A601B
:10116C001846FFF78DFE754B1B685A1E73490A60B3
:10117C001846FFF70DFF6E4B1A686B4B1B689A42B3
:10118C0044DD694B1A68694B1B681A44684B1B6831
:10119C009A423BDB00224FF48071664800F0ADFFB1
:1011AC0000224FF48061634800F0A7FF01228021E8
:1011BC00604800F0A2FF01224FF400715D4800F07E
:1011CC009CFF5D4B1B685A1E5B490A601846FFF773
:1011DC0057FE5B4B1B685A1E59490A601846FFF7AD
:1011EC00D7FE514B1A68514B1B681A44504B1B6865
:1011FC009A420BDC534B1B684F4A13604B4B1B68DA
:10120C004F4A1360484B1B684C4A1360464B1A6894
:10121C00464B1B681A44464B1B689A4230DA424BC9
:10122C001B685A00414B1B681A44414B1B689A427D
:10123C0026DB00224FF480713E4800F05EFF002256
:10124C004FF480613B4800F058FF0122802139485F
:10125C0000F053FF01224FF40071364800F04DFFAF
:10126C00354B1B685A1E34490A601846FFF790FE2E
:10127C00324B1B685A1E31490A601846FFF700FEB4
:10128C00294B1B685A00294B1B681A44284B1B68B6
:10129C009A4246DA244B1A68244B1B6813445A00B2
:1012AC00234B1B689A423CDB00224FF4807121488F
:1012BC0000F023FF00224FF480611E4800F01DFF58
:1012CC00012280211B4800F018FF01224FF400710D
:1012DC00184800F012FF184B1B685A1E16490A607A
:1012EC001846FFF755FE164B1B685A1E14490A6028
:1012FC001846FFF7C5FD0C4B1A680C4B1B681344C2
:10130C005A000B4B1B689A420BDC0E4B1B680A4AAB
:10131C001360064B1B680A4A1360034B1B68074A91
:10132C00136000BF80BD00BF60000020640000207F
:10133C00B0000020000C014050000020580000209C
:10134C00540000205C00002080B500AF00224FF458
:10135C0080711B4800F0D1FE00224FF480611848C8
:10136C0000F0CBFE01228021154800F0C6FE0122C0
:10137C004FF40071124800F0C0FE124B1B68002B9A
:10138C000BD1114B1B6801330F4A13600E4B1B68BA
:10139C000E4A13600B4B01221A600C4B1B685A1C33
:1013AC000A490A601846FFF76BFD0220FFF7F0FDB3
:1013BC00064B1B68013B054A136000BF80BD00BF94
:1013CC00000C0140BC00002050000020C000002098
:1013DC0080B500AF00224FF48071114800F08DFEF3
:1013EC0000224FF480610E4800F087FE012280211C
:1013FC000B4800F082FE01224FF40071084800F007
:10140C007CFE084B1B680133064A1360054B1B68B6
:10141C001846FFF735FD0220FFF7BAFD00BF80BD6F
:10142C00000C0140C000002080B500AF00224FF43A
:10143C0080711B4800F061FE00224FF48061184857
:10144C0000F05BFE01228021154800F056FE0122BF
:10145C004FF40071124800F050FE124B1B68002B29
:10146C000BD1114B1B6801330F4A13600E4B1B68D9
:10147C000E4A13600B4B01221A600C4B1B685A1C52
:10148C000A490A601846FFF7FBFC0320FFF780FDB2
:10149C00064B1B68013B054A136000BF80BD00BFB3
:1014AC00000C0140B800002058000020B4000020BF
:1014BC0080B500AF00F020FB00F016F800F09CF8AF
:1014CC0000F04EF8064801F075FA064B01221A603E
:1014DC00FEF7EAFEFFF7A6F8FFF77CFAF8E700BF85
:1014EC00C4000020AC00002080B590B000AF07F124
:1014FC00180328220021184601F00CFE3B1D002287
:10150C001A605A609A60DA601A610223BB61012387
:10151C00BB621023FB6200237B6307F118031846A0
:10152C0000F01CFE0346002B01D000F0E3F80F2363
:10153C007B600023BB600023FB6000233B61002326
:10154C007B613B1D0021184601F088F80346002BF7
:10155C0001D000F0CFF800BF4037BD4680BD000081
:10156C0080B586B000AF07F1080300221A605A60FC
:10157C009A60DA603B4600221A605A601D4B4FF0AD
:10158C0080421A601B4B41F63F725A60194B002285
:10159C009A60184B0922DA60164B00221A61154B1F
:1015AC0000229A61134801F0B5F90346002B01D0D3
:1015BC0000F0A0F84FF48053BB6007F10803194604
:1015CC000C4801F033FB0346002B01D000F092F8DD
:1015DC0000233B6000237B603B461946054801F025
:1015EC000BFD0346002B01D000F084F800BF183728
:1015FC00BD4680BDC400002080B588B000AF07F1A7
:10160C00100300221A605A609A60DA602F4B9B69B3
:10161C002E4A43F0100393612C4B9B6903F010038B
:10162C00FB60FB68294B9B69284A43F004039361D8
:10163C00264B9B6903F00403BB60BB68234B9B697F
:10164C00224A43F008039361204B9B6903F0080383
:10165C007B607B68002247F6FE711D4800F04DFD53
:10166C00002240F2FF711B4800F047FD4FF460432D
:10167C003B6100237B610123BB6107F11003194619
:10168C00154800F0A9FB47F6FE733B6101237B6113
:10169C000023BB610223FB6107F1100319460C48C0
:1016AC0000F09AFB40F2FF733B6101237B61002346
:1016BC00BB610223FB6107F110031946054800F0DA
:1016CC008BFB00BF2037BD4680BD00BF0010024021
:1016DC0000080140000C01400010014080B582B0B0
:1016EC0000AF786000F046F8FEF754FD00BF0837F5
:1016FC00BD4680BD80B400AF72B600BFFEE70000EF
:10170C0080B483B000AF786039603B68094A82FBD3
:10171C0003129210DB17D21A07497B6841F8232079
:10172C00064A7B68002142F8231000BF0C37BD46E7
:10173C0080BC7047676666660C010020340100208F
:10174C0080B483B000AF7860094A7B6852F82330CC
:10175C00012B06D1064A7B68002142F82310012395
:10176C0000E0002318460C37BD4680BC704700BF14
:10177C003401002080B483B000AF00237B601CE0F8
:10178C00124A7B6852F82330002B13DD0F4A7B681A
:10179C0052F823305A1E0D497B6841F823200B4A1E
:1017AC007B6852F82330002B04DC094A7B6801214A
:1017BC0042F823107B6801337B607B68092BDFDDEB
:1017CC0000BF00BF0C37BD4680BC70470C01002029
:1017DC003401002080B485B000AF154B9B69144ACE
:1017EC0043F001039361124B9B6903F00103BB604F
:1017FC00BB680F4BDB690E4A43F08053D3610C4B33
:10180C00DB6903F080537B607B680A4B5B68FB6091
:10181C00FB6823F0E063FB60FB6843F08063FB60D4
:10182C00044AFB68536000BF1437BD4680BC704748
:10183C00001002400000014080B584B000AF786019
:10184C007B681B68B3F1804F13D10C4BDB690B4ADF
:10185C0043F00103D361094BDB6903F00103FB6027
:10186C00FB68002200211C2000F07FFA1C2000F0F5
:10187C0098FA00BF1037BD4680BD00BF0010024073
:10188C0080B400AFFEE780B400AFFEE780B400AFD9
:10189C00FEE780B400AFFEE780B400AFFEE780B493
:1018AC0000AF00BFBD4680BC704780B400AF00BF26
:1018BC00BD4680BC704780B400AF00BFBD4680BC45
:1018CC00704780B500AF00F05DF900BF80BD00002F
:1018DC0080B500AF024801F0B9F800BF80BD00BF71
:1018EC00C400002080B400AF00BFBD4680BC704770
:1018FC0080B500AF0122FE21024800F0FEFB00BFC4
:10190C0080BD00BF0008014080B500AF002212214D
:10191C00074800F0F2FB01224421054800F0EDFBE2
:10192C0001228821024800F0E8FB00BF80BD00BF07
:10193C000008014080B500AF00224421074800F0A8
:10194C00DCFB01221221054800F0D7FB0122882183
:10195C00024800F0D2FB00BF80BD00BF0008014070
:10196C0080B500AF00228821074800F0C6FB012299
:10197C004421054800F0C1FB01221221024800F06D
:10198C00BCFB00BF80BD00BF0008014080B500AFAC
:10199C00012210210E4800F0B0FB012204210C485A
:1019AC0000F0ABFB01220821094800F0A6FB012244
:1019BC008021074800F0A1FB00220221044800F01E
:1019CC009CFB00224021024800F097FB00BF80BD29
:1019DC000008014080B500AF012210210E4800F034
:1019EC008CFB012204210C4800F087FB012208210A
:1019FC00094800F082FB01224021074800F07DFBE2
:101A0C0000220221044800F078FB002280210248C9
:101A1C0000F073FB00BF80BD0008014080B500AF33
:101A2C00012202210E4800F068FB012280210C48A3
:101A3C0000F063FB01220821094800F05EFB012243
:101A4C004021074800F059FB00220421044800F013
:101A5C0054FB00221021024800F04FFB00BF80BD58
:101A6C000008014080B500AF012202210E4800F0B1
:101A7C0044FB012280210C4800F03FFB0122042191
:101A8C00094800F03AFB01224021074800F035FBE1
:101A9C0000220821044800F030FB002210210248EB
:101AAC0000F02BFB00BF80BD00080140FFF71AFFC0
:101ABC000B480C490C4A002302E0D458C4500433A0
:101ACC00C4188C42F9D3094A094C002301E0136075
:101ADC000432A242FBD301F0F9FAFFF7E9FC70479C
:101AEC0000000020740000208031000874000020E9
:101AFC0060010020FEE7000080B500AF084B1B68BA
:101B0C00074A43F010031360032000F023F90F2061
:101B1C0000F008F8FFF75EFE0023184680BD00BFFA
:101B2C000020024080B582B000AF7860124B1A687A
:101B3C00124B1B7819464FF47A73B3FBF1F3B2FBDB
:101B4C00F3F3184600F03BF90346002B01D00123B8
:101B5C000EE07B680F2B0AD8002279684FF0FF301B
:101B6C0000F003F9064A7B681360002300E00123B0
:101B7C0018460837BD4680BD680000207000002064
:101B8C006C00002080B400AF054B1B781A46054B47
:101B9C001B681344034A136000BFBD4680BC7047EA
:101BAC00700000205C01002080B400AF024B1B6869
:101BBC001846BD4680BC70475C01002080B485B0DF
:101BCC0000AF78607B6803F00703FB600C4BDB68AD
:101BDC00BB60BA684FF6FF031340BB60FB681A0288
:101BEC00BB68134343F0BF6343F40033BB60044A48
:101BFC00BB68D36000BF1437BD4680BC704700BFC4
:101C0C0000ED00E080B400AF044BDB681B0A03F06E
:101C1C0007031846BD4680BC704700BF00ED00E0CE
:101C2C0080B483B000AF0346FB7197F90730002BEB
:101C3C000BDBFB7903F01F02064997F907305B09B0
:101C4C00012000FA02F241F8232000BF0C37BD46F8
:101C5C0080BC704700E100E080B483B000AF034665
:101C6C003960FB7197F90730002B0ADB3B68DAB25D
:101C7C000C4997F907301201D2B20B4483F80023B8
:101C8C000AE03B68DAB20849FB7903F00F03043B26
:101C9C001201D2B20B441A7600BF0C37BD4680BC81
:101CAC00704700BF00E100E000ED00E080B489B0B7
:101CBC0000AFF860B9607A60FB6803F00703FB6162
:101CCC00FB69C3F10703042B28BF0423BB61FB6929
:101CDC000433062B02D9FB69033B00E000237B6134
:101CEC004FF0FF32BB6902FA03F3DA43BB681A40C8
:101CFC007B699A404FF0FF317B6901FA03F3D943BA
:101D0C007B680B40134318462437BD4680BC704794
:101D1C0080B582B000AF78607B68013BB3F1807F07
:101D2C0001D301230FE00A4A7B68013B53600F216A
:101D3C004FF0FF30FFF790FF054B00229A60044BE9
:101D4C0007221A60002318460837BD4680BD00BF25
:101D5C0010E000E080B582B000AF78607868FFF7E3
:101D6C002DFF00BF0837BD4680BD80B586B000AFE3
:101D7C000346B9607A60FB7300237B61FFF742FF77
:101D8C0078617A68B9687869FFF790FF024697F92D
:101D9C000F3011461846FFF75FFF00BF1837BD46DE
:101DAC0080BD80B582B000AF0346FB7197F9073058
:101DBC001846FFF735FF00BF0837BD4680BD80B51C
:101DCC0082B000AF78607868FFF7A2FF0346184630
:101DDC000837BD4680BD000080B48BB000AF786082
:101DEC00396000237B6200233B6248E101227B6A5D
:101DFC0002FA03F3FB613B681B68FA691340BB6191
:101E0C00BA69FB699A4240F037813B685B68A34A28
:101E1C0093425ED0A14A934275D8A14A934258D0BE
:101E2C009F4A93426FD89F4A934252D09D4A934205
:101E3C0069D89D4A93424CD09B4A934263D89B4AA3
:101E4C00934246D0994A93425DD8122B2AD8122B32
:101E5C0059D801A252F823F0DF1E0008B91E000861
:101E6C00CB1E00080D1F0008131F0008131F0008CD
:101E7C00131F0008131F0008131F0008131F00086E
:101E8C00131F0008131F0008131F0008131F00085E
:101E9C00131F0008131F0008131F0008C11E0008A1
:101EAC00D51E0008824A934213D02CE03B68DB68B5
:101EBC003B6229E03B68DB6804333B6224E03B680F
:101ECC00DB6808333B621FE03B68DB680C333B622A
:101EDC001AE03B689B68002B02D104233B6213E0A1
:101EEC003B689B68012B05D108233B627B68FA6930
:101EFC001A6109E008233B627B68FA695A6103E0C6
:101F0C0000233B6200E000BFBB69FF2B01D87B685C
:101F1C0001E07B6804337B61BB69FF2B02D87B6AD1
:101F2C009B0002E07B6A083B9B003B617B691A6863
:101F3C000F213B6901FA03F3DB431A40396A3B6911
:101F4C0001FA03F31A437B691A603B685B6803F080
:101F5C008053002B00F09080564B9B69554A43F000
:101F6C0001039361534B9B6903F00103BB60BB6896
:101F7C00514A7B6A9B08023352F82330FB607B6A20
:101F8C0003F003039B000F2202FA03F3DB43FA680E
:101F9C001340FB607B68494A93420DD07B68484AEA
:101FAC00934207D07B68474A934201D1022304E055
:101FBC00032302E0012300E000237A6A02F003020B
:101FCC0092009340FA681343FB603B497B6A9B0881
:101FDC000233FA6841F823203B685B6803F48013F2
:101FEC00002B06D0384B9A683749BB6913438B607A
:101FFC0006E0354B9A68BB69DB43334913408B6071
:10200C003B685B6803F40013002B06D02E4BDA6898
:10201C002D49BB691343CB6006E02B4BDA68BB69D7
:10202C00DB4329491340CB603B685B6803F4003306
:10203C00002B06D0244B5A682349BB6913434B60D1
:10204C0006E0214B5A68BB69DB431F4913404B60C8
:10205C003B685B6803F48033002B06D01A4B1A687C
:10206C001949BB6913430B6006E0174B1A68BB692F
:10207C00DB43154913400B607B6A01337B623B6881
:10208C001A687B6A22FA03F3002B7FF4AFAE00BF11
:10209C0000BF2C37BD4680BC704700BF000032101B
:1020AC00000031100000221000002110000012105E
:1020BC000000111000100240000001400008014017
:1020CC00000C0140001001400004014080B485B0B8
:1020DC0000AF78600B467B807B689A687B881340E6
:1020EC00002B02D00123FB7301E00023FB73FB7B6D
:1020FC0018461437BD4680BC704780B483B000AF1F
:10210C0078600B467B8013467B707B78002B03D06A
:10211C007A887B681A6103E07B881A047B681A61F1
:10212C0000BF0C37BD4680BC704780B485B000AF93
:10213C0078600B467B807B68DB68FB607A88FB6889
:10214C0013401A04FB68D9437B880B401A437B6805
:10215C001A6100BF1437BD4680BC704780B586B08D
:10216C0000AF78607B68002B01D101236CE27B68A7
:10217C001B6803F00103002B00F08780924B5B6817
:10218C0003F00C03042B0CD08F4B5B6803F00C0397
:10219C00082B12D18C4B5B6803F48033B3F5803F72
:1021AC000BD1894B1B6803F40033002B6CD07B687C
:1021BC005B68002B68D1012346E27B685B68B3F552
:1021CC00803F06D1804B1B687F4A43F480331360F9
:1021DC002EE07B685B68002B0CD17B4B1B687A4A2A
:1021EC0023F480331360784B1B68774A23F48023E5
:1021FC0013601DE07B685B68B3F5A02F0CD1724BAC
:10220C001B68714A43F4802313606F4B1B686E4A42
:10221C0043F4803313600BE06B4B1B686A4A23F466
:10222C0080331360684B1B68674A23F48023136068
:10223C007B685B68002B13D0FFF7B6FC386108E0B5
:10224C00FFF7B2FC02463B69D31A642B01D9032376
:10225C00FAE15D4B1B6803F40033002BF0D014E063
:10226C00FFF7A2FC386108E0FFF79EFC02463B69D1
:10227C00D31A642B01D90323E6E1534B1B6803F4F7
:10228C000033002BF0D100E000BF7B681B6803F02B
:10229C000203002B63D04C4B5B6803F00C03002B48
:1022AC000BD0494B5B6803F00C03082B1CD1464B3D
:1022BC005B6803F48033002B16D1434B1B6803F08F
:1022CC000203002B05D07B681B69012B01D0012375
:1022DC00BAE13D4B1B6823F0F8027B685B69DB00BD
:1022EC00394913430B603AE07B681B69002B20D003
:1022FC00364B01221A60FFF757FC386108E0FFF7F4
:10230C0053FC02463B69D31A022B01D903239BE1F0
:10231C002D4B1B6803F00203002BF0D02A4B1B68DB
:10232C0023F0F8027B685B69DB00274913430B60E1
:10233C0015E0264B00221A60FFF736FC386108E0E6
:10234C00FFF732FC02463B69D31A022B01D9032357
:10235C007AE11D4B1B6803F00203002BF0D17B6864
:10236C001B6803F00803002B3AD07B689B69002B99
:10237C0019D0174B01221A60FFF716FC386108E0E0
:10238C00FFF712FC02463B69D31A022B01D9032337
:10239C005AE10D4B5B6A03F00203002BF0D00120D5
:1023AC0000F09AFA1CE00A4B00221A60FFF7FCFBC3
:1023BC0038610FE0FFF7F8FB02463B69D31A022B9A
:1023CC0008D9032340E100BF001002400000424244
:1023DC00800442429E4B5B6A03F00203002BE9D15E
:1023EC007B681B6803F00403002B00F0A68000231D
:1023FC00FB75974BDB6903F08053002B0DD1944B8D
:10240C00DB69934A43F08053D361914BDB6903F052
:10241C008053BB60BB680123FB758E4B1B6803F4B8
:10242C008073002B18D18B4B1B688A4A43F4807342
:10243C001360FFF7B9FB386108E0FFF7B5FB024604
:10244C003B69D31A642B01D90323FDE0814B1B6834
:10245C0003F48073002BF0D07B68DB68012B06D172
:10246C007B4B1B6A7A4A43F0010313622DE07B68B5
:10247C00DB68002B0CD1764B1B6A754A23F00103E9
:10248C001362734B1B6A724A23F0040313621CE041
:10249C007B68DB68052B0CD16D4B1B6A6C4A43F0D7
:1024AC00040313626A4B1B6A694A43F0010313620B
:1024BC000BE0674B1B6A664A23F001031362644B03
:1024CC001B6A634A23F0040313627B68DB68002BEE
:1024DC0015D0FFF769FB38610AE0FFF765FB024690
:1024EC003B69D31A41F28832934201D90323ABE002
:1024FC00574B1B6A03F00203002BEED014E0FFF7DE
:10250C0053FB38610AE0FFF74FFB02463B69D31AD5
:10251C0041F28832934201D9032395E04C4B1B6A5C
:10252C0003F00203002BEED1FB7D012B05D1484BB0
:10253C00DB69474A23F08053D3617B68DB69002B4E
:10254C0000F08180424B5B6803F00C03082B61D0D8
:10255C007B68DB69022B46D13F4B00221A60FFF7E8
:10256C0023FB386108E0FFF71FFB02463B69D31AD7
:10257C00022B01D9032367E0354B1B6803F0007372
:10258C00002BF0D17B681B6AB3F5803F08D1304B30
:10259C005B6823F400327B689B682D4913434B60C6
:1025AC002B4B5B6823F474127B68196A7B685B6A3B
:1025BC000B43274913434B60274B01221A60FFF74B
:1025CC00F3FA386108E0FFF7EFFA02463B69D31AD9
:1025DC00022B01D9032337E01D4B1B6803F000735A
:1025EC00002BF0D02FE01C4B00221A60FFF7DCFA16
:1025FC00386108E0FFF7D8FA02463B69D31A022B80
:10260C0001D9032320E0124B1B6803F00073002B4D
:10261C00F0D118E07B68DB69012B01D1012313E0B9
:10262C000B4B5B68FB60FB6803F480327B681B6AB6
:10263C009A4206D1FB6803F470127B685B6A9A427B
:10264C0001D0012300E0002318461837BD4680BD99
:10265C0000100240007000406000424280B584B01F
:10266C0000AF786039607B68002B01D10123D0E08A
:10267C006A4B1B6803F007033A689A4210D9674B00
:10268C001B6823F0070265493B6813430B60634BDF
:10269C001B6803F007033A689A4201D00123B8E0A3
:1026AC007B681B6803F00203002B20D07B681B683F
:1026BC0003F00403002B05D0594B5B68584A43F4D4
:1026CC00E06353607B681B6803F00803002B05D0A4
:1026DC00534B5B68524A43F460535360504B5B68F6
:1026EC0023F0F0027B689B684D4913434B607B6879
:1026FC001B6803F00103002B40D07B685B68012B47
:10270C0007D1474B1B6803F40033002B15D1012371
:10271C007FE07B685B68022B07D1414B1B6803F0A1
:10272C000073002B09D1012373E03D4B1B6803F0B0
:10273C000203002B01D101236BE0394B5B6823F0C2
:10274C0003027B685B68364913434B60FFF72CFA36
:10275C00F8600AE0FFF728FA0246FB68D31A41F248
:10276C008832934201D9032353E02D4B5B6803F06D
:10277C000C027B685B689B009A42EBD1274B1B6871
:10278C0003F007033A689A4210D2244B1B6823F0DB
:10279C00070222493B6813430B60204B1B6803F074
:1027AC0007033A689A4201D0012332E07B681B6828
:1027BC0003F00403002B08D0194B5B6823F4E06290
:1027CC007B68DB68164913434B607B681B6803F01E
:1027DC000803002B09D0124B5B6823F460527B6812
:1027EC001B69DB000E4913434B6000F021F80246D5
:1027FC000B4B5B681B0903F00F030A49CB5C22FAF5
:10280C0003F3094A1360094B1B681846FFF78AF952
:10281C00002318461037BD4680BD00BF0020024083
:10282C000010024054310008680000206C000020A9
:10283C0080B487B000AF0023FB600023BB60002393
:10284C007B6100237B6000233B611E4B5B68FB605C
:10285C00FB6803F00C03042B02D0082B03D027E0F9
:10286C00194B3B6127E0FB689B0C03F00F03174AE5
:10287C00D35C7B60FB6803F48033002B10D0114BCE
:10288C005B685B0C03F00103114AD35CBB607B6893
:10289C000D4A02FB03F2BB68B2FBF3F37B6104E06D
:1028AC007B680C4A02FB03F37B617B693B6102E0B2
:1028BC00054B3B6100BF3B6918461C37BD4680BCCD
:1028CC00704700BF0010024000127A00643100080B
:1028DC007431000800093D0080B485B000AF786009
:1028EC000A4B1B680A4AA2FB03235B0A7A6802FBA9
:1028FC0003F3FB6000BFFB685A1EFA60002BF9D192
:10290C0000BF00BF1437BD4680BC70476800002074
:10291C00D34D621080B582B000AF78607B68002B1D
:10292C0001D1012341E07B6893F83D30DBB2002BF1
:10293C0006D17B68002283F83C207868FEF77CFF88
:10294C007B68022283F83D207B681A687B6804331D
:10295C001946104600F056FA7B68012283F846208F
:10296C007B68012283F83E207B68012283F83F209C
:10297C007B68012283F840207B68012283F8412088
:10298C007B68012283F842207B68012283F8432074
:10299C007B68012283F844207B68012283F8452060
:1029AC007B68012283F83D20002318460837BD467A
:1029BC0080BD000080B485B000AF78607B6893F870
:1029CC003D30DBB2012B01D0012335E07B680222C4
:1029DC0083F83D207B681B68DA687B681B6842F0D3
:1029EC000102DA607B681B68164A934209D07B6847
:1029FC001B68B3F1804F04D07B681B68124A93426A
:102A0C0011D17B681B689B6803F00703FB60FB68B4
:102A1C00062B10D07B681B681A687B681B6842F019
:102A2C0001021A6007E07B681B681A687B681B68E8
:102A3C0042F001021A60002318461437BD4680BCD0
:102A4C00704700BF002C01400004004080B584B0EA
:102A5C0000AF78607B681B68DB68FB607B681B6879
:102A6C001B69BB60BB6803F00203002B20D0FB6822
:102A7C0003F00203002B1BD07B681B686FF0020273
:102A8C001A617B6801221A777B681B689B6903F0CB
:102A9C000303002B03D0786800F098F905E0786800
:102AAC0000F08BF9786800F09AF97B6800221A77AD
:102ABC00BB6803F00403002B20D0FB6803F0040375
:102ACC00002B1BD07B681B686FF004021A617B68BB
:102ADC0002221A777B681B689B6903F44073002BF6
:102AEC0003D0786800F072F905E0786800F065F9B9
:102AFC00786800F074F97B6800221A77BB6803F0E1
:102B0C000803002B20D0FB6803F00803002B1BD01C
:102B1C007B681B686FF008021A617B6804221A77C5
:102B2C007B681B68DB6903F00303002B03D0786818
:102B3C0000F04CF905E0786800F03FF9786800F097
:102B4C004EF97B6800221A77BB6803F01003002B48
:102B5C0020D0FB6803F01003002B1BD07B681B6894
:102B6C006FF010021A617B6808221A777B681B6869
:102B7C00DB6903F44073002B03D0786800F026F96E
:102B8C0005E0786800F019F9786800F028F97B689E
:102B9C0000221A77BB6803F00103002B0CD0FB68F2
:102BAC0003F00103002B07D07B681B686FF0010258
:102BBC001A617868FEF792FDBB6803F08003002B66
:102BCC000CD0FB6803F08003002B07D07B681B68DC
:102BDC006FF080021A61786800F06FFABB6803F03E
:102BEC004003002B0CD0FB6803F04003002B07D0F4
:102BFC007B681B686FF040021A61786800F0F8F887
:102C0C00BB6803F02003002B0CD0FB6803F02003FF
:102C1C00002B07D07B681B686FF020021A61786864
:102C2C0000F042FA00BF1037BD4680BD80B584B0BD
:102C3C0000AF786039600023FB737B6893F83C30FD
:102C4C00012B01D10223B4E07B68012283F83C20E4
:102C5C007B68022283F83D207B681B689B68BB6005
:102C6C00BB6823F07703BB60BB6823F47F43BB6076
:102C7C007B681B68BA689A603B681B68B3F5005F99
:102C8C003ED0B3F5005F00F28780B3F5805F00F0B3
:102C9C008680B3F5805F7FD8702B1AD0702B7BD8D1
:102CAC00602B50D0602B77D8502B3CD0502B73D846
:102CBC00402B58D0402B6FD8302B64D0302B6BD896
:102CCC00202B60D0202B67D8002B5CD0102B5AD037
:102CDC0062E07B6818683B6899683B685A683B6897
:102CEC00DB6800F06AF97B681B689B68BB60BB689B
:102CFC0043F07703BB607B681B68BA689A604FE04F
:102D0C007B6818683B6899683B685A683B68DB6865
:102D1C0000F053F97B681B689A687B681B6842F467
:102D2C0080429A603CE07B6818683B6859683B6855
:102D3C00DB681A4600F0CAF87B681B6850211846FD
:102D4C0000F021F92CE07B6818683B6859683B68F7
:102D5C00DB681A4600F0E8F87B681B6860211846AF
:102D6C0000F011F91CE07B6818683B6859683B68F7
:102D7C00DB681A4600F0AAF87B681B6840211846ED
:102D8C0000F001F90CE07B681A683B681B68194677
:102D9C00104600F0F8F803E00123FB7300E000BFDD
:102DAC007B68012283F83D207B68002283F83C205D
:102DBC00FB7B18461037BD4680BD80B483B000AF96
:102DCC00786000BF0C37BD4680BC704780B483B0C0
:102DDC0000AF786000BF0C37BD4680BC704780B434
:102DEC0083B000AF786000BF0C37BD4680BC704725
:102DFC0080B483B000AF786000BF0C37BD4680BC98
:102E0C007047000080B485B000AF786039607B6893
:102E1C001B68FB607B682B4A934207D07B68B3F13D
:102E2C00804F03D07B68284A934208D1FB6823F07B
:102E3C007003FB603B685B68FA681343FB607B685C
:102E4C00204A934207D07B68B3F1804F03D07B6854
:102E5C001D4A934208D1FB6823F44073FB603B6826
:102E6C00DB68FA681343FB60FB6823F080023B6865
:102E7C005B691343FB607B68FA681A603B689A686D
:102E8C007B68DA623B681A687B689A627B680D4AD9
:102E9C00934203D13B681A697B681A637B680122F1
:102EAC005A617B681B6903F00103002B05D07B681A
:102EBC001B6923F001027B681A6100BF1437BD4601
:102ECC0080BC7047002C01400004004080B487B0E7
:102EDC0000AFF860B9607A60FB681B6A7B61FB68C5
:102EEC001B6A23F00102FB681A62FB689B693B6159
:102EFC003B6923F0F0033B617B681B013A69134388
:102F0C003B617B6923F00A037B617A69BB681343DD
:102F1C007B61FB683A699A61FB687A691A6200BF47
:102F2C001C37BD4680BC704780B487B000AFF860DA
:102F3C00B9607A60FB681B6A7B61FB681B6A23F0D3
:102F4C001002FB681A62FB689B693B613B6923F4C6
:102F5C0070433B617B681B033A6913433B617B699C
:102F6C0023F0A0037B61BB681B017A6913437B616F
:102F7C00FB683A699A61FB687A691A6200BF1C3770
:102F8C00BD4680BC704780B485B000AF78603960B6
:102F9C007B689B68FB60FB6823F07003FB603A68FE
:102FAC00FB68134343F00703FB607B68FA689A6085
:102FBC0000BF1437BD4680BC704780B487B000AFEB
:102FCC00F860B9607A603B60FB689B687B617B69E9
:102FDC0023F47F437B613B681A027B681A43BB680E
:102FEC0013437A6913437B61FB687A699A6000BF6B
:102FFC001C37BD4680BC704780B485B000AF78608C
:10300C0039607B6893F83C30012B01D1022341E0FD
:10301C007B68012283F83C207B68022283F83D20E8
:10302C007B681B685B68FB607B681B689B68BB608C
:10303C00FB6823F07003FB603B681B68FA68134362
:10304C00FB607B681B68FA685A607B681B68144AD3
:10305C00934209D07B681B68B3F1804F04D07B6826
:10306C001B68104A93420CD1BB6823F08003BB60F1
:10307C003B685B68BA681343BB607B681B68BA68C3
:10308C009A607B68012283F83D207B68002283F8DC
:10309C003C20002318461437BD4680BC704700BF47
:1030AC00002C01400004004080B483B000AF786075
:1030BC0000BF0C37BD4680BC704780B483B000AFF6
:1030CC00786000BF0C37BD4680BC704770B50026D9
:1030DC000C4D0D4C641BA410A64209D100F022F833
:1030EC0000260A4D0A4C641BA410A64205D170BDE3
:1030FC0055F8043B98470136EEE755F8043B9847E2
:10310C000136F2E778310008783100087831000890
:10311C007C31000803460244934200D1704703F807
:10312C00011BF9E7F8B500BFF8BC08BC9E46704718
:0C313C00F8B500BFF8BC08BC9E46704708
:10314800FC60DAF266B6BEE0FEF6000000000000A1
:103158000000000001020304060708090203040531
:10316800060708090A0B0C0D0E0F101001020000CB
:043178003101000819
:04317C000D01000839
:10318000010000000100000001000000010000003B
:10319000010000000100000001000000010000002B
:1031A000010000000100000001000000010000001B
:1031B000C8000000C8000000C80000000010014066
:1031C000001001400010014000200040008000007D
:1031D00005000000020000000300000005000000E0
:1031E000030000000200000000127A00100000003E
:0431F00001000000DA
:0400000508001AB91C
:00000001FF
